:10000000400E00200913000065440000DD120000CE
:10001000DD120000DD120000DD1200000000000013
:10002000000000000000000000000000F10F0000D0
:10003000DD120000000000009D0F0000094E0000CE
:10004000A1100000A1100000A1100000A1100000EC
:10005000A1100000A1100000A1100000A1100000DC
:10006000A1100000A1100000A1100000A1100000CC
:10007000A1100000A1100000A1100000A1100000BC
:10008000A1100000A1100000A1100000A1100000AC
:10009000A1100000A1100000A1100000A11000009C
:1000A000A1100000A1100000A1100000A11000008C
:1000B000A1100000A1100000A1100000A11000007C
:1000C000A1100000A1100000A1100000A11000006C
:0C00D000A1100000A1100000A110000011
:1000DC0053B94AB9002908BF00281CBF4FF0FF31A3
:1000EC004FF0FF3000F00CB8ADF1080C6DE904CE08
:1000FC0000F008F8DDF804E0DDE9022304B07047F5
:10010C00704700BF2DE9F04F07468C460846099E04
:10011C0015463C461946002B40F0C6808242B2FA86
:10012C0082F746D94FB1C7F1200E24FA0EFE00FA21
:10013C0007F3BD404EEA030CBC404FEA15481FFACA
:10014C0085FEBCFBF8F9220C08FB19C309FB0EFA5F
:10015C0042EA03439A4528D9EB1809F1FF3004D23F
:10016C009A4502D9A9F102002B44A3EB0A03A4B2CD
:10017C00B3FBF8F208FB123302FB0EFE44EA034415
:10018C00A64514D92C1902F1FF3303D2A64501D987
:10019C00931E2C44A4EB0E0443EA00401EB1FC4019
:1001AC00002334607360BDE8F08F4846DDE71346EA
:1001BC00F0E702B9FFDE87BB831A01214FEA154E27
:1001CC00AAB2B3FBFEFC200C0EFB1C330CFB02F89A
:1001DC0040EA0343984563D9EB180CF1FF3004D285
:1001EC00984502D9ACF102002B44A3EB0803A4B24E
:1001FC00B3FBFEFC0EFB1C330CFB02F244EA034483
:10020C00A2424FD92C190CF1FF3304D2A24202D9CD
:10021C00ACF102032C44A41ABEE7C7F1200C20FA5F
:10022C000CF800FA07F324FA0CFCBD404CEA03026C
:10023C004FEA154EABB2B8FBFEFC110C0EFB1C804A
:10024C000CFB03F941EA0040814504FA07F423D979
:10025C0028180CF1FF3104D2814502D9ACF102010E
:10026C002844A0EB090092B2B0FBFEFC0EFB1C0074
:10027C000CFB03F842EA004398450FD9EB180CF13C
:10028C00FF3204D2984502D9ACF102022B44A3EB05
:10029C00080342EA014191E76146E2E76246F6E76C
:1002AC006046A2E76346B6E7834205D90EB1C6E9BC
:1002BC0000700021084676E7B3FA83F181B98342D6
:1002CC0001D3BA420AD8BC1A60EB030301209C4646
:1002DC00002E68D0C6E9004C002164E70846F7E719
:1002EC00C1F1200C8B4022FA0CF41C4302FA01F5EC
:1002FC0000FA01F327FA0CF220FA0CFB4FEA14492E
:10030C001343BBFBF9F81FFA84FE09FB18BB1A0C4C
:10031C0008FB0EFA42EA0B42924507FA01F73ED966
:10032C00A21808F1FF3004D2924502D9A8F10200BC
:10033C002244A2EB0A029BB2B2FBF9F809FB182289
:10034C0008FB0EFE43EA024296452AD9A21808F190
:10035C00FF3304D2964502D9A8F10203224443EAA2
:10036C000040A0FB0593A2EB0E029A42CE469846A3
:10037C0002D306D14F4504D2B9EB050E63EB04084A
:10038C00013886B1B7EB0E0362EB080707FA0CFCD9
:10039C00CB404CEA0303CF40C6E900379CE740460C
:1003AC00C7E74346DBE73146FDE6000008B50648E3
:1003BC00064C03F0D2FE204603F0CFFE00214FF492
:1003CC00004003F0ABFCF6E7C8570000E357000011
:1003DC000B6801330B60014B1B68184700000020B1
:1003EC00014B1860704700BF0000002007B50B469A
:1003FC00002102460191034801A900F0E5F803B081
:10040C005DF804FBDD0300002DE9F84FB0F81890FF
:10041C0019F00808044693460DD001290CBF49F089
:10042C00100949F02009A0F818908BF31188BFF33C
:10043C006F8FBDE8F88F09F00709022907D1204614
:10044C0003F098FE0028F0D00128238B4ED1676969
:10045C00218B002F15DA256821F00701C4E90088EB
:10046C0041F0010121830026218B01F0070ACA45C6
:10047C0002D0A368002B5AD10DB9002E71D00023E5
:10048C0056E001F007035A1F012A1ED821F007017C
:10049C00062B256889B2C4E900880AD13DB1638B6B
:1004AC002A46126801339BB2002AFAD1638341F0C9
:1004BC0002012183204603F05DFE06460028D3D0BE
:1004CC00238B43F020032383CDE7042B0CD121F0A5
:1004DC00070189B22183204603F04CFE0546002813
:1004EC00C1D041F0200121830025BCE7032809D1AC
:1004FC00226923F00703166843F0060323830025C3
:10050C002F46B1E7042806D1226923F00703566869
:10051C0043F00403F2E7052806D1226923F0070310
:10052C00966843F00503E9E700252E46E8E701232A
:10053C0041F0080121838BF31188BFF36F8FFBB956
:10054C0085BB16B11F492046B0474FF02003EFF38F
:10055C00118B83F31288BFF36F8F238B23F0080367
:10056C002383238BDA0625D523F010032383012163
:10057C00B4F8189009F0070900297FF45EAF54E72E
:10058C00A1680029DCD0D1F80090D1F804B03B462A
:10059C0052462046D847B9F1000FD1D04946D9F878
:1005AC000090F2E729463B46524620462D6803F060
:1005BC00FDFDC5E713F020011EBF23F020032383AC
:1005CC000221D5E7E54100002DE9F04F91B08B46B3
:1005DC00029092461C4600259AF8000008B928465D
:1005EC005FE325280AF1010707D0029B594698477B
:1005FC000028C0F25683013512E2182200210AA805
:10060C0003F062FF9AF80130252B78D000221046B7
:10061C00964694461646394617F8013B2B2B00F0AC
:10062C009D8000F29480202B00F09B80232B00F007
:10063C009B802EB19DF8306046F004068DF830603A
:10064C00BCF1000F05D09DF8306046F008068DF81F
:10065C003060BEF1000F05D09DF8306046F01006FA
:10066C008DF8306028B19DF8300040F020008DF8F6
:10067C0030002AB19DF8302042F040028DF8302035
:10068C009DF8302002F04400442803D16FF3861209
:10069C008DF830209DF830202A2B42F080028DF806
:1006AC0030207BD19DF8312042F001024B1C8DF89B
:1006BC0031201A782E2A9DF831200CBF01210021FF
:1006CC0061F341028DF8312074D15A782A2A6AD00C
:1006DC00013300210A26184610F8012BA2F130072D
:1006EC00092F40F28E809DF830200E91C2F340000D
:1006FC0040EAD17161F341028DF830205AE00AF1E1
:10070C0002078DF833309DF83130D90740F149811B
:10071C0054F8049BB9F1000F07DA9DF8302042F031
:10072C0004028DF83020C9F100095A0740F14281CA
:10073C0054F8048BB8F1000F80F241819DF83130F0
:10074C006FF341038DF831304FF0FF3837E12D2B2B
:10075C000CD0302B7FF46DAF01225CE74FF0010C15
:10076C0059E74FF0010E56E7012054E7012652E7F6
:10077C000CFB0202303A33461E4616F8010BA0F170
:10078C003007092FF4D9994293D09DF830100D926F
:10079C00D20F62F341018DF830108AE70B4600222C
:1007AC004FF00A0CE8E79DF8312042F004028DF876
:1007BC00312002331F4617F8012B6C2A41D025D863
:1007CC00682A2BD06A2A46D04C2A4CD01F4617F8E0
:1007DC00012B9DF831308DF83320782A00F2D98026
:1007EC00572A4DD8412A03D0453A022A00F2D1802B
:1007FC009DF83230042262F302038DF8323001236B
:10080C009EE006FB01213039034664E7742A26D0AA
:10081C007A2ADBD19DF8313006220DE05A78682A0D
:10082C009DF8312006D1012161F3C6028DF83120EB
:10083C009F1CCCE71346022262F3C6038DF83130BD
:10084C00C5E75A786C2A9DF8312001D10421EBE7D9
:10085C0013460322F0E79DF831300522ECE79DF8B2
:10086C0031300722E8E7BDF8303023F4F04323F0B1
:10087C00020343F4804343F00203ADF83030A6E7A3
:10088C00A2F15801202900F2848001A050F821F037
:10089C00610900009F0900009F0900009F090000EA
:1008AC009F0900009F0900009F0900009F0900009C
:1008BC009F090000FD0700009F090000610900006E
:1008CC0021090000FD070000FD070000FD070000E6
:1008DC009F090000210900009F0900009F090000EA
:1008EC009F0900009F0900006909000061090000D0
:1008FC00850900009F0900009F0900008509000080
:10090C009F090000610900009F0900009F09000079
:10091C00610900009DF83210012003F0780360F3A8
:10092C000201402B8DF8321002BF9DF8301041F0BF
:10093C0001018DF83010632A31D1003B18BF01231F
:10094C009DF83020C2F340010B4363F341028DF854
:10095C003020D8E69DF832100220DEE79DF83220D8
:10096C0003F07803A3F14000032161F30202434238
:10097C008DF832204341E3E79DF83220032113F038
:10098C00780F61F302028DF8322014BF012300238B
:10099C00D6E79DF8303043F001038DF8303000235A
:1009AC00CEE79DF93020002AB4BFDDF834904FF02B
:1009BC00FF39BAE69B077FF5C7AEDDF838809DF8A6
:1009CC0031100023CDE90D339DF8323003F00703CD
:1009DC00012BC1F3C30138D1CB1E042B22D8DFE885
:1009EC0003F003090921210054F8043BDA17CDE97F
:1009FC000A3206E0073424F00704F4E80223CDE9B8
:100A0C000A239DF8303013F0030656D002983B466B
:100A1C005246594603F0FAFC0028C0F242810544C4
:100A2C00BA46D9E554F8043B01294FEAE372CDE903
:100A3C000A3205D19DF828300A9300230B93E0E786
:100A4C000229DED1BDF92830D0E7022B23D1CB1EF1
:100A5C00042B13D8DFE803F0030A0A1212002268F1
:100A6C000A920023201D0B930446CAE7E01D20F0D8
:100A7C000700F0E80223CDE90A23F5E754F8043B1C
:100A8C000A9301294FF000030B93D3D00229B8D15C
:100A9C00BDF82830D0E7042B09D1E31D23F0070360
:100AAC0003F10804D3E90023CDE90A23A9E7032BBA
:100ABC0004BF54F8043B0A93A3E79DF8330078284D
:100ACC00AED8622822D825283FF48FAD5828A7D15C
:100ADC000DF126030093DDE90A0104AB0CAA03F027
:100AEC004FFC8246B8F1000F0DF126000CDB9DF88F
:100AFC003020A0EB0A036FF3861298458DF8302056
:100B0C0002D9A8EB03030D9380463DE0633815280A
:100B1C0086D801A252F820F0A50B0000090C0000A9
:100B2C002D0A00002D0A00002D0A00002D0A0000DD
:100B3C00090C00002D0A00002D0A00002D0A0000EF
:100B4C002D0A0000630C0000310C0000350C000075
:100B5C002D0A00002D0A00007D0B00002D0A00005C
:100B6C00310C00002D0A00002D0A0000310C000091
:100B7C00B8F1000FDDF828A00ADB4146504603F01F
:100B8C0083FC0AEB00080026BAF1000F0CD147E7F2
:100B9C00504603F072FCF4E70A9B8DF810300026E7
:100BAC000DF1100A0DF11108A8EB0A0306B101337F
:100BBC009DF83220D00668D5023352060D9948BFF5
:100BCC000E9A0B4448BF9B18B9F1000F76DD9DF8C7
:100BDC003020A9EB0309C2F38003039353076DD4B0
:100BEC00500661D546B1029B5946304698470028BD
:100BFC0057DB039B01351E46302356E01E070FD4EE
:100C0C0013F0100618BF2026DDE90A23002BBFF6CF
:100C1C005FAF524263EB4303CDE90A232D2657E71E
:100C2C002B26F1E7002653E70A9840B30DF1260373
:100C3C0000930CAA04AB002103F0A2FBBDF83230E8
:100C4C0003F0EF0343F4F04343F010038246ADF896
:100C5C003230002646E70A9B07293FF6E1AEDFE873
:100C6C0001F00C04060C08080C0C1D70D8E61D8055
:100C7C00D6E6EA17C3E90052D2E61D60D0E6DFF8EB
:100C8C00C8A006460AF105088EE7110748BF0133D4
:100C9C0093E7184603935946029B98470028039BF9
:100CAC0004DA11B0BDE8F08F20234D444A46002AE7
:100CBC00A5EB090109F1FF39EBDC0D4636B1029BBE
:100CCC005946304698470028EBDB01359DF8323009
:100CDC00D90601D41A0706D5029B594630209847ED
:100CEC000028DEDB01359DF83230DB0607D59DF898
:100CFC003300029B594698470028D2DB01350D9EE4
:100D0C002E44731B002B16DC029843465246594660
:100D1C0003F07CFB0028C4DB0544A944A9EB0503C4
:100D2C00002B7FF77DAE029B594620209847002868
:100D3C00B7DB0135F2E7029B594630209847002873
:100D4C00AFDB0135DDE700BFF9570000F8B505460C
:100D5C004FF02003EFF3118683F31288BFF36F8FEC
:100D6C00094B1C685CB1094FD4E90132002D08BF56
:100D7C0013460BB1387898472468002CF4D186F3CD
:100D8C001188BFF36F8FF8BD98030020A0030020DB
:100D9C001FB50F4B1A68BAB901221A600D4A07CA5F
:100DAC0001AB83E807000C4A4AB193E8070003F053
:100DBC00AAFB002005B05DF804EBFFF7C7BF82F378
:100DCC001188BFF36F8FF4E705B05DF804FB00BF2B
:100DDC0004000020A003002013450000F0B589B0EA
:100DEC006E4601460546304603F027FB96E80700A1
:100DFC00174C84E807002078274638B3154B0021A0
:100E0C0019606B1C0DD0144816464FF4004C134A55
:100E1C000023E6FB0C01FFF75BF90121281A04F013
:100E2C00FAF902F045FD0120FFF790FF97E8070063
:100E3C0005AB83E807000A4A1AB193E8070003F0F0
:100E4C004FFBFFF7A5FF02F0B9FE207809B0F0BD0B
:100E5C00A0030020040000203F420F0040420F007E
:100E6C00ED440000014910220A60704710ED00E0CB
:100E7C0072B6404080F31188BFF36F8FBFF34F8F72
:100E8C0030BF62B6BFF36F8F704700BF72B6494078
:100E9C0081F3118820BF80F3118862B6704700BFC0
:100EAC0043B2002B08DB012200F01F0002FA00F015
:100EBC005B09024A42F82300704700BF00E100E0E2
:100ECC00054B420900F01F0053F82220012303FABE
:100EDC0000F01040704700BF00E100E043B2002B6F
:100EEC00A8BF03F1604301F10101B8BF064B4FEA03
:100EFC004111ACBF03F5614300F00F00C9B2B4BFA0
:100F0C00195483F80013704714ED00E030BFFFF75D
:100F1C00FDBF00BF0F4A08B50F4B22F07F029A604D
:100F2C00BFF34F8FBFF36F8FD3F8882022F470027A
:100F3C00C3F88820EFF3148323F0040383F314889D
:100F4C00BFF36F8F02F07AF902F06CFF00F0CAF970
:100F5C0002F07EF90000000000ED00E0094A0A49A9
:100F6C00936809689967094958674B6843F080533F
:100F7C004B60002383F31188BFF36F8F9368986FD6
:100F8C00704700BFC0050020C457000000ED00E012
:100F9C0012498A684FF030001044EFF3098C80E856
:100FAC00F01F202080F31288BFF36F8F0C4F4FF08F
:100FBC000066CA698A603E60506F0023536780F3F5
:100FCC00118804B5104600F0CFF9BDE8044002F1D9
:100FDC00300090E8F01F8CF309887047C0050020A2
:100FEC0004ED00E01EF0040F0CBFEFF30880EFF3EC
:100FFC000980816911F8021C0229FFD001B503F0A8
:10100C0023FA01BD42F8203C009B42F81C3C0A49E3
:10101C00019B42F8183C029B42F8143C21F0010160
:10102C004FF0807342F8043C42F8081C0023203A2D
:10103C0002654367704700BF79430000094A0346C5
:10104C00906870B113F1160F406E05D0A0F120021C
:10105C009A4205D8834203D2814228BF00207047B0
:10106C0000207047C005002008B5094B98600D465C
:10107C00144600F079F9204685F30988002163B6FF
:10108C0081F31188BFF36F8F0022002303F06EF9F8
:10109C00C005002001B572B60B4A906900281EBF2E
:1010AC000021916103F08EFF62B6EFF30580A0F191
:1010BC0010004FEAC0000549014409C99847BDE832
:1010CC000140034908470000C005002034540000CB
:1010DC00E1100000044B9968D869884203D0034999
:1010EC004FF080520A607047C005002004ED00E00C
:1010FC0038B5194B14469A6A9A6A9A6A054690074B
:10110C0019D5586B9A6A120615D519B19A6A22F03C
:10111C0080029A629A6A9A6A9A6AD1060ED49B6A7B
:10112C009A070BD400200C4A936A43F0FF03936296
:10113C000023237038BD6FF01500EBE7064B5B689E
:10114C001B05EFD52946FFF779FF0028EAD080F37D
:10115C0009880220E7E700BF00ED00E00D4B9A6A1A
:10116C009A6A9A6A920508D59A6B9A6A120404D5FF
:10117C0018B19A6A22F400429A62064B9A6A9A6AE9
:10118C00D20558BF9A6A9A6A002042F47F429A624A
:10119C000870704700ED00E070B5484B5B688AB092
:1011AC000D46C3F30803002686F31188BFF36F8F37
:1011BC0002F07F41B1F17F4F11D102F00C010829EF
:1011CC000DD0110701D4054601260022033B8DF8F2
:1011DC000720032B6BD8DFE803F00455595D354627
:1011EC00F3E7364BDC6A14F0020460D1DA6A002AA9
:1011FC0015DBDA6A520012D5AA6932F8021C4DF6D8
:10120C00027291420AD093F828200AB30DF107021A
:10121C0001212846FFF76CFF044600E02C689DF87E
:10122C0007309BB92022294602A803F042F9099BFA
:10123C00002E3ED0C3F3080222B96FEA53236FEAA3
:10124C004323099302A9204603F0FCF80AB070BDB1
:10125C0093F829202AB10DF107010120FFF77EFF39
:10126C00DAE75A8D92B2002AD9D09A6A9A6A9A6AA7
:10127C009A6A9A6A9A6A9A6A6FEA02426FEA124208
:10128C009A62CCE70DF107020021C2E70DF10701CC
:10129C000020E3E7094B9A6A9A6A9A6A9A6A9A6AF0
:1012AC009A6A9A6A6FEA02426FEA12429A620024C0
:1012BC00B5E723F4FF7323F00103C2E700ED00E070
:1012CC00024A536943F010035361704700ED00E08C
:1012DC00EFF30880EFF3098101B57246FFF75CFF6D
:1012EC0001BD00BF044800232021C2180133272B65
:1012FC0082F80013F9D1704700E100E003F0AEFF73
:10130C00202080F3118808484FF40261401880F3C4
:10131C000988EFF314800221084380F31488BFF38B
:10132C006F8FFFF7F7FD0000C00F0020064B9B6886
:10133C00834207D1EFF3058323B1044A536843F08A
:10134C008053536002F00ABDC005002000ED00E0A0
:10135C00024B034A0348012100F06EB80000012043
:10136C0000000020D8550000426E054B203A1A6050
:10137C00044A2021C3E901121846012100F066B885
:10138C00AC03002000000B15F0B51F4F00268E4259
:10139C0001DB1046F0BD44689CB353B104F1FF3C33
:1013AC0014EA0C0F18D11F2C16D905681CEA050F6E
:1013BC0012D1202C0568D0F808C0D2B20FD9B4F1E4
:1013CC00004F0ED8013CB4FA84F4C4F11F0464003D
:1013DC00072A4CEA040406D96FF01502D9E7082451
:1013EC00F6E73E24F4E725F01F05154345F01005FC
:1013FC0044F00104C7F89820C7F89C500132C7F894
:10140C00A04001360C30C2E700ED00E0044B052291
:10141C00C3F89420BFF34F8FBFF36F8F704700BF9B
:10142C0000ED00E0BFF35F8F024B0022C3F8942065
:10143C00704700BF00ED00E010B5034C012322788B
:10144C00FFF7A2FF207010BD0006002008B5094A66
:10145C0000231278FFF798FF10F1160F02D0064AFE
:10146C00072800DD08BDC2F89800C2F8A030013092
:10147C00F6E700BF0006002000ED00E01449086804
:10148C00082810B521D8FFF7CDFF124C496800226F
:10149C00904201F10C0105D10F4B1870FFF7B6FF0C
:1014AC00002010BDC4F8982051F80C3C23F01F0309
:1014BC00134343F01003C4F89C3051F8043C43F040
:1014CC000103C4F8A0300132E2E74FF0FF30E8E747
:1014DC00E455000000ED00E000060020014B186010
:1014EC00704700BF080000204FF02002EFF311837B
:1014FC0082F31288BFF36F8F044A0121C2F84015A2
:10150C0083F31188BFF36F8F0020704700E0014018
:10151C0020B1034B800143F001031847704700BF13
:10152C00D055000038B54468206801F017FE30B97A
:10153C000D48216802F011FE6FF0120038BD616891
:10154C0004698568C9B2012303FA01F2236823EA0E
:10155C00020323604FF420622B689847212000215E
:10156C0002F0DCFB0020E9E70E580000084B70B5D8
:10157C00C31A0D4607499B1004465943064840229E
:10158C0002F0E8FF2B4601462046BDE870401847A4
:10159C00C8030020B76DDBB6FC52000073B50C4CD1
:1015AC000C4A4023041B00930D460B460A49A41019
:1015BC0061430646094802F0F9FF011E05DA304680
:1015CC002B4602B0BDE87040184702B070BD00BF9A
:1015DC00C803002029460000B76DDBB6FC520000A2
:1015EC00002270B5012104461046FFF777FC00205D
:1015FC00FFF756FC0F4801F0CFF80F4B984215D16E
:10160C0003F00FFC26690D49304602F002FE00285B
:10161C000BDB246909490125356404F11C0002F037
:10162C00F8FD002801DBE564002070BD6FF00400BC
:10163C00FBE700BF811600000000AD0B3056000028
:10164C0001460C2309484B4370B5C418D4E90E5617
:10165C0000224033A263184402F069FF2DB13246D8
:10166C002B460348BDE87040184770BDC8030020E6
:10167C00FC52000010B1012804D07047034B1B6CC6
:10168C005B0701D1FFF7DCBF704700BFC803002028
:10169C0008B54FF02003EFF3118183F31288BFF3E9
:1016AC006F8F124A136843F0020013F001031060AD
:1016BC000CD04FF08042D2F80C34D2F80C2413F03A
:1016CC00010303D00A4802F032FF012381F3118891
:1016DC00BFF36F8F23B1BDE808400020FFF7B0BF08
:1016EC00BDE80840012001F067B800BF18040020D5
:1016FC00080400201FB500220123CDE90223094A6A
:10170C00CDF800D06B46CDF804D002F080FF002855
:10171C0005DB4FF480420023684601F0FBFE05B068
:10172C005DF804FB4146000010B5074C23782BB93B
:10173C004FF4A57003F08DFD01232370BDE810401C
:10174C00002001F039B800BF01060020094BBFF39F
:10175C005B8F53E8002F22F0020143E800100028B1
:10176C00F7D1BFF35B8FD30702D4012001F06CB823
:10177C00704700BF180400202DE9F0413949BFF330
:10178C005B8F0746012251E8003F41E8002000280A
:10179C00F9D1BFF35B8F33B9334934484B60CB601D
:1017AC008A6002F049FD7B1E012B2FD8012F07D137
:1017BC004FF08043D3F81C3403F00303012B25D0E6
:1017CC0003F0F5FB044618B9294B1B78002B41D1CB
:1017DC004FF02003EFF3118683F31288BFF36F8F62
:1017EC000124DFF890804FF08045D5F81834D5F8F7
:1017FC001824D2030CD503F00303012B01D0012FC5
:10180C0006D10CB386F31188BFF36F8FBDE8F0815E
:10181C00ACB13046FFF73AFBD5F81835002BE4D1C4
:10182C00D5F80421002AE0D0C5F80431D5F80431EC
:10183C000123C5F81835C8F88031AB60D5E7002115
:10184C00212002F06BFAE7E74FF080430222C3F845
:10185C000423DBE74FF080430222C3F8082306463B
:10186C00BFE700BF1C040020B8030020E4030020E5
:10187C00340A002000E100E010B5044C2046FEF7CD
:10188C00AFFD2046FFF72AFE002010BD9D1800007A
:10189C00F7B5144E8DF8070004460325EFF31187B6
:1018AC004FF0200181F3118801220DF10701002076
:1018BC0001F004FC87F3118820B10123337020461A
:1018CC0003B0F0BD3378002BF9D0013D08D003F004
:1018DC006EFB0028E2D10021422002F01FFADDE766
:1018EC003570ECE70206002008B5094B1A786AB986
:1018FC000121197006200521FFF7F0FA0620FFF7E9
:10190C00CFFA044B4FF00042C3F80423002008BD6B
:10191C000306002000600040F7B5174642680669D0
:10192C00127A01F01F04B7F5A03F0D4644EA4214A9
:10193C000CD104F01F0202F5E0724FF0A04151F8F7
:10194C002220D00707D56FF085009AE0B7F5005F2D
:10195C00F16800F09880F2680121A9401143726986
:10196C00F1600121A940B7F5A03F0CBF0A438A439F
:10197C007261B269B3F5C02F0CBF0A438A43B261DE
:10198C003269B3F5802F0CBF114322EA01014A4A98
:10199C003161D2F804330020DBB200F5A27152F8A9
:1019AC002110C1F304218C4272D123FA00F1C90732
:1019BC006ED5830003F1804303F5C043D3F81015B3
:1019CC0021F00101C3F8101501238340C2F808333C
:1019DC00C0B200F0A9FF2046002102F02EFEF068F4
:1019EC00E84010F001004CD07069E84010F00102A2
:1019FC0055D0B369EB40DB075FBF316921FA05F5C0
:101A0C0005F00105C5F102050DF1070054BFEDB25B
:101A1C00032500F0A9FF294B98423DD19DF80720E2
:101A2C00930003F1804303F5C0432402D3F810154F
:101A3C0021F4473121F44071C3F81015D3F8101577
:101A4C0004F4F8540C4344EA0545C3F810559300CC
:101A5C0003F1804303F5C243002018609DF8071082
:101A6C001B688B0003F1804303F5C043D3F81025AA
:101A7C0042F00102C3F810250F4A01238B40C2F833
:101A8C00043303B0F0BD0122AA4021EA020166E74B
:101A9C000130082881D19EE76FF01200F1E731691F
:101AAC00E94001F00101C1F103012046C9B202F085
:101ABC00C4FD1046E5E700BF006000400000AD0B20
:101ACC002A4B70B546682A48134083423ED00DD845
:101ADC00062B15D005D89BB1022B39D06FF0150011
:101AEC0033E0B3F5801FF9D1012309E0214883428B
:101AFC0030D0B3F5A00F2FD0B3F5800FEED1022369
:101B0C00D00654BFC2F34015032582F4807412F43E
:101B1C00007FC2F34020C4F3002407D012F4006FFE
:101B2C0076681BD001228A40C6F8082540EA440298
:101B3C0001F01F0142EA032301F5E0714FF0A042CE
:101B4C0043EA850342F82130002070BD0723D7E714
:101B5C000423D5E70523D3E70323D1E7520542BF7E
:101B6C0001228A40C6F80C25E0E700BF0600F00011
:101B7C0006001000020040002DE9F843414BD3F859
:101B8C007C51002D59D0404B4FF0A049D3E9052191
:101B9C00DF68D9F810451B690A4327EA02075C4045
:101BAC0027EA04043A4601264FF0000882BB354B65
:101BBC00C3F87C21D3F87C31344A32480023012607
:101BCC001F46D0F8041306FA03FC1CEA010F0CD0D4
:101BDC00116851B103F5A27150F821101760C1F3CF
:101BEC00042106FA01F10C4311680133082B02F1B0
:101BFC000402E6D11CBB4DB1234ED6E90531F26887
:101C0C000B4322EA0302012400254ABBBDE8F883FA
:101C1C0016420ED03E4208F01F0008BF00F5E073DC
:101C2C004FF0000108BF59F8233002F006FD22EAFC
:101C3C00060208F101087600B8E72C46BCE7124B07
:101C4C0059680029D7D00E68114F8A68224002D0FB
:101C5C004B6838469847002ECDD031463668F4E7AD
:101C6C0014420CD03169E94001F00101C1F10301CA
:101C7C00C9B205F01F0002F0E0FC22EA04020135B3
:101C8C006400C2E7006000402004002000610040B6
:101C9C004453000008B54368D3E9020101F090F900
:101CAC00034B984214BF6FF00F00002008BD00BF1B
:101CBC000000AD0B10B50446002201210320FFF7F4
:101CCC000DF960682369064A00F1080100F076FFFF
:101CDC00044B984214BF6FF00F00002010BD00BFE2
:101CEC00F51C00000000AD0B0378012B08D0022B73
:101CFC0008D04BB9054B0B6201F1100001F0EABBA7
:101D0C00034BF8E7034BF6E7034BF4E70000AD0B8E
:101D1C000100AE0B0200AE0B0100AD0B10B504467A
:101D2C00002201210420FFF7D9F860682369064AD4
:101D3C0000F1080100F042FF044B984214BF6FF011
:101D4C000F00002010BD00BFF51C00000000AD0B03
:101D5C002DE9F04F4668076989B01D460C46338B58
:101D6C00D7F82890009393460021142203A802F080
:101D7C00ABFB8DF80D504FF0FF324FF0FF33384670
:101D8C0001F0C8FB07F1100A00220023504601F0B5
:101D9C00C1FB304600F058FF4FF000084546D845CF
:101DAC0001D3002449E0217A0A0700F18F8008F161
:101DBC000108D84562680AD28B0708D4237D81EAD2
:101DCC00030000F0010003F00403034316D0BDB17F
:101DDC000023DDF800C0A81860457AD8C80706D4DF
:101DEC002168019309EB050002F063FB019B62681B
:101DFC001544ADB2002B37D00C34D0E70123E8E703
:101E0C00C90724D523680693636804930025237AB5
:101E1C0003F0010213F0020F8DF80C2003A90CBF84
:101E2C0020220022304600F03DFF2E4B984221D05C
:101E3C000B33984253D06FF00404304600F014FF7B
:101E4C00384601F047FB204609B0BDE8F08F216809
:101E5C0001F06043B3F1005FD4D0738B93423BD35A
:101E6C00484602F026FBA588002DCBD0CDF8189063
:101E7C000495CCE74FF480420023504601F04AFB16
:101E8C0038B1304600F0F0FED6E9020101F098F8C6
:101E9C00D1E73B6A134A9342CDD1237ADB0701D4B5
:101EAC000025A9E7069B9945FAD1234608E0A91A13
:101EBC00D86801938DB219FA81F102F0FAFA019BFC
:101ECC005A689542A3F10C03F1D2E9E76FF085044F
:101EDC00B3E76FF01B04B0E76FF01504ADE76FF0DC
:101EEC000F04AAE70000AD0B38B505690849044694
:101EFC00284640F8044B02F08CF9064905F1200005
:101F0C0003F098F8606802F05CFE00EAE07038BDFF
:101F1C0074570000394C00002DE9F0471C1E054693
:101F2C000F46904610DB7AB14FEA5249D603002394
:101F3C00144A30464946FEF7CBF810B1124B1B78C9
:101F4C0043B9404603F085F92146281D3B46BDE8C0
:101F5C00F04718470D480B4A2F6530184FF0030314
:101F6C0049F1000185F854300023FEF7B1F8024620
:101F7C000B4605F1200001F03DFC041EE4DBBDE83E
:101F8C00F08700BF40420F00340A00203F420F0090
:101F9C0070B54B79012B24D18B79032B21D1CC79C2
:101FAC002CB1012C1DD143685B689B0719D00A79B1
:101FBC0012B1022A15D10E220B684568B3F5164FE3
:101FCC002D6862D02BD8B3F5165F61D014D8B3F559
:101FDC00966F5FD008D8B3F5967F5ED0B3F5167FB9
:101FEC005ED06FF085004FE0B3F5166F5BD0B3F5A4
:101FFC00965FF6D1364B3CE0B3F5E14F56D007D89F
:10200C00B3F5615F54D0B3F5964FEAD1314B30E064
:10201C0047F61226B342E4D14FF4000329E0B3F59E
:10202C00613F47D013D8B3F5963F46D009D84DF64B
:10203C00C026B34243D0B3F5614FD2D14FF46B03FA
:10204C0017E0B3F5E13FCCD14FF0EB7311E0B3F5F2
:10205C00612F37D008D8204EB34236D0B3F5E12FDC
:10206C00BFD14FF0E86304E01C4EB342B9D14FF03E
:10207C008053C5F82435036903C922430433C5F8DA
:10208C006C2583E80300002070BD4FF41D03F0E7BE
:10209C00134BEEE74FF49E23EBE74FF4A033E8E746
:1020AC004FF41C33E5E74FF41D23E2E70D4BE0E75B
:1020BC000D4BDEE74FF06C73DBE70C4BD9E74FF4BD
:1020CC006503D6E74FF07063D3E74FF08063D0E73A
:1020DC0000B0130000A04E0090D0030040420F004F
:1020EC000050270000C0750000F03A0000903A0143
:1020FC00F8B5066905460F4602F059FF10B92C4B8E
:10210C001B7883B94FF02003EFF3118483F312880B
:10211C00BFF36F8F686802F027FE28BB84F3118829
:10212C00BFF36F8FEEE76424686802F01DFE70B990
:10213C00012002F074FE013CF6D10021212001F0B7
:10214C00EDFDF0E784F31188BFF36F8FF5E74FF0E7
:10215C002003EFF3118483F31288BFF36F8F686849
:10216C0002F002FE0028EDD006F8107F69680B68BB
:10217C000122C3F84465C3F848250022C3F8202186
:10218C00D3F82001C3F85821D3F858214A68D20655
:10219C0041BF0822C3F800254FF48002C3F8042382
:1021AC0001229A6084F31188BFF36F8FF8BD00BFD2
:1021BC00340A0020F8B50022074601210220FEF760
:1021CC008DFE0220FEF76CFE7D683E692C68D5F80A
:1021DC0008C00023C4F800354FF0A0410CF01F03D9
:1021EC0001229A4003F5E0733760C1F808250322F9
:1021FC0041F82320EA68501C07D0287E02F01F0308
:10220C0003F5E073800041F82300C4F80CC5C4F852
:10221C0014252A69531C09D0697E02F01F0303F5AB
:10222C00E0734FF0A040890040F823106969481C06
:10223C000CD001F01F034FF0A04C0120984003F587
:10224C00E073CCF8080503204CF82300C4F80815FB
:10225C003846C4F81025311DFFF79AFE07460028B2
:10226C0045D16B68190719D506F1120000F0B4FBC3
:10227C00214B98423DD1B07CC30003F1804303F560
:10228C00F83304F10C0204F59071C3F81015C3F87F
:10229C0014251A4A01238340C2F804350823C4F8D4
:1022AC000035EB6801330CD00023C4F81031D4F89E
:1022BC00103106F11103C4F834350123C4F8383554
:1022CC0023606B681A075CBF4FF48072C4F8042358
:1022DC00DB0644BF4FF48003C4F8043310360023EC
:1022EC00C4F84465C4F848350123A360E36038465C
:1022FC00F8BD6FF00407FAE70000AD0B00F00140E9
:10230C00044A1368C81A20F07F400344136001F09C
:10231C0069BE00BF500400202DE9F843860006F189
:10232C00804600F1500406F58836A400A4B204F1EE
:10233C0080444FF48037D6F84035DFF86C8021F0BC
:10234C007F4504F588348740D8F80495A3EB09033E
:10235C0023F07F4329F07F42012BC6F8402502D1A0
:10236C00132002F076FF09F10202AB1A23F07F432F
:10237C00B3F5000F88BF1546002323602368C8F807
:10238C00447325F07F43C6F84035D8F80435994599
:10239C0006D0EB1A023B23F07F43B3F5000F01D8B4
:1023AC00BDE8F8832B46CFE70010014070B5154D02
:1023BC00154C00262B68002006B170BDD4F8042300
:1023CC00D203FAD5D4F84021002AF6D0C4F84061E3
:1023DC00D4F840214FF48032C4F84823D4F8401587
:1023EC00D4F80465721A22F07F42B2F5000F88BF50
:1023FC00314601261BB16A6828609847DAE72B60E2
:10240C00DBE700BF440400200010014038B50F4C3E
:10241C0000254FF48033C4F80855C4F804330C4B32
:10242C004FF40032C3F8802101212A461120FEF717
:10243C0055FD1120FEF734FD0123064AA36002204E
:10244C0023601360FFF798F9284638BD001001404F
:10245C0000E100E04C040020134AB0F1FF3F14BF30
:10246C0003461346013B002B1CDD9342A8BF1346C9
:10247C000E4AD2F804050E4A1168401A10F4000FE7
:10248C0020F07F4218BF002301321344094A0A4846
:10249C00106000205060044A934294BFC9188918F8
:1024AC00FFF73ABF0023E3E7FFFF7F000010014076
:1024BC0050040020440400200D230000044BD3F8EA
:1024CC000405044B1B68C01A20F07F40704700BF06
:1024DC0000100140500400204FF0704393F8E02F9F
:1024EC00062A09D1D3F8E83FC3F30313033B042BAB
:1024FC0002D8024AD05C704700207047AC580000EC
:10250C00024AD2F80034002BFBD0704700E00140A7
:10251C0010B502F075FC40B14FF08053904AD3F8DF
:10252C002433C3F30423C2F84035FFF7D5FF10B1B1
:10253C008C4B8D4A5A6702F063FC48B14FF08053C4
:10254C004FF08042D3F84432C3F34233C2F83C35E7
:10255C00FFF7C2FF30B1854AD2F8FC3023F080730C
:10256C00C2F8FC3002F04CFC40B14FF0804300222A
:10257C00C3F80C21C3F81021C3F83825FFF7ACFFC2
:10258C0020B14FF080430322C3F8A025FFF7A4FF2E
:10259C0060B1774B0522C3F810260122C3F88826B8
:1025AC000022C3F818263F22C3F814264FF080539C
:1025BC00D3F83021511C09BF4FF07043D3F834319C
:1025CC0093F8E02FD3F8E83F08BFC3F30313062AB0
:1025DC004DD1033B042B03D8664AD35C002B46D069
:1025EC004FF08052644BD2F80414C3F82015D2F883
:1025FC000814C3F82415D2F80C14C3F82815D2F813
:10260C001014C3F82C15D2F81414C3F83015D2F8E2
:10261C001814C3F83415D2F81C14C3F84015D2F8AA
:10262C002014C3F84415D2F82414C3F84815D2F872
:10263C002814C3F84C15D2F82C14C3F85015D2F842
:10264C003014C3F85415D2F83414C3F86015D2F80A
:10265C003814C3F86415D2F83C14C3F86815D2F8D2
:10266C004014C3F86C15D2F84424C3F8702502F05A
:10267C00C7FB48B14FF080534FF08042D3F858322B
:10268C0003F04F03C2F8E43E02F0BAFB48B14FF03E
:10269C008043D3F80024D20744BF6FF00102C3F883
:1026AC0000244FF08053D3F83021062A26D1D3F8DA
:1026BC003431033B042B02D8304AD35C63B1304A2B
:1026CC00D2F83C3743F48063C2F83C374FF0805368
:1026DC00D3F83031062B11D14FF08053D3F834316D
:1026EC00033B042B02D8274AD35C3BB14FF0102399
:1026FC00D3F808224FF08043C3F858254FF010232D
:10270C00D3F80022002A03DBD3F80432002B22DAA0
:10271C001D4901234FF01020C1F804351524FFF793
:10272C00EFFEC0F80042FFF7EBFEC0F80442FFF7E3
:10273C00E7FE0023C1F80435FFF7E2FEBFF34F8F2D
:10274C000A49124BCA6802F4E0621343CB60BFF330
:10275C004F8F00BFFDE70E4B0E4A1A6010BD00BF35
:10276C000030014000C007400DF0ADBA00ED00E0B4
:10277C00005000409D58000000C00040A2580000CE
:10278C0000100040A758000000E001400400FA05CA
:10279C00A80000200090D003044B1A7922B9012222
:1027AC0018609A8002487047024870475404002011
:1027BC000000AD0B0C00AD0B30B510B1012834D0BE
:1027CC0030BD4FF08043D3F81824D3F81814C90344
:1027DC0029D502F00302012A25D1C3F818254FF0A0
:1027EC0080430022C3F80421D3F804210222C3F849
:1027FC000423134AD2F8FC0040F08073C2F8FC307A
:10280C00104B1C6844F0010119605D685968491B44
:10281C00B1F50A5FFAD31C604FF08043C2F8FC009C
:10282C0001229A60CCE70022D7E74FF080430022C8
:10283C00C3F80021D3F80021C3F804031860BFE7E4
:10284C0000ED00E0001000E038B510B1012817D001
:10285C0038BD4FF080440223C4F80833C4F8040197
:10286C00D4F804310123E36042F21075D4F8183423
:10287C00DB03EDD5012002F0D2FA013DF6D1E7E7FA
:10288C004FF080440023C4F80803C4F80031D4F896
:10289C000031606042F21075D4F80C34D4F80C247A
:1028AC00D20303F0010305D523B1012002F0B7FADE
:1028BC00013DF1D1014B00225A71C9E754040020AB
:1028CC004FF0804310B5D3F800216AB10022C3F851
:1028DC000021D3F800210122C3F80823114B5879A9
:1028EC0010B95A711B6898474FF08043D3F80421F4
:1028FC0072B10022C3F80421D3F80421D3F81824B0
:10290C00D3F81814920704D10122C3F818259A6041
:10291C0010BD0222C3F80823024BBDE810401B680F
:10292C000120184754040020012303FA00F0C3B21D
:10293C0093B14FF02003EFF3118183F31288BFF3AF
:10294C006F8F064AD36C23EA0000D06481F31188A0
:10295C00BFF36F8F02487047024870475C04002039
:10296C000000AD0B0400AD0B2DE9F0410546DFF87E
:10297C005CE01748DFF85C800024FF220126E3B2FC
:10298C004FF02001EFF3118C81F31288BFF36F8F9E
:10299C0022FA03F1C9070AD5DEF84C1006FA03F740
:1029AC00394201BF3943CEF84C1040462B708CF3A2
:1029BC001188BFF36F8F404505D006FA03F39A4395
:1029CC0004F10104DBD1BDE8F08100BF5C04002000
:1029DC000200AD0B0000AD0B2DE9F041144A154E71
:1029EC00154F0546154800244FF0010E5FFA84FC84
:1029FC004FF02003EFF3118883F31288BFF36F8F2E
:102A0C000EFA0CF3134207D031680B4201BF194385
:102A1C00316085F800C0384688F31188BFF36F8F9A
:102A2C00B84203D09A4304F10104DFD1BDE8F08130
:102A3C00FFFF0F00AC0400200000AD0B0200AD0B3B
:102A4C00F0B5D0F8243187B004460D46F3B100231D
:102A5C00C0F82431D0F82431D0F80431B3B98B68E4
:102A6C00C0F8083302238B608B68C0F80433D0F8AD
:102A7C0060311BB1D0F800329F0502D401232362D0
:102A8C006361012385F82E3007B0F0BDD4F8043112
:102A9C00002B44D00023C4F80431D4F804312B6A41
:102AAC005E060AD495F82E303BB92946204602F032
:102ABC00C2F980F0010085F82E002B6A13F0040C8B
:102ACC003ED105F10C070FCF01AE0FC695F830E0E3
:102ADC003B68C4F860C13360D4F86031C4F85CC1A1
:102AEC00D4F85C31BEF1000F02D095F82E303BB318
:102AFC000023C4F80032AB602E4BC4F8083344F307
:102B0C000733002B4FEA14321ADB02F01F015B096A
:102B1C0001228A406033284941F8232010E0C4F890
:102B2C004831D4F848312B7B23BB05F10C070FCF70
:102B3C0001AE0FC63B68336095F83030002BD8D00F
:102B4C00D4F8C434C4F8C434980725D501238DF8BF
:102B5C00003095F830300BB985F82F302B6A5B07B5
:102B6C0003D595F82E30002B8ED0D5E90031684670
:102B7C00984789E74FF40073C4F8003240F20223FF
:102B8C00AB6003F1CE73C4F80833AB68C4F80433FC
:102B9C000123A360236277E7590701D50223D6E707
:102BAC00DA0701D50323D2E795F82E30002BCED0CF
:102BBC000423CCE702029C0100E100E02DE9F04186
:102BCC0090F804801D4D342707FB08F7EC1994F896
:102BDC002D608EBBA66084F8306084F82F600E6880
:102BEC0063604B7B84F8323006F01F03EA5103F527
:102BFC00E0734FF0A04740F20C6C006847F823C01C
:102C0C004C6804F01F0303F5E07347F823C08B688E
:102C1C00C0F80865C0F80C45C0F824351AB140F36B
:102C2C000730FEF73DF9342303FB08550448012314
:102C3C0085F82D30BDE8F0810248FBE7B004002098
:102C4C000000AD0B0500AD0B036802790621C3F83B
:102C5C000015044B342101FB0233022283F82D2092
:102C6C00704700BFB004002001790C4B026834207F
:102C7C0000FB013300210A489960C2F80803D2F81E
:102C8C00000220F4BC50C2F80002C2F80015012268
:102C9C0083F82D2083F82F10704700BFB00400205C
:102CAC0002029C012DE9F047DFF8D0C290F804E055
:102CBC000468342303FB0EC31746002283F82E202E
:102CCC004B680D464BB1CB6803F06043B3F1005F2A
:102CDC0003D0AB4E3046BDE8F0873426A94BC4F880
:102CEC00083306FB0EC696F82F3003F0FF0A23B10B
:102CFC00B368C4F80433A44EECE717F0140F0CBF00
:102D0C000123002386F82F30A946B9E80F0006F1FD
:102D1C000C08A8E80F00D9F80030C8F80030C7F349
:102D2C00001386F8303037626B78C4F88835C4F8F5
:102D3C0004A1D4F80431C4F824A1D4F82431C4F883
:102D4C0060A1D4F86031C4F848A1D4F8483117F028
:102D5C00010318BF0123C4F8503517F0020318BF44
:102D6C000123C4F840352A78032A00F2B580DFE845
:102D7C0002F084A069022B6903F06041B1F1005F9D
:102D8C00A7D14FF48071C4F80012E8686968C4F8E0
:102D9C004405C4F848150021C4F85011D4F850016A
:102DAC0001202062A060D4F850010028FBD0C4F8A8
:102DBC005011D4F85011A968C4F84435342303FBDE
:102DCC000EC3C4F848154FF48021996008236F4E48
:102DDC00390706D4032A04D00122E2506B6803B9E8
:102DEC006261342303FB0EF30CEB03015CF803204C
:102DFC00002A74D10121D4F84831D4F804010028F8
:102E0C0040F08880003B18BF0123D4F8240100282F
:102E1C0000F08680C4F82421D4F82401D4F8605141
:102E2C00D4F8000215B110F4007F04D12162616165
:102E3C00002DE0D00023C00572D5C4F84821D4F889
:102E4C004831D8E76B68E968C4F84415C4F84835CC
:102E5C002B6903F06041B1F1005F7FF43AAFA968D0
:102E6C00C4F834354FF48453C4F83815C4F8003220
:102E7C00342303FB0EC3022112E06B68E968C4F82B
:102E8C00441517F0200FC4F848354FF034030BD01D
:102E9C004FF48071C4F8001203FB0EC34FF4802171
:102EAC0099600123236291E74FF40071C4F800127A
:102EBC00DFE76B68E968C4F83415C4F838354FF4AB
:102ECC008053C4F80032342303FB0EC302219960F3
:102EDC000123236200237AE72D4E082378E77A0733
:102EEC0044BF00238B607B0606D4342303FB0EC344
:102EFC009A6842F002029A60342303FB0ECCDCF891
:102F0C00083043F40073CCF80830DCF80830C4F80F
:102F1C000433DFE6C4F80421D4F80431012374E748
:102F2C00002B3FF468AF3421D4F8C434C4F8C43453
:102F3C0001FB0EC2002082F82F008BB1154A164EF1
:102F4C0013F0010F18BF164613F0020F02F1010225
:102F5C0018BF164613F0040F104B18BF1E46B9E6E7
:102F6C007B063FF5B7AE0EFB01C1204601F063FFB7
:102F7C00094B002808BF1E46ACE600BFB004002079
:102F8C000A00AD0B02029C010B00AD0B0000AD0B57
:102F9C000400AD0B0000AE0B0100AD0B0200AE0B3C
:102FAC0001490248FFF74CBDB0040020003000403E
:102FBC0002494FF04020FFF743BD00BFE40400205E
:102FCC002DE9F04100F01F0001F01F0601244FF025
:102FDC00A04504FA00F806F5E07200F5E07040F246
:102FEC000D63B440C5F80885C5F8084545F8203090
:102FFC0045F82230042001F012FF0927D5F81035CE
:10300C001C420DD10420C5F80C8501F008FF013FCE
:10301C00C5F80885042001F002FF17F0FF07EDD179
:10302C004FF0A0450420C5F80C4501F0F8FEC5F89A
:10303C000845042001F0F3FED5F81015034821FAD9
:10304C0006F606F00106801BBDE8F0810100AD0B11
:10305C0010B5144C144A1549032323616361144BB6
:10306C00A261E3614FF4806323620023A362636275
:10307C00E36222660F4A6266E01D1022A266236795
:10308C00E366636701F0EFF9BFF35F8F0A492046EF
:10309C0001F0E9F9BFF35F8F2023A371BFF35F8FBA
:1030AC0010BD00BF18050020B1580000BA58000030
:1030BC003406002024060020BE58000070B5164BC4
:1030CC00182400FB04451D4404FB00331646DC6A3F
:1030DC00012C0ED0022C18D0E4B9284601F0DBFEEE
:1030EC00864204D83246284601F0DEFE344620469D
:1030FC0070BD284601F0CFFE8642344628BF0446F8
:10310C002246284601F0D0FEF1E72846BDE8704083
:10311C0001F0E8BE0024EAE7180500200E4B70B55C
:10312C0053F82040013053F82060A64200D870BDFF
:10313C00D4E900352846984765B1EB6830B10028D2
:10314C00B8BF4042FF28A8BFFF2018705A7842F041
:10315C0001025A700834E8E7B057000070B5054614
:10316C0010B90024204670BD0378002BF9D00E4C0A
:10317C000E4EB44208D10C4CB442F2D0204601F0B1
:10318C00E5FE50B91834F7E7204601F0DFFE10B128
:10319C002368AB42E6D01834EBE72168284601F0EF
:1031AC007CF90028EED1DDE7FC520000345400001D
:1031BC0030B5002387B00122CDE904230F22CDE9DD
:1031CC00023201930C4C0D4B0D49182204EBC01428
:1031DC0002FB00334FF4B075009305FB0011094B53
:1031EC004FF4A072204600F0A5F8637B23F0040393
:1031FC00637307B030BD00BFF0010020C005002094
:10320C00600E0020B534000008B50A4B01220220E4
:10321C001A70FFF783FF00F059FF0320FFF77EFFC2
:10322C0000F0E6F8FDF7C2F8034A137B23F0010324
:10323C00137308BD340A0020700200200248034AB0
:10324C000021121A01F040B9E8000020380A0020D1
:10325C0080B5DFF8C080A6B088F308882E4D2F4EBD
:10326C006B69DFF8BC9043F4007300246B61E023BE
:10327C0085F82230EC772C766C76AC7685F820408D
:10328C006B6A43F4E0236B6285F82340FEF718F871
:10329C00FDF7E8FD4FF0FF33AB62EB62FEF7EEF8A3
:1032AC00FEF756F840F20113ADF8243006ABB360CC
:1032BC00CDE91F4401F049FE2046FFF72FFF012006
:1032CC00184DFFF72BFF00F095FC174B05930123CE
:1032DC0016490094CDE903434FF480624B46CDE987
:1032EC0001442846F56100F025F86A7B074622F078
:1032FC00040228466A7301F0D7FE2046FFF758FFF8
:10330C000B4BF3604A46394628463475C6F80480A0
:10331C00FDF7AAFEE017002000ED00E0C00500203C
:10332C001532000070020020C5580000400A002031
:10333C00F00100202DE9FF410E9E06730426467312
:10334C000D9E867300F158050F46D61DC0E9165523
:10335C000C9A002526F007062037C0E90655C0E96F
:10336C0019768560C573C56606F1200802920B9A22
:10337C00019288440A9A009242460446FDF742FEA6
:10338C00044B65659B6803B11B6F2367404604B013
:10339C00BDE8F081C0050020F0B587B00027059787
:1033AC00109F04970F9F03970E9F0297DDE91265FC
:1033BC000D9F01970C9F00970446FFF7BBFFB5F1DB
:1033CC00FF3F08BFB6F1FF3F05D055EA060305D114
:1033DC00204600F051FB204607B0F0BD03493246B1
:1033EC002B4604F1180000F083FDF4E7D5500000E3
:1033FC002DE9F043294C2A4D87B02646AE4204F104
:10340C0030040FD300F054FA244CDFF898904FF4AA
:10341C00004640F2E737AC4220D307B0BDE8F0439A
:10342C0000F0CCBB54F8043C059354F8103C0493C6
:10343C0054F8143C039354F8183C029354F81C3C75
:10344C00019354F8203C009354E90C0154E90A23ED
:10345C00FFF770FF54F8303C5E65CEE7636A5A1C88
:10346C000DD023EAE37300213846C3FB060151EA71
:10347C00C333D4F8008004D1404600F0FDFA303458
:10348C00C9E74FF47A720023FCF722FE02460B4682
:10349C0008F11800494600F02BFDF0E7E800002089
:1034AC00E8000020D550000008B5094C4FF0200270
:1034BC00EFF3118382F31288BFF36F8F01F09BFE41
:1034CC00A061FDF78BFC0028F0D1FDF7D1FCEDE7F6
:1034DC00C005002038B504464FF02003EFF31185EA
:1034EC0083F31288BFF36F8F01F03AFE48B10022CC
:1034FC00826701F0D9FD29460548BDE8384000F047
:10350C00C5B9D4E902329A4218BF0133A360F2E77D
:10351C00350A002013B54FF02004EFF3118184F32A
:10352C001288BFF36F8F846844B1013C846081F3CF
:10353C001188BFF36F8F002002B010BD52EA030454
:10354C0006D181F31188BFF36F8F6FF00F00F3E793
:10355C00CDE900230246024800F0EAFAECE700BF8E
:10356C00350A00202DE9F04F474E85B004464FF048
:10357C00FF384FF0FF394FF02003EFF3118783F33F
:10358C001288BFF36F8FD4F880508DB9022104F1EB
:10359C00980001F01EFD002835D10023CDE90089EB
:1035AC00029304F188023946384800F029FCE2E71E
:1035BC00D4F884202B68C4F88030954201D1C4F82B
:1035CC008430D4F8983043F00203C4F89830EB6898
:1035DC0023F0040343F00103EB606B6887F311885D
:1035EC00BFF36F8F284698474FF02003EFF3118BF2
:1035FC0083F31288BFF36F8FEB68990723F00102F6
:10360C000BD4EA600EE004F190050022012128465B
:10361C0001F0BEFD0028F8D1BFE7306823F00303AA
:10362C00EB6070B9D4F8983023F00203C4F89830EA
:10363C008BF31188BFF36F8FD8059CD400F0E6FA9A
:10364C0099E70027D0F800A03B4642689542014616
:10365C000CD1016897B972683160824200D17160F7
:10366C0040F8083BFFF736FF39460023BAF1000F4C
:10367C00D8D050460F46DAF800A0E6E772683960F9
:10368C00904208BF7760EBE7E8050020350A002080
:10369C00F8B5C3689A0704460E46C3F340051FD419
:1036AC005F071FD40A680AB982680A60D80744BF4A
:1036BC00A368336037684CBF022501257FB31B4BD1
:1036CC009B68BB4211D101F072FC80F00100C0B2CA
:1036DC00D7F89830D907C3F3800223D53AB140B953
:1036EC006FF00F050023336013E00020F0E71B0799
:1036FC00F6D400232360D7F8843063B9C7E920449B
:10370C00384601F071FCE36843F00403E36033686E
:10371C00A3602846F8BD1C60C7F88440F0E76FF042
:10372C001505DFE76FF01205DCE700BFC0050020D0
:10373C00F0B589B004460020C4E920000E9D04F1C8
:10374C008800C4E9220004F19000C4E924001DB3F0
:10375C002879002840F2011008BF0120C4F8980015
:10376C0000204FF0FF364FF0FF37CDE90330CDE9A5
:10377C000100CDE90667094B00942046FFF70CFECB
:10378C0025B1296811B1204601F017FC204609B07B
:10379C00BDE8F04001F014BC0120DFE771350000FA
:1037AC0013B5019008464FF02001EFF3118481F31B
:1037BC001288BFF36F8FC16811F00E0F16D153EA48
:1037CC00020C08D101A9FFF763FF84F31188BFF342
:1037DC006F8F02B010BD41F00801C1600199816288
:1037EC001030034900F084FB0120EEE70020ECE7E9
:1037FC000350000001460148FFF7D2BFF802002039
:10380C0010B5084C23685BB1FEF758FE03462068E0
:10381C00054A0344BDE810401361002101F0FBBCD4
:10382C0010BD00BFF8050020C0050020F8B5044607
:10383C000D464FF02003EFF3118683F31288BFF38C
:10384C006F8F0F4B00214FF4004740F2E7301961A6
:10385C004FF47A720023E4FB0701FCF739FC002CCF
:10386C00084B09DC1860084B1D60FFF7C9FF86F395
:10387C001188BFF36F8FF8BD0228B8BF0220F1E7A3
:10388C00C0050020F8050020F405002049B9EFF32D
:10389C00058030B9054BDA699B689A4201D0FDF777
:1038AC005DBB81F31188BFF36F8F7047C00500209B
:1038BC004FF02003EFF3118183F31288BFF36F8F66
:1038CC00044B9A68D37B013BD37381F31188BFF30C
:1038DC006F8F7047C005002038B502460C480D4D5F
:1038EC0001F0DCFB044600B9EC68AB684AB95A7BC2
:1038FC00D20606D1A26922B9DA897F2A01D9EB61F5
:10390C0038BD9C4201D0FFF77BFFEC61F8E700BFAC
:10391C00E0050020C005002070B590F90D20437B18
:10392C00002A014604DA03F07F03437301F08EFB97
:10393C004B7B154A63F07F034B73D2E9083402F1D9
:10394C002005AB421BD0D3B191F90E6093F90E0058
:10395C0086420FD0801B00280CDD5868C1E900306E
:10396C00016059609068431A5842BDE87040584154
:10397C00FFF7B2BFA34202D01B68002BE6D1C1E90E
:10398C00005421605162EDE7C005002038B50146B6
:10399C004FF02003EFF3118483F31288BFF36F8F82
:1039AC00154B164A98681568A84206D1FFF728FFF0
:1039BC0084F31188BFF36F8F38BD00251560104A52
:1039CC001268BAB1C2897F2A14D8427BD20611D1AF
:1039DC000C4A90F90E50126895420BDB0A4A904241
:1039EC0008D01A698A4202DCFFF796FFDEE7521A0A
:1039FC001A61DDE70022FBE7C0050020F00500207E
:103A0C00F8050020F4050020F001002070B490F9B6
:103A1C000D20437B002A2ADBDA0628D1826932BBCF
:103A2C00144A63F07F034373D2E9083402F1200592
:103A3C00AB4217D0B3B190F90E6093F90E108E42D1
:103A4C000BD0891B002908DD5A68C0E900321060D0
:103A5C00586070BC0020FFF73FBFA34202D01B6828
:103A6C00002BEAD1C0E9005420605062F1E770BC31
:103A7C00704700BFC005002010B54FF02002EFF3D7
:103A8C00118482F31288BFF36F8F427B510704D4E9
:103A9C0084F31188BFF36F8F10BD22F004024273C0
:103AAC00FFF7B4FF21460248BDE81040FFF7EEBE19
:103ABC00350A002008B590F90D20437B002A0146F9
:103ACC0004DA03F07F03437301F0C0FA044B9868E7
:103ADC00431A58425841BDE80840FFF7FDBE00BFED
:103AEC00C00500202DE9F041064615461C464FF056
:103AFC002003EFF3118783F31288BFF36F8F01F06C
:103B0C0005FB87F31188BFF36F8FB4F1FF3F08BF3C
:103B1C00B5F1FF3F08D02A46234606F118000349A9
:103B2C00BDE8F04100F0E4B9BDE8F081D5500000EB
:103B3C0010B5074B9868074B0C4618601146DDE929
:103B4C000223FFF7CFFF2046BDE81040FDF706BA71
:103B5C00C0050020F005002070B50446183001F0B7
:103B6C0034FB4FF02003EFF3118683F31288BFF37D
:103B7C006F8F94F90D20637B002A05DA03F07F0325
:103B8C006373204601F062FA0B4D637BA86843F027
:103B9C0010036373031B58425841FFF79DFE86F3D5
:103BAC001188BFF36F8FAB68A34203D1BDE870409F
:103BBC0001F06ABA70BD00BFC005002010B54FF00F
:103BCC002003EFF3118483F31288BFF36F8F084B3C
:103BDC009A68D37B0133D3730020FFF77DFE84F307
:103BEC001188BFF36F8FBDE8104001F04DBA00BFD4
:103BFC00C0050020044B002103F12002C3E9082278
:103C0C000846FFF713BE00BFC0050020F8B54FF003
:103C1C002003EFF3118583F31288BFF36F8F1A49DA
:103C2C008868437B03F07F03437301F00FFA8B68C2
:103C3C005A7B084662F07F025A7350F8202F82425A
:103C4C001CD0DAB14F6A93F90E6092F90E40A6427D
:103C5C000FD0A41B002C0CDD5168C3E900210B60B4
:103C6C0053600120FFF738FE2846BDE8F840FDF709
:103C7C0075B9BA4202D01268002AE6D14A6AC3E981
:103C8C00000213604B62ECE7C005002050EA010310
:103C9C002DE9F04105460E4603D1FFF7B7FF002092
:103CAC0033E06FF00104241A4FF0FF3363EB010390
:103CBC00012C73F1000302DA01F0C7FA44194FF03A
:103CCC002003EFF3118883F31288BFF36F8F104F2B
:103CDC00104BB8681860FFF7EDFEB8680E492A461D
:103CEC003346183000F004F9BA68537B43F01003E4
:103CFC0053734046FDF732F901F0A7FA201A63EB33
:103D0C000303012873F10003C9DBBDE8F08100BF98
:103D1C00C0050020F0050020D5500000B1F1FF3F98
:103D2C0008BFB0F1FF3F08B506D1084B9868FFF704
:103D3C0013FF4FF0FF3008BDFFF7A8FF4FF47A7365
:103D4C0080FB0303C00B40EA4340F4E7C0050020AE
:103D5C00014B9868704700BFC00500202DE9F04169
:103D6C0004464FF02003EFF3118683F31288BFF360
:103D7C006F8F437B1A0705D586F31188BFF36F8FBE
:103D8C00BDE8F08123F0200242F00801D20920D1D5
:103D9C004173A36813B1204601F060F904F11800D7
:103DAC0001F013FA04F158074FF00008A56DBD425D
:103DBC0000D0B5B90120FFF78FFD104B9B68A342D3
:103DCC00DAD1EFF30583002BD6D13046FDF7C6F8D8
:103DDC00D2E703F05F0343F00803437301F036F9B5
:103DEC00D7E7284601F03AF905F1180001F0EDF992
:103DFC00C5F878802846FFF709FED7E7C0050020F4
:103E0C00D3B5DDE90667089CCDE90067FFF790FEA6
:103E1C001CB1034B9B685B69236002B0D0BD00BF33
:103E2C00C005002008B50648064A0749121A00F0DA
:103E3C0040FBBDE80840054A0549064800F039BB7F
:103E4C0000000020E80000201859000000000000CD
:103E5C001859000000000020034B1B680BB9FEF73B
:103E6C002DBB0020704700BFFC050020114B10B586
:103E7C001C689C4208BF0024FFF7EEFF03466CB1A0
:103E8C00D4E90402C01A62EBE373012873F1000257
:103E9C000DDBB0F1004F73F1000301DB6FF000405C
:103EAC00054B1B6913B19842A8BF184610BD0020E2
:103EBC00F6E700BFAC000020C005002030B5036859
:103ECC0068B10A4A5268904209D043B1D3E904213F
:103EDC00D0E90445121941EB0501C3E904214268FC
:103EEC0013605A600023C0E9003330BDAC000020E1
:103EFC00B3F1FF3F08BFB2F1FF3FF8B504461F46D0
:103F0C00154667D081604FF02003EFF3118683F3E1
:103F1C001288BFF36F8F6FF00102531B4FF0FF3C01
:103F2C006CEB0703002B1BDB2B4BD3E90013521A52
:103F3C006CEB0303551B63EB0703012D73F10002BC
:103F4C00BCBF01250023C0E904532448D0E9003C40
:103F5C00834218D1C4E9000CCCF80040446026E040
:103F6C00FFF77AFF013547F100072D1847EBE07793
:103F7C00C4E90457E9E7521A65EB07059C45C4E907
:103F8C000425E7D01B68002BE4D0D3E90417D4E94F
:103F9C0004258A4275EB070EEDDA8A1A67EB0505E4
:103FAC00C3E904255A68C4E9003214605C600368F4
:103FBC0083420BD09C4209D1FFF758FF18B1084B34
:103FCC001B69834202D00021FEF746FA86F3118862
:103FDC00BFF36F8FF8BD00BFF0020020AC000020D3
:103FEC00C00500202DE9F8430546FFF7CFFC4FF044
:103FFC002003EFF3118483F31288BFF36F8F244EE9
:10400C00DFF890803560244DD8F8000032684045C8
:10401C00D5E9001E4FEAE2770BD050B1D0E9043C51
:10402C009A4277EB0C0916DA9B1A6CEB070CC0E979
:10403C00043C52184EEB0707C5E9002700253560F4
:10404C00FFF714FF2946FEF707FA84F31188BFF334
:10405C006F8FBDE8F88359184EEBE377D31A3360B2
:10406C0000220023C0E90423C5E90017FFF726FF4F
:10407C0084F31188BFF36F8F836898474FF0200348
:10408C00EFF3118483F31288BFF36F8FBCE700BF8B
:10409C00FC050020AC000020F002002010B54FF011
:1040AC002003EFF3118483F31288BFF36F8FFEF7B5
:1040BC0005FA054AD2E90031C01841F1000184F338
:1040CC001188BFF36F8F10BDF0020020024A034924
:1040DC00034800F042B800BF29580000CA5800003D
:1040EC00E55800001FB5094B029302AB0024009366
:1040FC00074908488DF80C404FF0FF334FF48062AD
:10410C00FFF716FB204604B010BD00BF0C59000091
:10411C00E0170020F80200207047034658B14268AF
:10412C0002F00302012A03D0032A04D1026812B15F
:10413C000020986070476FF01500704742688160EE
:10414C0002F00302032A4FF0000203460CBF006882
:10415C0010465A607047002070470FB407B504A989
:10416C0051F8040B0191FCF741F903B05DF804EB35
:10417C0004B07047038B13F0070305D10368002BC1
:10418C000CBF002003207047022B05D1438B002B62
:10419C0014BF002004207047012B05D10368002BAD
:1041AC000CBF002005207047002070472DE9F0411E
:1041BC000D4607461946281D90461E46FFF7BEFFC2
:1041CC00044638B13346424629463846A446BDE833
:1041DC00F0416047BDE8F08110B44FF02004EFF3DC
:1041EC00118284F31288BFF36F8F416110BC0121DF
:1041FC00FCF70AB910B50C4640B139B1081DFFF7F0
:10420C008CFF28B9A36833F0030301D06FF01500BD
:10421C0010BD38B50C46054658B151B10B6843B1C9
:10422C004B6833B11C22002100F04EF92C610020A8
:10423C0038BD6FF01500FBE770B504460E46FFF76E
:10424C00D9FF051E31DB4FF02003EFF3118183F30F
:10425C001288BFF36F8F638B208B4FF6FF75AB42C9
:10426C0000F007022ED0022A0ED1013363831546CB
:10427C00012381F31188BFF36F8FB3B10023314653
:10428C002046FFF793FF10E0830701D0062A0ED1DA
:10429C0000233360636893B9C4E90066154662B9BC
:1042AC000A4620460221FCF7AFF8284670BD052AC5
:1042BC000CBF6FF085056FF004050023D9E71E6075
:1042CC006660EBE76FF00A05F7E710B54FF02003D7
:1042DC00EFF3118283F31288BFF36F8F048B04F01A
:1042EC000704022C0AD0012C0CBF6FF004006FF0F5
:1042FC00850082F31188BFF36F8F08E0438B013B7D
:10430C009BB2438323B92146FCF77EF8204610BDAF
:10431C002046EEE74FF02002EFF3118382F3128870
:10432C00BFF36F8F00680B60704738B50468002CC2
:10433C00BCBF00240460002B0D4611469DF81020D4
:10434C000CDA03600122046885F31188BFF36F8FC8
:10435C0011B10020FFF72AFF204638BD04681AB1BE
:10436C00013404600222EEE7013CFAE7044608B58A
:10437C00084611461A46A047FFF7EAFCFCF7D6FFA1
:10438C002DE9F84F9A46D3786F2B80460F46154689
:10439C00A3F1410B29D024D8582B14BF0A26102680
:1043AC00DDF828903246002340463946FBF790FE54
:1043BC00092AD4B21ED83034B045E4B277F10003E8
:1043CC0009F8014D01D3D14511D82B789B0605D5A1
:1043DC00082E15D1AB7843F00803AB704846BDE806
:1043EC00F88F03F0F703702BD7E70826D8E7804641
:1043FC000F46D7E7BBF1190F94BF37345734DBE7BF
:10440C00102EEBD1AB7843F01003E6E72DE9F04129
:10441C000746884615461E461446B442A4EB0500D2
:10442C0002D33EB923782BB114F8010B4146B8479F
:10443C000028F2DABDE8F08170470022C0E90022C2
:10444C008260704700F098BD0146006800F094BD92
:10445C0000210120FFF7F6BF08B5FCF757FDBDE8BA
:10446C000840FCF737BE0139034611F8012F0AB991
:10447C001A70704703F8012BF7E7034600201A5C0B
:10448C0002B970470130FAE7034600201A5C0AB102
:10449C00884200D170470130F8E7431E013913F808
:1044AC00012F11F8010F824201D1002AF7D1101A05
:1044BC00704710B5431E0A44914200D110BD11F84B
:1044CC00014B03F8014FF7E7C9B20244034693428C
:1044DC0000D1704703F8011BF9E74FF0FF3070472C
:1044EC0084B004AB03E907009DF80430062B08D117
:1044FC004FF080430122C3F80025BFF34F8F20BF3C
:10450C00FDE704B0704784B004AB03E90700002357
:10451C0083F31188BFF36F8F04B070470369C9B27E
:10452C000C2201FB0233186C00F0070070474FF0AF
:10453C002003EFF3118283F31288BFF36F8F0368AC
:10454C0003F0C00343F00203036082F31188BFF34E
:10455C006F8F7047034670B50069C9B24FF02004E5
:10456C00EFF3118684F31288BFF36F8F0C2505FBD4
:10457C000104246C14F0C00401D0A24210D105FB3C
:10458C00010001220264002086F31188BFF36F8FB3
:10459C0028B95B6803EBC1014B689847002070BDDC
:1045AC004FF0FF30F0E78022FFF7D4BFF8B5069F3D
:1045BC0004690546C9B24FF02000EFF3118C80F36B
:1045CC001288BFF36F8F0C2606FB0146306C00F08F
:1045DC00070EBEF1010F11D1376400268CF3118840
:1045EC00BFF36F8F46B90C2000FB0144C4E90E23C6
:1045FC006B6853F8313098473046F8BD00F0C00076
:10460C00874214BF4FF0FF366FF07706E6E713B51D
:10461C0080240094FFF7CAFF02B010BD006910B4EB
:10462C00CBB21C2403FB0400002110BC104700205B
:10463C00FEF70AB91046FEF74DBF00F01F008000D0
:10464C0000F1A040D0F8003723F4403343EA014393
:10465C00C0F80037704743685B68D3F810350B60BF
:10466C000020704743685B68D3F8040542400A4059
:10467C004240C3F804250020704743685B68002063
:10468C00C3F80815704743685B680020C3F80C1525
:10469C00704743685A68D2F804354B40C2F8043569
:1046AC00002070470369586830B558B10024814226
:1046BC0012D108689D6854B98D42586000D1986039
:1046CC00002008606AB9002030BD2846EFE78D4213
:1046DC00206008BF9C60F3E705680446002DF4D108
:1046EC003AB198685A680A6059600028EBD1996011
:1046FC00EAE76FF01500E7E7B2F5005F14BF6FF063
:10470C00850000207047FEF705BF1FB5CDE90112EB
:10471C0002228DF80C20826801A994680122A0471E
:10472C0004B010BD07B58DF804201A0A8DF80520C9
:10473C008DF8063003220B4601A9FFF7E6FF03B004
:10474C005DF804FB2DE9F84306460C4615469946E0
:10475C0000F02DFC10BBD6F80480366906F120075A
:10476C004FF0FF324FF0FF333846FFF7CCFF328B60
:10477C00B8F80810706855402C4082EA0902544081
:10478C00A4B223461022FFF7CDFF054600B93483AF
:10479C003846FEF79FFE2846BDE8F8836FF00A0501
:1047AC00F9E700220B461146FFF7CCBF00231A464F
:1047BC00FFF7C8BF0A460023FFF7C4BF0023FFF76B
:1047CC00C1BF30B587B00C4600218DF8041011889C
:1047DC0049BAADF80510518849BAADF8071091885F
:1047EC0049BAADF80910D18849BAADF80B10118946
:1047FC0049BAADF80D10518949BAADF80F1091892D
:10480C0049BAADF81110D189128A054649BAADF8EA
:10481C00131051BAADF815106068298963B11346AD
:10482C001022FFF77FFF28B92B896068112201A99C
:10483C00FFF76BFF07B030BD0B46132201A9F7E75A
:10484C002DE9F341466805697068FEF787FC6860DE
:10485C00002861D033894FF07D081227022201A96C
:10486C008DF804808DF80570FFF74FFF0446002883
:10487C004AD13422686833898DF8052001A90222B7
:10488C008DF80480FFF741FF044600283CD100213D
:10489C006320FFF743FA3A46214605F10800FFF77B
:1048AC0013FE4EF2E0031E222B83AC83AC776868B8
:1048BC0033898DF8042040228DF8052001A90222AD
:1048CC00FFF723FF27460446F0B92B8B3189686824
:1048DC001022FFF727FF0446B0B9EB8A31896868CC
:1048EC000E22FFF71FFF044670B91F226868338938
:1048FC008DF8042098228DF8052001A902228DF84C
:10490C000670FFF702FF044605F12000FEF7E2FDFA
:10491C00204602B0BDE8F0816FF01504F4E72DE9F4
:10492C00F74FD0F804A004690D46174600F03FFB82
:10493C008346002840F08C8017F4A00F40F08B8049
:10494C0004F120094FF0FF334FF0FF324846FFF7D8
:10495C00DAFE0126638BAE40B6B223FA05F56FEA98
:10496C000608E9071FFA88F84FD4638A03EA08029D
:10497C006282BA075CD4E389F8064CBF334308EA79
:10498C000303E381238AB9064CBF334308EA0303CC
:10499C0023822389FA054CBF08EA03033343BD0580
:1049AC002381E38A4ED508EA03037805E38244D5D4
:1049BC00238B08EA030323834FF0010BB4F81D305B
:1049CC003A034CBF1E4308EA0306A4F81D605B467D
:1049DC0004F1080221465046FFF7F3FE054600BBE2
:1049EC0022238DF80430237F8DF80530B4F81D3068
:1049FC0060685BBA0422ADF806300DEB0201BAF820
:104A0C000830FFF782FE05460BE003EA0803BAF80C
:104A1C000810606863832022FFF784FE0546002897
:104A2C00A3D04846FEF756FD284603B0BDE8F08FEC
:104A3C007D070AD5334363829DE73905BED5238BA9
:104A4C003343B8E73343E382B8E76FF08505E8E713
:104A5C006FF00A05E8E76FF08505E5E72DE9F04111
:104A6C0088B0D0F8048007690D4600F0A0FA04461F
:104A7C0078BB07F1200630464FF0FF324FF0FF3382
:104A8C00FFF741FE0DF105020292012278680392B4
:104A9C0010230DF106028DF805300721B8F8083007
:104AAC00059202228DF8104006928DF81C10816838
:104ABC008C6802A9A047044620B9BDF806305BBA41
:104ACC009BB22B603046FEF705FD204608B0BDE8D2
:104ADC00F0816FF00A04F8E7CA07436805D4C1F304
:104AEC004202012A04D0022A0BD06FF01500704745
:104AFC001B684FF0CC72C3F824250369002059625F
:104B0C0070471B684FF0C862F5E703460A46006819
:104B1C001979012303FA01F103691B68194218BFC3
:104B2C0082F0010212B18368DB68184783681B6945
:104B3C00FBE730B50469456885B003A92046FFF74B
:104B4C00E9FB297D11F00101034614D101280CD198
:104B5C0005F10C00FFF7D9FF0346002203990092E0
:104B6C002046FFF7E2FB05B030BD002814BF03461A
:104B7C006FF01503F1E70023EFE77FB50569466891
:104B8C000C46284603A9FFF7C5FB034640B9327D06
:104B9C00D20705D4012106F10C00FFF7B6FF03463E
:104BAC0001220092039922462846FFF7BEFB04B06F
:104BBC0070BD00690430FFF788BB00690430FFF753
:104BCC003BBBF8B50546C06800F0C0F940B32C7D7E
:104BDC006B7CE868297C14F0030416BF4FF4D052A8
:104BEC004FF4B0526C6813430769D0F808C03D68A5
:104BFC00DA0748BF83F44063012623F480528E40C9
:104C0C00DB074CBF3543B5433D60DCF800309847BB
:104C1C00054618B914B1204600F01BFB2846F8BD18
:104C2C006FF01205FAE74068FFF7CBBF2DE9F041B2
:104C3C0090F8341050F8203C076B5D68012904464D
:104C4C00A0F120060FD105F10C00FFF75EFF6A689A
:104C5C0003460021216384F8341030463946BDE800
:104C6C00F041FDF759B9022907D1002105F10C00DB
:104C7C00FFF74BFFAA680346EBE700231A46E8E769
:104C8C002DE9F04150F8043C0446061F58680D46C7
:104C9C00017D11F0010113D187680C30FFF735FF4E
:104CAC0010F10B0F03460DD1022384F85030E5644C
:104CBC0004F11C000022BDE8F0410023FEF79ABD70
:104CCC0000231F463A4629463046BDE8F041FDF721
:104CDC0023B92DE9F04150F8043C0446071F5868ED
:104CEC00037DDB070D4614D4466801210C30FFF719
:104CFC000CFF10F10B0F03460DD1012384F850303B
:104D0C00E56404F11C000022BDE8F0410023FEF72D
:104D1C0071BD00231E46324629463846BDE8F04197
:104D2C00FDF7FAB802690B46D2E9010183E80300EA
:104D3C000020704743681B68D3F88004C3F88004D4
:104D4C007047436802691B68D3F8100148B1527C64
:104D5C000A700020C3F81001D3F8102101221A6048
:104D6C0070474FF0FF30704702680346D2F8580185
:104D7C0040B95B681B0706D4D2F82001003818BF75
:104D8C00012070470120704743681B68D3F8042347
:104D9C00D10518D5D3F82021AAB14FF02001EFF39B
:104DAC00118281F31288BFF36F8FD3F8201131B1C8
:104DBC000021C3F82011D3F820110121D96082F30E
:104DCC001188BFF36F8F42685268D20615D54FF029
:104DDC002001EFF3118281F31288BFF36F8FD3F8A8
:104DEC00581111B10021C3F800154FF48001C3F81C
:104DFC00081382F31188BFF36F8F704770477047A9
:104E0C004FF08053D3F83001421C04BF4FF0704375
:104E1C0093F8E00F831F584258417047004700F049
:104E2C0018BA08B50020FCF74BF818B9BDE80840D3
:104E3C00FCF736B808BD0A7B0346032A29D8DFE8FD
:104E4C0002F0212519028A68500304D5D3F84C25A9
:104E5C000869904207D18A6852031AD4D3F84C25BA
:104E6C004969914215D000200622C3F80005C3F809
:104E7C0000257047D3F84C2508699042F3D1D3F83C
:104E8C003C25EDE7D3F84C250969EAE7D3F83C2536
:104E9C00FAE7012070470369C26893429CBF80689F
:104EAC001B18013B981A70472DE9F843D0E902947E
:104EBC000546A9EB04084068904520440F4614446D
:104ECC0006D9FFF7F6FABFF35F8FEC60BDE8F88305
:104EDC004246A4EB0904FFF7ECFA6868224607EB9C
:104EEC000801EEE72DE9F843C568064689461746E2
:104EFC004FF000083469B3687068A54228BFE41805
:104F0C00013C621B5C1BBC4228BF3C46944228BF40
:104F1C001446494622462844FFF7CBFAB368254489
:104F2C00A044A1443F1BAB4208BF0025BFF35F8FD9
:104F3C00F560002FDED14046BDE8F883FEF788B857
:104F4C0008B5FFF7FBFF002008BD704738B1C368F8
:104F5C001888C0F30800A0F5807358425841704778
:104F6C004FF02002EFF3118382F31288BFF36F8F9F
:104F7C00FEE708B5FFF7F4FFF8B505460E464FF00F
:104F8C002003EFF3118783F31288BFF36F8FFEF7C3
:104F9C00DFFE314604462846FFF7EBFF87F3118806
:104FAC00BFF36F8F2046BDE8F840FCF7BFB9EFF3B5
:104FBC000580003818BF012070476FF0570070470C
:104FCC00FEF75ABD08B5FBF7E3FEBDE80840FFF756
:104FDC0016BF026801238B4022EA0303036022FA06
:104FEC0001F000F00100704720B10022114688301A
:104FFC0000F0CEB8704773B504464FF02003EFF3C2
:10500C00118583F31288BFF36F8F0023A0F1100674
:10501C00032104380193FFF7DCFF28B1A369019346
:10502C0001A93046FEF734FB85F31188BFF36F8F6F
:10503C0002B070BD38B5302204460D460021FFF792
:10504C0043FA4FF480736560E36038BDD0E90032F9
:10505C0013605A600023C0E90033704708B5FFF7AE
:10506C00F5FF437B23F0020343730023836008BDE9
:10507C00034620B9EFF305820AB9FBF76FBF83F340
:10508C001188BFF36F8F70474FF02003EFF311803F
:10509C0083F31288BFF36F8FFFF7EABF03460068F4
:1050AC00834208BF0020704710B54FF02003EFF388
:1050BC00118483F31288BFF36F8FFEF7A7FC84F380
:1050CC001188BFF36F8F10BD10B501464FF0200350
:1050DC00EFF3118483F31288BFF36F8F10F80B3C3E
:1050EC0013F0280F0DD151F8103C18380BB1FFF705
:1050FC00B5FF11F80B3C23F0140301F80B3CFEF741
:10510C0085FC84F31188BFF36F8F10BD38B504464E
:10511C000D46FEF7CFFC637B43F00203637395B13E
:10512C002B68A5609D4215D0A3B194F90E1093F98C
:10513C000E20914208D0521A002A05DD5A68C4E9A3
:10514C00003214605C6038BD6A68934202D01B6800
:10515C00002BECD16B68C4E900531C606C60F2E767
:10516C0038B54FF02003EFF3118583F31288BFF3AA
:10517C006F8FFFF793FF044620B1FFF76FFF1830D6
:10518C0000F023F885F31188BFF36F8F204638BDEC
:10519C0038B54FF02003EFF3118583F31288BFF37A
:1051AC006F8FFFF77BFF044650B181674261FFF7B9
:1051BC0055FF183000F009F82046FEF727FC0120B7
:1051CC0085F31188BFF36F8F38BD10B54FF02002F7
:1051DC00EFF3118482F31288BFF36F8F03683BB136
:1051EC00FEF76CFE002084F31188BFF36F8F10BDA7
:1051FC006FF01500F7E710B54FF02003EFF31184B3
:10520C0083F31288BFF36F8FFEF730FE84F311889F
:10521C00BFF36F8F10BD70B504460D464FF02003E1
:10522C00EFF3118683F31288BFF36F8FFEF71EFE28
:10523C00012805DDA04203DB29462046FDF70CF9C9
:10524C0086F31188BFF36F8F70BD08B5FEF726FF8C
:10525C0008BD08B1FCF75CB970470000FDF758B900
:08526C00A4AEFF7F0100000069
:10527400F514000000000000ED150000FC520000D1
:105284004D4F0000000000008518000000000000E1
:10529400C121000014530000192400002C53000005
:1052A400F518000044530000F14000000000000025
:1052B400311500005C530000291D000074530000E8
:1052C400C11C00008C5300004D480000A453000092
:1052D400F51E0000BC530000F51E0000D45300006E
:1052E400F51E0000EC530000334C00000454000091
:0852F400334C00001C540000C3
:1052FC0031580000205600000C560000B800002069
:10530C00C8030020C25500008C58000094570000C0
:10531C0080570000E000002094000020BA550000E7
:10532C00935800000000000000000000E400002082
:10533C0000000000B65500002A580000605600001E
:10534C003C560000BC00002020040020B05500009A
:10535C00295800000456000000000000B400002092
:10536C0000000000AC55000045580000D05600006D
:10537C009C560000C400002068000020A4550000CA
:10538C003F580000B45600009C560000C800002096
:10539C003C0000209C55000037580000905600003F
:1053AC006C560000C00000200C000020945500003A
:1053BC004B5800005C570000EC560000CC0000205D
:1053CC00980100208C5500005858000044570000EC
:1053DC00EC560000D0000020400100208455000055
:1053EC00655800002C570000EC560000D40000203B
:1053FC00E80000207C550000725800001457000093
:10540C00F4560000D8000020400400207455000021
:10541C007F580000FC560000F4560000DC00002011
:08542C003C0400206C55000057
:10543400CD280000294E0000000000005D4400005B
:1054440014530000954D0000AD2F0000294E0000BC
:10545400BD2F0000294E0000000000005D44000044
:1054640000000000851B0000000000005D440000F7
:10547400000000005D440000000000005D440000E6
:10548400000000005D440000000000005D440000D6
:10549400000000005D440000000000005D440000C6
:1054A400000000005D440000000000005D440000B6
:1054B400000000005D44000000000000B92300006B
:1054C400000000005D440000000000005D44000096
:1054D400000000005D440000000000005D44000086
:1054E400000000005D440000000000005D44000076
:1054F400000000005D440000000000005D44000066
:10550400000000005D440000000000005D44000055
:10551400000000005D440000000000005D44000045
:10552400000000005D440000000000005D44000035
:10553400000000005D440000000000005D44000025
:10554400000000005D440000000000005D44000015
:10555400000000005D440000000000005D44000005
:08556400000000005D4400009E
:10556C000400FF7FFF7FFF7F0400FF7FFF7FFF7F33
:10557C000800FF7FFF7FFF7F0800FF7FFF7FFF7F1B
:10558C000800FF7FFF7FFF7F07000D00FF7FFF7F7D
:10559C00FF7FFF7FFF7FFF7FFF7FFF7FFF7FFF7F0F
:1055AC00FF7FFF7FFF7FFF7FFF7FFF7FFF7FFF7FFF
:0E55BC00FF7FFF7FFF7FFF7FFF7FFF7FFF7F6F
:0655CA00FFFFFFFFFFFFE1
:1055D0000338FDD8704700000000002000000000E4
:1055E00000000B0602000000EC5500000000000067
:1055F000FF570000240002070000002007580000A9
:105600001E000B112A5800001E00000001170000A8
:10561000B34500001B4600000000000029450000C3
:105620009D16000059170000351700003B4600008A
:10563000A91500007915000000000000CD1A000037
:105640006346000071460000874600009346000054
:105650009F46000025190000B14600000000000030
:10566000FFFFFFFF00000050000000002B4900007A
:10567000694A0000C9470000C1470000B94700005F
:10568000AF470000054700000000000000000000D8
:10569000FFFF00003F5800003E000000E54A000008
:1056A000000000005D1D0000000000000000000080
:1056B000A11C0000003000400000000008000000B5
:1056C000070000000000400600000000100010006D
:1056D00000400040010000000F0000000E0000002C
:1056E000000040060000000010001000C74B000042
:1056F000BF4B0000874B00003F4B00007F5800006D
:105700000000000000000000445300001E000000E4
:1057100002000000725800000000000000000000BD
:10572000445300001D000000000000006558000008
:105730000000000000000000A4530000080000006A
:1057400000000000585800000000000000000000A9
:10575000A453000009000000000000004B580000A6
:105760000000000000000000A45300000A00000038
:1057700000000000DF4C00008D4C00000000000025
:105780004F4D0000FD200000414D00009D1F000016
:10579000314D000000200040080000000300000020
:1057A00002000000FFFFFFFFFFFFFFFF00000000FF
:1057B000745200009C520000A4520000FC520000F1
:1057C000FC520000F5FFFFFF57656C636F6D652CA1
:1057D000207374617274696E672073797374656D78
:1057E0002E0A005468696E67793532206973207219
:1057F000756E6E696E672E0A00286E696C29004608
:105800004C4153485F30005352414D5F3000436F6D
:10581000756C64206E6F742062696E6420646576B6
:1058200069636520222573220A004750494F5F3083
:1058300000434C4F434B004750494F5F50300049A5
:1058400032435F30004932435F31006363732D7030
:1058500077722D6374726C006D69632D7077722D91
:105860006374726C006D70752D7077722D63747235
:105870006C0073706B2D7077722D6374726C007690
:1058800064642D7077722D6374726C0055415254AC
:105890005F30007379735F636C6F636B00000001AE
:1058A00001010000000101000000000101000000F2
:1058B000005465726D696E616C005254540053451A
:1058C00047474552006D61696E0076322E372E399A
:1058D000392D313132302D676263306462383933AB
:1058E00031633930002A2A2A20426F6F74696E674B
:1058F000205A6570687972204F53206275696C6414
:10590000202573202573202A2A2A0A0073797377A9
:085910006F726B7100000000D2
:105918006341000001000000E744000000000000AF
:10592800000000000000000000000000000000006F
:105938000000000000000000000000002C00002013
:105948002C00002001000000010000003C000020A5
:105958003C00002001000000010000004C00002075
:105968004C000020000000000100000000000000C2
:1059780000000000040600206800002068000020E5
:1059880001000000010000007800002078000020DD
:1059980000000000010000000000000000000000FE
:1059A800140600200000000000C2010000010300EE
:1059B80000000000000000000090D003AC000020B0
:0459C800AC0000200F
:1059CC0000000000000000000000000000000000CB
:1059DC0000000000000000000000000000000000BB
:1059EC0000000000000000000000000000000000AB
:0459FC0000000000A7
:0400000300001309DD
:00000001FF
