:100000008009002099130000514400006D13000086
:100010006D1300006D1300006D1300000000000060
:10002000000000000000000000000000811000003F
:100030006D130000000000002D100000E14D0000D5
:1000400031110000311100003111000031110000A8
:100050003111000031110000311100003111000098
:100060003111000031110000311100003111000088
:100070003111000031110000311100003111000078
:100080003111000031110000311100003111000068
:100090003111000031110000311100003111000058
:1000A0003111000031110000311100003111000048
:1000B0003111000031110000311100003111000038
:1000C0003111000031110000311100003111000028
:0C00D0003111000031110000311100005E
:1000DC0053B94AB9002908BF00281CBF4FF0FF31A3
:1000EC004FF0FF3000F00CB8ADF1080C6DE904CE08
:1000FC0000F008F8DDF804E0DDE9022304B07047F5
:10010C00704700BF2DE9F04F07468C460846099E04
:10011C0015463C461946002B40F0C6808242B2FA86
:10012C0082F746D94FB1C7F1200E24FA0EFE00FA21
:10013C0007F3BD404EEA030CBC404FEA15481FFACA
:10014C0085FEBCFBF8F9220C08FB19C309FB0EFA5F
:10015C0042EA03439A4528D9EB1809F1FF3004D23F
:10016C009A4502D9A9F102002B44A3EB0A03A4B2CD
:10017C00B3FBF8F208FB123302FB0EFE44EA034415
:10018C00A64514D92C1902F1FF3303D2A64501D987
:10019C00931E2C44A4EB0E0443EA00401EB1FC4019
:1001AC00002334607360BDE8F08F4846DDE71346EA
:1001BC00F0E702B9FFDE87BB831A01214FEA154E27
:1001CC00AAB2B3FBFEFC200C0EFB1C330CFB02F89A
:1001DC0040EA0343984563D9EB180CF1FF3004D285
:1001EC00984502D9ACF102002B44A3EB0803A4B24E
:1001FC00B3FBFEFC0EFB1C330CFB02F244EA034483
:10020C00A2424FD92C190CF1FF3304D2A24202D9CD
:10021C00ACF102032C44A41ABEE7C7F1200C20FA5F
:10022C000CF800FA07F324FA0CFCBD404CEA03026C
:10023C004FEA154EABB2B8FBFEFC110C0EFB1C804A
:10024C000CFB03F941EA0040814504FA07F423D979
:10025C0028180CF1FF3104D2814502D9ACF102010E
:10026C002844A0EB090092B2B0FBFEFC0EFB1C0074
:10027C000CFB03F842EA004398450FD9EB180CF13C
:10028C00FF3204D2984502D9ACF102022B44A3EB05
:10029C00080342EA014191E76146E2E76246F6E76C
:1002AC006046A2E76346B6E7834205D90EB1C6E9BC
:1002BC0000700021084676E7B3FA83F181B98342D6
:1002CC0001D3BA420AD8BC1A60EB030301209C4646
:1002DC00002E68D0C6E9004C002164E70846F7E719
:1002EC00C1F1200C8B4022FA0CF41C4302FA01F5EC
:1002FC0000FA01F327FA0CF220FA0CFB4FEA14492E
:10030C001343BBFBF9F81FFA84FE09FB18BB1A0C4C
:10031C0008FB0EFA42EA0B42924507FA01F73ED966
:10032C00A21808F1FF3004D2924502D9A8F10200BC
:10033C002244A2EB0A029BB2B2FBF9F809FB182289
:10034C0008FB0EFE43EA024296452AD9A21808F190
:10035C00FF3304D2964502D9A8F10203224443EAA2
:10036C000040A0FB0593A2EB0E029A42CE469846A3
:10037C0002D306D14F4504D2B9EB050E63EB04084A
:10038C00013886B1B7EB0E0362EB080707FA0CFCD9
:10039C00CB404CEA0303CF40C6E900379CE740460C
:1003AC00C7E74346DBE73146FDE60000F8B52B48CE
:1003BC0002F0AAFE0646294802F0A6FE054627488A
:1003CC0002F0A2FE0746002E46D0002D44D0002895
:1003DC0042D041F601220721304603F074FE00287A
:1003EC003ADB41F201620521284603F06CFE00283D
:1003FC0032DB41F201620621284603F064FE00283C
:10040C002ADB0024C4B901220721304603F06BFE1D
:10041C0022460521284603F066FE002201340621FF
:10042C00384603F060FE032CA8BF002400214FF4D3
:10043C00004003F049FCE5E7012C4FF000024FF0BF
:10044C0007013046E2D003F04EFE0022052128467B
:10045C0003F049FE0122E1E7F8BD00BFE8560000B9
:10046C000B6801330B60014B1B6818470000002020
:10047C00014B1860704700BF0000002007B50B4609
:10048C00002102460191034801A900F0E5F803B0F0
:10049C005DF804FB6D0400002DE9F84FB0F81890DE
:1004AC0019F00808044693460DD001290CBF49F0F9
:1004BC00100949F02009A0F818908BF31188BFF3AC
:1004CC006F8FBDE8F88F09F00709022907D1204684
:1004DC0003F046FE0028F0D00128238B4ED167692B
:1004EC00218B002F15DA256821F00701C4E900885B
:1004FC0041F0010121830026218B01F0070ACA4536
:10050C0002D0A368002B5AD10DB9002E71D0002354
:10051C0056E001F007035A1F012A1ED821F00701EB
:10052C00062B256889B2C4E900880AD13DB1638BDA
:10053C002A46126801339BB2002AFAD1638341F038
:10054C0002012183204603F00BFE06460028D3D07F
:10055C00238B43F020032383CDE7042B0CD121F014
:10056C00070189B22183204603F0FAFD05460028D5
:10057C00C1D041F0200121830025BCE7032809D11B
:10058C00226923F00703166843F006032383002532
:10059C002F46B1E7042806D1226923F007035668D9
:1005AC0043F00403F2E7052806D1226923F0070380
:1005BC00966843F00503E9E700252E46E8E701239A
:1005CC0041F0080121838BF31188BFF36F8FFBB9C6
:1005DC0085BB16B11F492046B0474FF02003EFF3FF
:1005EC00118B83F31288BFF36F8F238B23F00803D7
:1005FC002383238BDA0625D523F0100323830121D3
:10060C00B4F8189009F0070900297FF45EAF54E79D
:10061C00A1680029DCD0D1F80090D1F804B03B4699
:10062C0052462046D847B9F1000FD1D04946D9F8E7
:10063C000090F2E729463B46524620462D6803F0CF
:10064C00ABFDC5E713F020011EBF23F0200323836D
:10065C000221D5E7D14100002DE9F04F91B08B4636
:10066C00029092461C4600259AF8000008B92846CC
:10067C005FE325280AF1010707D0029B59469847EA
:10068C000028C0F25683013512E2182200210AA874
:10069C0003F006FF9AF80130252B78D00022104683
:1006AC00964694461646394617F8013B2B2B00F01C
:1006BC009D8000F29480202B00F09B80232B00F077
:1006CC009B802EB19DF8306046F004068DF83060AA
:1006DC00BCF1000F05D09DF8306046F008068DF88F
:1006EC003060BEF1000F05D09DF8306046F010066A
:1006FC008DF8306028B19DF8300040F020008DF866
:10070C0030002AB19DF8302042F040028DF83020A4
:10071C009DF8302002F04400442803D16FF3861278
:10072C008DF830209DF830202A2B42F080028DF875
:10073C0030207BD19DF8312042F001024B1C8DF80A
:10074C0031201A782E2A9DF831200CBF012100216E
:10075C0061F341028DF8312074D15A782A2A6AD07B
:10076C00013300210A26184610F8012BA2F130079C
:10077C00092F40F28E809DF830200E91C2F340007C
:10078C0040EAD17161F341028DF830205AE00AF150
:10079C0002078DF833309DF83130D90740F149818B
:1007AC0054F8049BB9F1000F07DA9DF8302042F0A1
:1007BC0004028DF83020C9F100095A0740F142813A
:1007CC0054F8048BB8F1000F80F241819DF8313060
:1007DC006FF341038DF831304FF0FF3837E12D2B9B
:1007EC000CD0302B7FF46DAF01225CE74FF0010C85
:1007FC0059E74FF0010E56E7012054E7012652E766
:10080C000CFB0202303A33461E4616F8010BA0F1DF
:10081C003007092FF4D9994293D09DF830100D92DE
:10082C00D20F62F341018DF830108AE70B4600229B
:10083C004FF00A0CE8E79DF8312042F004028DF8E5
:10084C00312002331F4617F8012B6C2A41D025D8D2
:10085C00682A2BD06A2A46D04C2A4CD01F4617F84F
:10086C00012B9DF831308DF83320782A00F2D98095
:10087C00572A4DD8412A03D0453A022A00F2D1809A
:10088C009DF83230042262F302038DF832300123DA
:10089C009EE006FB01213039034664E7742A26D01A
:1008AC007A2ADBD19DF8313006220DE05A78682A7D
:1008BC009DF8312006D1012161F3C6028DF831205B
:1008CC009F1CCCE71346022262F3C6038DF831302D
:1008DC00C5E75A786C2A9DF8312001D10421EBE749
:1008EC0013460322F0E79DF831300522ECE79DF822
:1008FC0031300722E8E7BDF8303023F4F04323F021
:10090C00020343F4804343F00203ADF83030A6E712
:10091C00A2F15801202900F2848001A050F821F0A6
:10092C00F10900002F0A00002F0A00002F0A000016
:10093C002F0A00002F0A00002F0A00002F0A0000C7
:10094C002F0A00008D0800002F0A0000F10900009A
:10095C00B10900008D0800008D0800008D08000012
:10096C002F0A0000B10900002F0A00002F0A000016
:10097C002F0A00002F0A0000F9090000F1090000FD
:10098C00150A00002F0A00002F0A0000150A0000AB
:10099C002F0A0000F10900002F0A00002F0A0000A6
:1009AC00F10900009DF83210012003F0780360F388
:1009BC000201402B8DF8321002BF9DF8301041F02F
:1009CC0001018DF83010632A31D1003B18BF01238F
:1009DC009DF83020C2F340010B4363F341028DF8C4
:1009EC003020D8E69DF832100220DEE79DF8322048
:1009FC0003F07803A3F14000032161F302024342A8
:100A0C008DF832204341E3E79DF83220032113F0A7
:100A1C00780F61F302028DF8322014BF01230023FA
:100A2C00D6E79DF8303043F001038DF830300023C9
:100A3C00CEE79DF93020002AB4BFDDF834904FF09A
:100A4C00FF39BAE69B077FF5C7AEDDF838809DF815
:100A5C0031100023CDE90D339DF8323003F007033C
:100A6C00012BC1F3C30138D1CB1E042B22D8DFE8F4
:100A7C0003F003090921210054F8043BDA17CDE9EE
:100A8C000A3206E0073424F00704F4E80223CDE927
:100A9C000A239DF8303013F0030656D002983B46DB
:100AAC005246594603F0A8FC0028C0F24281054486
:100ABC00BA46D9E554F8043B01294FEAE372CDE973
:100ACC000A3205D19DF828300A9300230B93E0E7F6
:100ADC000229DED1BDF92830D0E7022B23D1CB1E61
:100AEC00042B13D8DFE803F0030A0A121200226861
:100AFC000A920023201D0B930446CAE7E01D20F048
:100B0C000700F0E80223CDE90A23F5E754F8043B8B
:100B1C000A9301294FF000030B93D3D00229B8D1CB
:100B2C00BDF82830D0E7042B09D1E31D23F00703CF
:100B3C0003F10804D3E90023CDE90A23A9E7032B29
:100B4C0004BF54F8043B0A93A3E79DF833007828BC
:100B5C00AED8622822D825283FF48FAD5828A7D1CB
:100B6C000DF126030093DDE90A0104AB0CAA03F096
:100B7C00FDFB8246B8F1000F0DF126000CDB9DF851
:100B8C003020A0EB0A036FF3861298458DF83020C5
:100B9C0002D9A8EB03030D9380463DE0633815287A
:100BAC0086D801A252F820F0350C0000990C0000F8
:100BBC00BD0A0000BD0A0000BD0A0000BD0A00000D
:100BCC00990C0000BD0A0000BD0A0000BD0A00001F
:100BDC00BD0A0000F30C0000C10C0000C50C0000A5
:100BEC00BD0A0000BD0A00000D0C0000BD0A00008B
:100BFC00C10C0000BD0A0000BD0A0000C10C0000C1
:100C0C00B8F1000FDDF828A00ADB4146504603F08E
:100C1C0027FC0AEB00080026BAF1000F0CD147E7BD
:100C2C00504603F016FCF4E70A9B8DF810300026B2
:100C3C000DF1100A0DF11108A8EB0A0306B10133EE
:100C4C009DF83220D00668D5023352060D9948BF64
:100C5C000E9A0B4448BF9B18B9F1000F76DD9DF836
:100C6C003020A9EB0309C2F38003039353076DD41F
:100C7C00500661D546B1029B59463046984700282C
:100C8C0057DB039B01351E46302356E01E070FD45D
:100C9C0013F0100618BF2026DDE90A23002BBFF63F
:100CAC005FAF524263EB4303CDE90A232D2657E78E
:100CBC002B26F1E7002653E70A9840B30DF12603E3
:100CCC0000930CAA04AB002103F050FBBDF83230AA
:100CDC0003F0EF0343F4F04343F010038246ADF806
:100CEC003230002646E70A9B07293FF6E1AEDFE8E3
:100CFC0001F00C04060C08080C0C1D70D8E61D80C5
:100D0C00D6E6EA17C3E90052D2E61D60D0E6DFF85A
:100D1C00C8A006460AF105088EE7110748BF013343
:100D2C0093E7184603935946029B98470028039B68
:100D3C0004DA11B0BDE8F08F20234D444A46002A56
:100D4C00A5EB090109F1FF39EBDC0D4636B1029B2D
:100D5C005946304698470028EBDB01359DF8323078
:100D6C00D90601D41A0706D5029B5946302098475C
:100D7C000028DEDB01359DF83230DB0607D59DF807
:100D8C003300029B594698470028D2DB01350D9E53
:100D9C002E44731B002B16DC0298434652465946D0
:100DAC0003F02AFB0028C4DB0544A944A9EB050386
:100DBC00002B7FF77DAE029B5946202098470028D8
:100DCC00B7DB0135F2E7029B5946302098470028E3
:100DDC00AFDB0135DDE700BFF0560000F8B5054686
:100DEC004FF02003EFF3118683F31288BFF36F8F5C
:100DFC00094B1C685CB1094FD4E90132002D08BFC6
:100E0C0013460BB1387898472468002CF4D186F33C
:100E1C001188BFF36F8FF8BD98030020A00300204A
:100E2C001FB50F4B1A68BAB901221A600D4A07CACE
:100E3C0001AB83E807000C4A4AB193E8070003F0C2
:100E4C004EFB002005B05DF804EBFFF7C7BF82F343
:100E5C001188BFF36F8FF4E705B05DF804FB00BF9A
:100E6C0004000020A0030020EB440000F0B589B082
:100E7C006E4601460546304603F0D5FA96E8070063
:100E8C00174C84E807002078274638B3154B00210F
:100E9C0019606B1C0DD0144816464FF4004C134AC5
:100EAC000023E6FB0C01FFF713F90121281A04F0CB
:100EBC0044F902F0D3FC0120FFF790FF97E80700FC
:100ECC0005AB83E807000A4A1AB193E8070003F060
:100EDC00F3FAFFF7A5FF02F047FE207809B0F0BD4A
:100EEC00A0030020040000203F420F0040420F00EE
:100EFC00C5440000014910220A60704710ED00E063
:100F0C0072B6404080F31188BFF36F8FBFF34F8FE1
:100F1C0030BF62B6BFF36F8F704700BF72B64940E7
:100F2C0081F3118820BF80F3118862B6704700BF2F
:100F3C0043B2002B08DB012200F01F0002FA00F084
:100F4C005B09024A42F82300704700BF00E100E051
:100F5C00054B420900F01F0053F82220012303FA2D
:100F6C0000F01040704700BF00E100E043B2002BDE
:100F7C00A8BF03F1604301F10101B8BF064B4FEA72
:100F8C004111ACBF03F5614300F00F00C9B2B4BF0F
:100F9C00195483F80013704714ED00E030BFFFF7CD
:100FAC00FDBF00BF0F4A08B50F4B22F07F029A60BD
:100FBC00BFF34F8FBFF36F8FD3F8882022F47002EA
:100FCC00C3F88820EFF3148323F0040383F314880D
:100FDC00BFF36F8F02F008F902F0FAFE00F0CAF9C5
:100FEC0002F00CF90000000000ED00E0094A0A498B
:100FFC00936809689967094958674B6843F08053AF
:10100C004B60002383F31188BFF36F8F9368986F45
:10101C00704700BF1C050020E456000000ED00E006
:10102C0012498A684FF030001044EFF3098C80E8C5
:10103C00F01F202080F31288BFF36F8F0C4F4FF0FE
:10104C000066CA698A603E60506F0023536780F364
:10105C00118804B5104600F0CFF9BDE8044002F148
:10106C00300090E8F01F8CF3098870471C050020B5
:10107C0004ED00E01EF0040F0CBFEFF30880EFF35B
:10108C000980816911F8021C0229FFD001B503F017
:10109C00D1F901BD42F8203C009B42F81C3C0A49A6
:1010AC00019B42F8183C029B42F8143C21F00101D0
:1010BC004FF0807342F8043C42F8081C0023203A9D
:1010CC0002654367704700BF65430000094A034649
:1010DC00906870B113F1160F406E05D0A0F120028C
:1010EC009A4205D8834203D2814228BF0020704720
:1010FC00002070471C05002008B5094B98600D4670
:10110C00144600F079F9204685F30988002163B66E
:10111C0081F31188BFF36F8F0022002303F01CF9B9
:10112C001C05002001B572B60B4A906900281EBF41
:10113C000021916103F0D8FE62B6EFF30580A0F1B7
:10114C0010004FEAC0000549014409C99847BDE8A1
:10115C0001400349084700001C05002050530000C3
:10116C0071110000044B9968D869884203D0034977
:10117C004FF080520A6070471C05002004ED00E01F
:10118C0038B5194B14469A6A9A6A9A6A05469007BA
:10119C0019D5586B9A6A120615D519B19A6A22F0AC
:1011AC0080029A629A6A9A6A9A6AD1060ED49B6AEB
:1011BC009A070BD400200C4A936A43F0FF03936206
:1011CC000023237038BD6FF01500EBE7064B5B680E
:1011DC001B05EFD52946FFF779FF0028EAD080F3ED
:1011EC0009880220E7E700BF00ED00E00D4B9A6A8A
:1011FC009A6A9A6A920508D59A6B9A6A120404D56F
:10120C0018B19A6A22F400429A62064B9A6A9A6A58
:10121C00D20558BF9A6A9A6A002042F47F429A62B9
:10122C000870704700ED00E070B5484B5B688AB001
:10123C000D46C3F30803002686F31188BFF36F8FA6
:10124C0002F07F41B1F17F4F11D102F00C0108295E
:10125C000DD0110701D4054601260022033B8DF861
:10126C000720032B6BD8DFE803F00455595D354696
:10127C00F3E7364BDC6A14F0020460D1DA6A002A18
:10128C0015DBDA6A520012D5AA6932F8021C4DF647
:10129C00027291420AD093F828200AB30DF107028A
:1012AC0001212846FFF76CFF044600E02C689DF8EE
:1012BC0007309BB92022294602A803F0E6F8099BC7
:1012CC00002E3ED0C3F3080222B96FEA53236FEA13
:1012DC004323099302A9204603F0AAF80AB070BD73
:1012EC0093F829202AB10DF107010120FFF77EFFA9
:1012FC00DAE75A8D92B2002AD9D09A6A9A6A9A6A17
:10130C009A6A9A6A9A6A9A6A6FEA02426FEA124277
:10131C009A62CCE70DF107020021C2E70DF107013B
:10132C000020E3E7094B9A6A9A6A9A6A9A6A9A6A5F
:10133C009A6A9A6A6FEA02426FEA12429A6200242F
:10134C00B5E723F4FF7323F00103C2E700ED00E0DF
:10135C00024A536943F010035361704700ED00E0FB
:10136C00EFF30880EFF3098101B57246FFF75CFFDC
:10137C0001BD00BF044800232021C2180133272BD4
:10138C0082F80013F9D1704700E100E003F0F8FE99
:10139C00202080F3118808484FF40261401880F334
:1013AC000988EFF314800221084380F31488BFF3FB
:1013BC006F8FFFF7F7FD0000000B0020064B9B68BA
:1013CC00834207D1EFF3058323B1044A536843F0FA
:1013DC008053536002F098BC1C05002000ED00E027
:1013EC00024B034A0348012100F06EB800000120B3
:1013FC0000000020F8540000426E054B203A1A60A1
:10140C00044A2021C3E901121846012100F066B8F4
:10141C00AC03002000000B15F0B51F4F00268E42C8
:10142C0001DB1046F0BD44689CB353B104F1FF3CA2
:10143C0014EA0C0F18D11F2C16D905681CEA050FDD
:10144C0012D1202C0568D0F808C0D2B20FD9B4F153
:10145C00004F0ED8013CB4FA84F4C4F11F046400AC
:10146C00072A4CEA040406D96FF01502D9E70824C0
:10147C00F6E73E24F4E725F01F05154345F010056B
:10148C0044F00104C7F89820C7F89C500132C7F803
:10149C00A04001360C30C2E700ED00E0044B052201
:1014AC00C3F89420BFF34F8FBFF36F8F704700BF0B
:1014BC0000ED00E0BFF35F8F024B0022C3F89420D5
:1014CC00704700BF00ED00E010B5034C01232278FB
:1014DC00FFF7A2FF207010BD5C05002008B5094A7B
:1014EC0000231278FFF798FF10F1160F02D0064A6E
:1014FC00072800DD08BDC2F89800C2F8A030013002
:10150C00F6E700BF5C05002000ED00E01449086818
:10151C00082810B521D8FFF7CDFF124C49680022DE
:10152C00904201F10C0105D10F4B1870FFF7B6FF7B
:10153C00002010BDC4F8982051F80C3C23F01F0378
:10154C00134343F01003C4F89C3051F8043C43F0AF
:10155C000103C4F8A0300132E2E74FF0FF30E8E7B6
:10156C000455000000ED00E05C050020014B186004
:10157C00704700BF080000204FF02002EFF31183EA
:10158C0082F31288BFF36F8F044A0121C2F8401511
:10159C0083F31188BFF36F8F0020704700E0014088
:1015AC0020B1034B800143F001031847704700BF83
:1015BC00F054000038B54468206801F0A5FD30B93E
:1015CC000D48216802F0BFFD6FF0120038BD616854
:1015DC0004698568C9B2012303FA01F2236823EA7E
:1015EC00020323604FF420622B68984721200021CE
:1015FC0002F06AFB0020E9E705570000084B70B5C4
:10160C00C31A0D4607499B1004465943064840220D
:10161C0002F08CFF2B4601462046BDE8704018476F
:10162C00C8030020B76DDBB61852000073B50C4C24
:10163C000C4A4023041B00930D460B460A49A41088
:10164C0061430646094802F09DFF011E05DA30464B
:10165C002B4602B0BDE87040184702B070BD00BF09
:10166C00C803002001460000B76DDBB6185200001D
:10167C00002270B5012104461046FFF777FC0020CC
:10168C00FFF756FC0F4801F0C3F80F4B984215D1E9
:10169C0003F0B3FB26690D49304602F0B0FD00287B
:1016AC000BDB246909490125356404F11C0002F0A7
:1016BC00A6FD002801DBE564002070BD6FF004007E
:1016CC00FBE700BF111700000000AD0B50550000E8
:1016DC0001460C2309484B4370B5C418D4E90E5687
:1016EC0000224033A263184402F00DFF2DB13246A4
:1016FC002B460348BDE87040184770BDC803002056
:10170C001852000010B1012804D07047034B1B6C19
:10171C005B0701D1FFF7DCBF704700BFC803002097
:10172C0008B54FF02003EFF3118183F31288BFF358
:10173C006F8F124A136843F0020013F0010310601C
:10174C000CD04FF08042D2F80C34D2F80C2413F0A9
:10175C00010303D00A4802F0D6FE012381F311885D
:10176C00BFF36F8F23B1BDE808400020FFF7B0BF77
:10177C00BDE80840012001F05BB800BF1804002050
:10178C00080400201FB500220123CDE90223094AD9
:10179C00CDF800D06B46CDF804D002F024FF002821
:1017AC0005DB4FF480420023684601F089FE05B04A
:1017BC005DF804FB1946000010B5074C23782BB9D3
:1017CC004FF4A57003F0D7FC01232370BDE8104043
:1017DC00002001F02DB800BF5D050020094BBFF3C0
:1017EC005B8F53E8002F22F0020143E80010002821
:1017FC00F7D1BFF35B8FD30702D4012001F060B89F
:10180C00704700BF180400202DE9F0413949BFF39F
:10181C005B8F0746012251E8003F41E80020002879
:10182C00F9D1BFF35B8F33B9334934484B60CB608C
:10183C008A6002F0F7FC7B1E012B2FD8012F07D1F9
:10184C004FF08043D3F81C3403F00303012B25D055
:10185C0003F03FFB044618B9294B1B78002B41D1F0
:10186C004FF02003EFF3118683F31288BFF36F8FD1
:10187C000124DFF890804FF08045D5F81834D5F866
:10188C001824D2030CD503F00303012B01D0012F34
:10189C0006D10CB386F31188BFF36F8FBDE8F081CE
:1018AC00ACB13046FFF73AFBD5F81835002BE4D134
:1018BC00D5F80421002AE0D0C5F80431D5F804315C
:1018CC000123C5F81835C8F88031AB60D5E7002185
:1018DC00212002F0F9F9E7E74FF080430222C3F828
:1018EC000423DBE74FF080430222C3F808230646AB
:1018FC00BFE700BF1C040020B8030020E403002055
:10190C007F05002000E100E008B5084B084818608E
:10191C0003F0AEFA38B10748FFF728FE0548FEF78A
:10192C00A7FD002008BD6FF01200FBE7200400208B
:10193C0030520000451900000A2838B5074D0446FE
:10194C0004D1286883680D215B68984728688368F0
:10195C00E1B25B689847204638BD00BF20040020E8
:10196C0008B5094B1A786AB90121197006200521AE
:10197C00FFF7FCFA0620FFF7DBFA044B4FF00042AE
:10198C00C3F80423002008BD5E0500200060004061
:10199C00F7B5174642680669127A01F01F04B7F5CD
:1019AC00A03F0D4644EA42140CD104F01F0202F58C
:1019BC00E0724FF0A04151F82220D00707D56FF00C
:1019CC0085009AE0B7F5005FF16800F09880F26846
:1019DC000121A94011437269F1600121A940B7F5B9
:1019EC00A03F0CBF0A438A437261B269B3F5C02FA2
:1019FC000CBF0A438A43B2613269B3F5802F0CBF26
:101A0C00114322EA01014A4A3161D2F80433002021
:101A1C00DBB200F5A27152F82110C1F304218C4203
:101A2C0072D123FA00F1C9076ED5830003F180430C
:101A3C0003F5C043D3F8101521F00101C3F81015BC
:101A4C0001238340C2F80833C0B200F0A9FF20463E
:101A5C00002102F0DEFDF068E84010F001004CD0EF
:101A6C007069E84010F0010255D0B369EB40DB0718
:101A7C005FBF316921FA05F505F00105C5F10205D5
:101A8C000DF1070054BFEDB2032500F0A9FF294B5F
:101A9C0098423DD19DF80720930003F1804303F554
:101AAC00C0432402D3F8101521F4473121F44071BE
:101ABC00C3F81015D3F8101504F4F8540C4344EA89
:101ACC000545C3F81055930003F1804303F5C24359
:101ADC00002018609DF807101B688B0003F18043F1
:101AEC0003F5C043D3F8102542F00102C3F81025CA
:101AFC000F4A01238B40C2F8043303B0F0BD01221E
:101B0C00AA4021EA020166E70130082881D19EE74C
:101B1C006FF01200F1E73169E94001F00101C1F108
:101B2C0003012046C9B202F074FD1046E5E700BF80
:101B3C00006000400000AD0B2A4B70B546682A4887
:101B4C00134083423ED00DD8062B15D005D89BB13F
:101B5C00022B39D06FF0150033E0B3F5801FF9D1AB
:101B6C00012309E02148834230D0B3F5A00F2FD0D8
:101B7C00B3F5800FEED10223D00654BFC2F340154B
:101B8C00032582F4807412F4007FC2F34020C4F366
:101B9C00002407D012F4006F76681BD001228A4013
:101BAC00C6F8082540EA440201F01F0142EA03236B
:101BBC0001F5E0714FF0A04243EA850342F8213071
:101BCC00002070BD0723D7E70423D5E70523D3E70F
:101BDC000323D1E7520542BF01228A40C6F80C25E7
:101BEC00E0E700BF0600F000060010000200400015
:101BFC002DE9F843414BD3F87C51002D59D0404B83
:101C0C004FF0A049D3E90521DF68D9F810451B69CD
:101C1C000A4327EA02075C4027EA04043A460126F5
:101C2C004FF0000882BB354BC3F87C21D3F87C31D4
:101C3C00344A3248002301261F46D0F8041306FA12
:101C4C0003FC1CEA010F0CD0116851B103F5A27111
:101C5C0050F821101760C1F3042106FA01F10C436E
:101C6C0011680133082B02F10402E6D11CBB4DB103
:101C7C00234ED6E90531F2680B4322EA0302012414
:101C8C0000254ABBBDE8F88316420ED03E4208F050
:101C9C001F0008BF00F5E0734FF0000108BF59F8B2
:101CAC00233002F0B6FC22EA060208F101087600A5
:101CBC00B8E72C46BCE7124B59680029D7D00E6800
:101CCC00114F8A68224002D04B6838469847002E44
:101CDC00CDD031463668F4E714420CD03169E94076
:101CEC0001F00101C1F10301C9B205F01F0002F0BE
:101CFC0090FC22EA040201356400C2E70060004057
:101D0C0024040020006100406052000008B54368C4
:101D1C00D3E9020101F090F9034B984214BF6FF024
:101D2C000F00002008BD00BF0000AD0B10B504462D
:101D3C00002201210320FFF719F960682369064A84
:101D4C0000F1080100F076FF044B984214BF6FF0CD
:101D5C000F00002010BD00BF6D1D00000000AD0B7A
:101D6C000378012B08D0022B08D04BB9054B0B6222
:101D7C0001F1100001F084BB034BF8E7034BF6E7CD
:101D8C00034BF4E70000AD0B0100AE0B0200AE0BF1
:101D9C000100AD0B10B50446002201210420FFF711
:101DAC00E5F860682369064A00F1080100F042FF7B
:101DBC00044B984214BF6FF00F00002010BD00BF01
:101DCC006D1D00000000AD0B2DE9F04F4668076952
:101DDC0089B01D460C46338BD7F828900093934658
:101DEC000021142203A802F05BFB8DF80D504FF07C
:101DFC00FF324FF0FF33384601F062FB07F1100A57
:101E0C0000220023504601F05BFB304600F058FFE7
:101E1C004FF000084546D84501D3002449E0217A0B
:101E2C000A0700F18F8008F10108D84562680AD2D0
:101E3C008B0708D4237D81EA030000F0010003F036
:101E4C000403034316D0BDB10023DDF800C0A8186D
:101E5C0060457AD8C80706D42168019309EB0500C0
:101E6C0002F013FB019B62681544ADB2002B37D016
:101E7C000C34D0E70123E8E7C90724D5236806937F
:101E8C00636804930025237A03F0010213F0020F18
:101E9C008DF80C2003A90CBF20220022304600F044
:101EAC003DFF2E4B984221D00B33984253D06FF00C
:101EBC000404304600F014FF384601F0E1FA2046E5
:101ECC0009B0BDE8F08F216801F06043B3F1005F09
:101EDC00D4D0738B93423BD3484602F0D6FAA588F4
:101EEC00002DCBD0CDF818900495CCE74FF4804260
:101EFC000023504601F0E4FA38B1304600F0F0FE11
:101F0C00D6E9020101F098F8D1E73B6A134A9342F3
:101F1C00CDD1237ADB0701D40025A9E7069B99458F
:101F2C00FAD1234608E0A91AD86801938DB219FAA0
:101F3C0081F102F0AAFA019B5A689542A3F10C03B5
:101F4C00F1D2E9E76FF08504B3E76FF01B04B0E75B
:101F5C006FF01504ADE76FF00F04AAE70000AD0BAE
:101F6C0038B5056908490446284640F8044B02F088
:101F7C0046F9064905F1200002F0EEFF606802F018
:101F8C000CFE00EAE07038BD94560000114C0000C5
:101F9C002DE9F0471C1E05460F46904610DB7AB122
:101FAC004FEA5249D6030023144A30464946FEF7FD
:101FBC008FF810B1124B1B7843B9404603F0DBF895
:101FCC002146281D3B46BDE8F04718470D480B4AF3
:101FDC002F6530184FF0030349F1000185F8543098
:101FEC000023FEF775F802460B4605F1200001F0C0
:101FFC00D7FB041EE4DBBDE8F08700BF40420F00B6
:10200C007F0500203F420F0070B54B79012B24D186
:10201C008B79032B21D1CC792CB1012C1DD14368A8
:10202C005B689B0719D00A7912B1022A15D10E22CE
:10203C000B684568B3F5164F2D6862D02BD8B3F5F5
:10204C00165F61D014D8B3F5966F5FD008D8B3F58E
:10205C00967F5ED0B3F5167F5ED06FF085004FE0B3
:10206C00B3F5166F5BD0B3F5965FF6D1364B3CE00B
:10207C00B3F5E14F56D007D8B3F5615F54D0B3F543
:10208C00964FEAD1314B30E047F61226B342E4D1F9
:10209C004FF4000329E0B3F5613F47D013D8B3F5F3
:1020AC00963F46D009D84DF6C026B34243D0B3F57F
:1020BC00614FD2D14FF46B0317E0B3F5E13FCCD1B4
:1020CC004FF0EB7311E0B3F5612F37D008D8204EE9
:1020DC00B34236D0B3F5E12FBFD14FF0E86304E043
:1020EC001C4EB342B9D14FF08053C5F82435036967
:1020FC0003C922430433C5F86C2583E80300002090
:10210C0070BD4FF41D03F0E7134BEEE74FF49E2325
:10211C00EBE74FF4A033E8E74FF41C33E5E74FF45B
:10212C001D23E2E70D4BE0E70D4BDEE74FF06C7340
:10213C00DBE70C4BD9E74FF46503D6E74FF0706340
:10214C00D3E74FF08063D0E700B0130000A04E003F
:10215C0090D0030040420F000050270000C07500D3
:10216C0000F03A0000903A01F8B5066905460F46B2
:10217C0002F0AFFE10B92C4B1B7883B94FF0200343
:10218C00EFF3118483F31288BFF36F8F686802F04A
:10219C00D7FD28BB84F31188BFF36F8FEEE764245F
:1021AC00686802F0CDFD70B9012002F024FE013CFC
:1021BC00F6D10021212001F087FDF0E784F311888E
:1021CC00BFF36F8FF5E74FF02003EFF3118483F328
:1021DC001288BFF36F8F686802F0B2FD0028EDD053
:1021EC0006F8107F69680B680122C3F84465C3F8D0
:1021FC0048250022C3F82021D3F82001C3F8582128
:10220C00D3F858214A68D20641BF0822C3F80025EA
:10221C004FF48002C3F8042301229A6084F31188DE
:10222C00BFF36F8FF8BD00BF7F050020F8B500220B
:10223C00074601210220FEF799FE0220FEF778FEE8
:10224C007D683E692C68D5F808C00023C4F80035B9
:10225C004FF0A0410CF01F0301229A4003F5E073EC
:10226C003760C1F80825032241F82320EA68501C86
:10227C0007D0287E02F01F0303F5E073800041F8BD
:10228C002300C4F80CC5C4F814252A69531C09D0C2
:10229C00697E02F01F0303F5E0734FF0A040890044
:1022AC0040F823106969481C0CD001F01F034FF053
:1022BC00A04C0120984003F5E073CCF808050320EE
:1022CC004CF82300C4F808153846C4F81025311D05
:1022DC00FFF79AFE0746002845D16B68190719D5F8
:1022EC0006F1120000F0B4FB214B98423DD1B07CBA
:1022FC00C30003F1804303F5F83304F10C0204F539
:10230C009071C3F81015C3F814251A4A01238340A1
:10231C00C2F804350823C4F80035EB6801330CD03F
:10232C000023C4F81031D4F8103106F11103C4F8AD
:10233C0034350123C4F8383523606B681A075CBF49
:10234C004FF48072C4F80423DB0644BF4FF48003BF
:10235C00C4F8043310360023C4F84465C4F8483577
:10236C000123A360E3603846F8BD6FF00407FAE779
:10237C000000AD0B00F00140044A1368C81A20F0AD
:10238C007F400344136001F003BE00BF54040020DF
:10239C002DE9F843860006F1804600F1500406F55D
:1023AC008836A400A4B204F180444FF48037D6F8E8
:1023BC004035DFF86C8021F07F4504F58834874088
:1023CC00D8F80495A3EB090323F07F4329F07F424F
:1023DC00012BC6F8402502D1132002F0CCFE09F1E6
:1023EC000202AB1A23F07F43B3F5000F88BF1546EA
:1023FC00002323602368C8F8447325F07F43C6F894
:10240C004035D8F80435994506D0EB1A023B23F039
:10241C007F43B3F5000F01D8BDE8F8832B46CFE717
:10242C000010014070B5154D154C00262B6800208E
:10243C0006B170BDD4F80423D203FAD5D4F84021E8
:10244C00002AF6D0C4F84061D4F840214FF4803211
:10245C00C4F84823D4F84015D4F80465721A22F055
:10246C007F42B2F5000F88BF314601261BB16A6866
:10247C0028609847DAE72B60DBE700BF48040020B0
:10248C000010014038B50F4C00254FF48033C4F8D0
:10249C000855C4F804330C4B4FF40032C3F88021B8
:1024AC0001212A461120FEF761FD1120FEF740FDA7
:1024BC000123064AA360022023601360FFF7A4F9EE
:1024CC00284638BD0010014000E100E05004002017
:1024DC00134AB0F1FF3F14BF03461346013B002BD8
:1024EC001CDD9342A8BF13460E4AD2F804050E4ACF
:1024FC001168401A10F4000F20F07F4218BF00231F
:10250C0001321344094A0A48106000205060044A02
:10251C00934294BFC9188918FFF73ABF0023E3E729
:10252C00FFFF7F00001001405404002048040020ED
:10253C0085230000044BD3F80405044B1B68C01A18
:10254C0020F07F40704700BF001001405404002071
:10255C004FF0704393F8E02F062A09D1D3F8E83FE7
:10256C00C3F30313033B042B02D8024AD05C70471D
:10257C00002070479B570000024AD2F80034002B11
:10258C00FBD0704700E0014010B502F025FC40B1D3
:10259C004FF08053904AD3F82433C3F30423C2F88A
:1025AC004035FFF7D5FF10B18C4B8D4A5A6702F0BE
:1025BC0013FC48B14FF080534FF08042D3F84432B3
:1025CC00C3F34233C2F83C35FFF7C2FF30B1854A42
:1025DC00D2F8FC3023F08073C2F8FC3002F0FCFB24
:1025EC0040B14FF080430022C3F80C21C3F81021F6
:1025FC00C3F83825FFF7ACFF20B14FF0804303221E
:10260C00C3F8A025FFF7A4FF60B1774B0522C3F8F0
:10261C0010260122C3F888260022C3F818263F2270
:10262C00C3F814264FF08053D3F83021511C09BF46
:10263C004FF07043D3F8343193F8E02FD3F8E83FE0
:10264C0008BFC3F30313062A4DD1033B042B03D855
:10265C00664AD35C002B46D04FF08052644BD2F8C4
:10266C000414C3F82015D2F80814C3F82415D2F8B2
:10267C000C14C3F82815D2F81014C3F82C15D2F882
:10268C001414C3F83015D2F81814C3F83415D2F852
:10269C001C14C3F84015D2F82014C3F84415D2F812
:1026AC002414C3F84815D2F82814C3F84C15D2F8E2
:1026BC002C14C3F85015D2F83014C3F85415D2F8B2
:1026CC003414C3F86015D2F83814C3F86415D2F872
:1026DC003C14C3F86815D2F84014C3F86C15D2F842
:1026EC004424C3F8702502F077FB48B14FF08053B7
:1026FC004FF08042D3F8583203F04F03C2F8E43E57
:10270C0002F06AFB48B14FF08043D3F80024D207A3
:10271C0044BF6FF00102C3F800244FF08053D3F88C
:10272C003021062A26D1D3F83431033B042B02D8AE
:10273C00304AD35C63B1304AD2F83C3743F48063FF
:10274C00C2F83C374FF08053D3F83031062B11D1FF
:10275C004FF08053D3F83431033B042B02D8274A73
:10276C00D35C3BB14FF01023D3F808224FF08043D9
:10277C00C3F858254FF01023D3F80022002A03DBAE
:10278C00D3F80432002B22DA1D4901234FF010201C
:10279C00C1F804351524FFF7EFFEC0F80042FFF72F
:1027AC00EBFEC0F80442FFF7E7FE0023C1F8043546
:1027BC00FFF7E2FEBFF34F8F0A49124BCA6802F4CF
:1027CC00E0621343CB60BFF34F8F00BFFDE70E4BAE
:1027DC000E4A1A6010BD00BF0030014000C0074017
:1027EC000DF0ADBA00ED00E0005000408C57000039
:1027FC0000C00040915700000010004096570000A8
:10280C0000E001400400FA05A80000200090D0036D
:10281C00044B1A7922B9012218609A800248704739
:10282C0002487047580400200000AD0B0C00AD0BA3
:10283C0030B510B1012834D030BD4FF08043D3F8FF
:10284C001824D3F81814C90329D502F00302012A5D
:10285C0025D1C3F818254FF080430022C3F804217A
:10286C00D3F804210222C3F80423134AD2F8FC0043
:10287C0040F08073C2F8FC30104B1C6844F001012E
:10288C0019605D685968491BB1F50A5FFAD31C6081
:10289C004FF08043C2F8FC0001229A60CCE7002282
:1028AC00D7E74FF080430022C3F80021D3F8002172
:1028BC00C3F804031860BFE700ED00E0001000E06F
:1028CC0038B510B1012817D038BD4FF08044022321
:1028DC00C4F80833C4F80401D4F804310123E360CC
:1028EC0042F21075D4F81834DB03EDD5012002F058
:1028FC0082FA013DF6D1E7E74FF080440023C4F89B
:10290C000803C4F80031D4F80031606042F210754D
:10291C00D4F80C34D4F80C24D20303F0010305D5FD
:10292C0023B1012002F067FA013DF1D1014B0022E5
:10293C005A71C9E7580400204FF0804310B5D3F802
:10294C0000216AB10022C3F80021D3F80021012232
:10295C00C3F80823114B587910B95A711B68984762
:10296C004FF08043D3F8042172B10022C3F8042144
:10297C00D3F80421D3F81824D3F81814920704D1EF
:10298C000122C3F818259A6010BD0222C3F808234F
:10299C00024BBDE810401B6801201847580400206A
:1029AC00012303FA00F0C3B293B14FF02003EFF30D
:1029BC00118183F31288BFF36F8F064AD36C23EA1D
:1029CC000000D06481F31188BFF36F8F0248704709
:1029DC0002487047600400200000AD0B0400AD0BF2
:1029EC002DE9F0410546DFF85CE01748DFF85C8024
:1029FC000024FF220126E3B24FF02001EFF3118CEB
:102A0C0081F31288BFF36F8F22FA03F1C9070AD53D
:102A1C00DEF84C1006FA03F7394201BF3943CEF801
:102A2C004C1040462B708CF31188BFF36F8F4045D0
:102A3C0005D006FA03F39A4304F10104DBD1BDE897
:102A4C00F08100BF600400200200AD0B0000AD0B54
:102A5C002DE9F041144A154E154F05461548002432
:102A6C004FF0010E5FFA84FC4FF02003EFF3118856
:102A7C0083F31288BFF36F8F0EFA0CF3134207D057
:102A8C0031680B4201BF1943316085F800C03846EC
:102A9C0088F31188BFF36F8FB84203D09A4304F1C7
:102AAC000104DFD1BDE8F081FFFF0F00B00400206E
:102ABC000000AD0B0200AD0BF0B5D0F8243187B09F
:102ACC0004460D46F3B10023C0F82431D0F824316C
:102ADC00D0F80431B3B98B68C0F8083302238B608B
:102AEC008B68C0F80433D0F860311BB1D0F80032D9
:102AFC009F0502D4012323626361012385F82E30E4
:102B0C0007B0F0BDD4F80431002B44D00023C4F836
:102B1C000431D4F804312B6A5E060AD495F82E30B1
:102B2C003BB92946204602F072F980F0010085F885
:102B3C002E002B6A13F0040C3ED105F10C070FCFBD
:102B4C0001AE0FC695F830E03B68C4F860C1336045
:102B5C00D4F86031C4F85CC1D4F85C31BEF1000F1C
:102B6C0002D095F82E303BB30023C4F80032AB6092
:102B7C002E4BC4F8083344F30733002B4FEA1432BE
:102B8C001ADB02F01F015B0901228A4060332849DD
:102B9C0041F8232010E0C4F84831D4F848312B7B9D
:102BAC0023BB05F10C070FCF01AE0FC63B6833609A
:102BBC0095F83030002BD8D0D4F8C434C4F8C434D1
:102BCC00980725D501238DF8003095F830300BB9D6
:102BDC0085F82F302B6A5B0703D595F82E30002B28
:102BEC008ED0D5E900316846984789E74FF40073D9
:102BFC00C4F8003240F20223AB6003F1CE73C4F888
:102C0C000833AB68C4F804330123A360236277E76D
:102C1C00590701D50223D6E7DA0701D50323D2E7FA
:102C2C0095F82E30002BCED00423CCE702029C0169
:102C3C0000E100E02DE9F04190F804801D4D3427AF
:102C4C0007FB08F7EC1994F82D608EBBA66084F88E
:102C5C00306084F82F600E6863604B7B84F83230F0
:102C6C0006F01F03EA5103F5E0734FF0A04740F262
:102C7C000C6C006847F823C04C6804F01F0303F584
:102C8C00E07347F823C08B68C0F80865C0F80C45A2
:102C9C00C0F824351AB140F30730FEF749F9342354
:102CAC0003FB08550448012385F82D30BDE8F0815D
:102CBC000248FBE7B40400200000AD0B0500AD0B8F
:102CCC00036802790621C3F80015044B342101FB7B
:102CDC000233022283F82D20704700BFB404002079
:102CEC0001790C4B0268342000FB013300210A48A7
:102CFC009960C2F80803D2F8000220F4BC50C2F864
:102D0C000002C2F80015012283F82D2083F82F1041
:102D1C00704700BFB404002002029C012DE9F0476B
:102D2C00DFF8D0C290F804E00468342303FB0EC330
:102D3C001746002283F82E204B680D464BB1CB680A
:102D4C0003F06043B3F1005F03D0AB4E3046BDE8F7
:102D5C00F0873426A94BC4F8083306FB0EC696F848
:102D6C002F3003F0FF0A23B1B368C4F80433A44E28
:102D7C00ECE717F0140F0CBF0123002386F82F305B
:102D8C00A946B9E80F0006F10C08A8E80F00D9F81D
:102D9C000030C8F80030C7F3001386F830303762C3
:102DAC006B78C4F88835C4F804A1D4F80431C4F89D
:102DBC0024A1D4F82431C4F860A1D4F86031C4F84B
:102DCC0048A1D4F8483117F0010318BF0123C4F807
:102DDC00503517F0020318BF0123C4F840352A7888
:102DEC00032A00F2B580DFE802F084A069022B69A7
:102DFC0003F06041B1F1005FA7D14FF48071C4F8CA
:102E0C000012E8686968C4F84405C4F84815002144
:102E1C00C4F85011D4F8500101202062A060D4F8FD
:102E2C0050010028FBD0C4F85011D4F85011A968F7
:102E3C00C4F84435342303FB0EC3C4F848154FF4CF
:102E4C008021996008236F4E390706D4032A04D0D9
:102E5C000122E2506B6803B96261342303FB0EF369
:102E6C000CEB03015CF80320002A74D10121D4F887
:102E7C004831D4F80401002840F08880003B18BF8A
:102E8C000123D4F82401002800F08680C4F8242102
:102E9C00D4F82401D4F86051D4F8000215B110F420
:102EAC00007F04D121626161002DE0D00023C005B8
:102EBC0072D5C4F84821D4F84831D8E76B68E96872
:102ECC00C4F84415C4F848352B6903F06041B1F1DE
:102EDC00005F7FF43AAFA968C4F834354FF48453DB
:102EEC00C4F83815C4F80032342303FB0EC3022196
:102EFC0012E06B68E968C4F8441517F0200FC4F8A9
:102F0C0048354FF034030BD04FF48071C4F80012E5
:102F1C0003FB0EC34FF4802199600123236291E7D8
:102F2C004FF40071C4F80012DFE76B68E968C4F86D
:102F3C003415C4F838354FF48053C4F800323423B8
:102F4C0003FB0EC3022199600123236200237AE75D
:102F5C002D4E082378E77A0744BF00238B607B064D
:102F6C0006D4342303FB0EC39A6842F002029A6023
:102F7C00342303FB0ECCDCF8083043F40073CCF89C
:102F8C000830DCF80830C4F80433DFE6C4F8042158
:102F9C00D4F80431012374E7002B3FF468AF3421DB
:102FAC00D4F8C434C4F8C43401FB0EC2002082F837
:102FBC002F008BB1154A164E13F0010F18BF164691
:102FCC0013F0020F02F1010218BF164613F0040FA2
:102FDC00104B18BF1E46B9E67B063FF5B7AE0EFB8D
:102FEC0001C1204601F013FF094B002808BF1E4603
:102FFC00ACE600BFB40400200A00AD0B02029C0139
:10300C000B00AD0B0000AD0B0400AD0B0000AE0BC4
:10301C000100AD0B0200AE0B01490248FFF74CBD9D
:10302C00B40400200030004002494FF04020FFF76C
:10303C0043BD00BFE80400202DE9F04100F01F0063
:10304C0001F01F0601244FF0A04504FA00F806F524
:10305C00E07200F5E07040F20D63B440C5F80885ED
:10306C00C5F8084545F8203045F82230042001F019
:10307C00C2FE0927D5F810351C420DD10420C5F825
:10308C000C8501F0B8FE013FC5F80885042001F05D
:10309C00B2FE17F0FF07EDD14FF0A0450420C5F8A4
:1030AC000C4501F0A8FEC5F80845042001F0A3FE6C
:1030BC00D5F81015034821FA06F606F00106801B18
:1030CC00BDE8F0810100AD0B0E4B70B553F82040FC
:1030DC00013053F82060A64200D870BDD4E9003509
:1030EC002846984765B1EB6830B10028B8BF40421C
:1030FC00FF28A8BFFF2018705A7842F001025A70BE
:10310C000834E8E7D056000070B5054610B9002425
:10311C00204670BD0378002BF9D00E4C0E4EB442F5
:10312C0008D10C4CB442F2D0204601F0A1FE50B9AB
:10313C001834F7E7204601F09BFE10B12368AB4230
:10314C00E6D01834EBE72168284601F092F9002804
:10315C00EED1DDE7185200005053000030B50023CB
:10316C0087B00122CDE904230F22CDE9023201936D
:10317C000C4C0D4B0D49182204EBC01402FB003310
:10318C004FF4B075009305FB0011094B4FF4A0727E
:10319C00204600F0A5F8637B23F00403637307B0AB
:1031AC0030BD00BFF00100201C050020A00900204C
:1031BC006134000008B50A4B012202201A70FFF797
:1031CC0083FF00F059FF0320FFF77EFF00F0E6F8C5
:1031DC00FDF7ECF8034A137B23F00103137308BDCE
:1031EC007F050020700200200248034A0021121AB9
:1031FC0001F056B9E80000208005002080B5DFF80A
:10320C00C080A6B088F308882E4D2F4E6B69DFF86E
:10321C00BC9043F4007300246B61E02385F82230EA
:10322C00EC772C766C76AC7685F820406B6A43F4A0
:10323C00E0236B6285F82340FEF78AF8FDF75AFE0F
:10324C004FF0FF33AB62EB62FEF760F9FEF7C8F8A4
:10325C0040F20113ADF8243006ABB360CDE91F4446
:10326C0001F005FE2046FFF72FFF0120184DFFF758
:10327C002BFF00F095FC174B059301231649009486
:10328C00CDE903434FF480624B46CDE90144284617
:10329C00F56100F025F86A7B074622F00402284607
:1032AC006A7301F093FE2046FFF758FF0B4BF36057
:1032BC004A46394628463475C6F80480FDF71CFF8B
:1032CC002013002000ED00E01C050020C13100009F
:1032DC0070020020A057000080050020F0010020A3
:1032EC002DE9FF410E9E0673042646730D9E8673D0
:1032FC0000F158050F46D61DC0E916550C9A00254D
:10330C0026F007062037C0E90655C0E91976856016
:10331C00C573C56606F1200802920B9A0192884487
:10332C000A9A009242460446FDF7B4FE044B6565CA
:10333C009B6803B11B6F2367404604B0BDE8F08166
:10334C001C050020F0B587B000270597109F049747
:10335C000F9F03970E9F0297DDE912650D9F019752
:10336C000C9F00970446FFF7BBFFB5F1FF3F08BF6A
:10337C00B6F1FF3F05D055EA060305D1204600F013
:10338C0051FB204607B0F0BD034932462B4604F1F1
:10339C00180000F083FDF4E7F94F00002DE9F0432D
:1033AC00294C2A4D87B02646AE4204F130040FD387
:1033BC0000F054FA244CDFF898904FF4004640F299
:1033CC00E737AC4220D307B0BDE8F04300F0CCBBEC
:1033DC0054F8043C059354F8103C049354F8143CF2
:1033EC00039354F8183C029354F81C3C019354F882
:1033FC00203C009354E90C0154E90A23FFF770FFB9
:10340C0054F8303C5E65CEE7636A5A1C0DD023EA53
:10341C00E37300213846C3FB060151EAC333D4F8E9
:10342C00008004D1404600F0FDFA3034C9E74FF477
:10343C007A720023FCF74CFE02460B4608F118008A
:10344C00494600F02BFDF0E7E8000020E8000020E2
:10345C00F94F000008B5094C4FF02002EFF311832F
:10346C0082F31288BFF36F8F01F057FEA061FDF756
:10347C00FDFC0028F0D1FDF743FDEDE71C05002015
:10348C0038B504464FF02003EFF3118583F312880F
:10349C00BFF36F8F01F0F6FD48B10022826701F097
:1034AC0095FD29460548BDE8384000F0C5B9D4E97A
:1034BC0002329A4218BF0133A360F2E78005002064
:1034CC0013B54FF02004EFF3118184F31288BFF38E
:1034DC006F8F846844B1013C846081F31188BFF321
:1034EC006F8F002002B010BD52EA030406D181F3A5
:1034FC001188BFF36F8F6FF00F00F3E7CDE9002356
:10350C000246024800F0EAFAECE700BF8005002012
:10351C002DE9F04F474E85B004464FF0FF384FF081
:10352C00FF394FF02003EFF3118783F31288BFF3B9
:10353C006F8FD4F880508DB9022104F1980001F0FE
:10354C00DAFC002835D10023CDE90089029304F17F
:10355C0088023946384800F029FCE2E7D4F8842088
:10356C002B68C4F88030954201D1C4F88430D4F86B
:10357C00983043F00203C4F89830EB6823F004034E
:10358C0043F00103EB606B6887F31188BFF36F8F17
:10359C00284698474FF02003EFF3118B83F31288E2
:1035AC00BFF36F8FEB68990723F001020BD4EA602D
:1035BC000EE004F1900500220121284601F07AFD6D
:1035CC000028F8D1BFE7306823F00303EB6070B933
:1035DC00D4F8983023F00203C4F898308BF3118898
:1035EC00BFF36F8FD8059CD400F0E6FA99E700275B
:1035FC00D0F800A03B464268954201460CD10168C8
:10360C0097B972683160824200D1716040F8083B12
:10361C00FFF736FF39460023BAF1000FD8D05046D9
:10362C000F46DAF800A0E6E772683960904208BFEE
:10363C007760EBE74405002080050020F8B5C368EF
:10364C009A0704460E46C3F340051FD45F071FD4E8
:10365C000A680AB982680A60D80744BFA368336055
:10366C0037684CBF022501257FB31B4B9B68BB42BF
:10367C0011D101F02EFC80F00100C0B2D7F89830C7
:10368C00D907C3F3800223D53AB140B96FF00F05C7
:10369C000023336013E00020F0E71B07F6D400236F
:1036AC002360D7F8843063B9C7E92044384601F069
:1036BC002DFCE36843F00403E3603368A360284601
:1036CC00F8BD1C60C7F88440F0E76FF01505DFE724
:1036DC006FF01205DCE700BF1C050020F0B589B0C7
:1036EC0004460020C4E920000E9D04F18800C4E9C2
:1036FC00220004F19000C4E924001DB328790028AD
:10370C0040F2011008BF0120C4F8980000204FF0CF
:10371C00FF364FF0FF37CDE90330CDE90100CDE99D
:10372C000667094B00942046FFF70CFE25B129686B
:10373C0011B1204601F0D3FB204609B0BDE8F040A2
:10374C0001F0D0BB0120DFE71D35000013B501905F
:10375C0008464FF02001EFF3118481F31288BFF378
:10376C006F8FC16811F00E0F16D153EA020C08D1FD
:10377C0001A9FFF763FF84F31188BFF36F8F02B0C9
:10378C0010BD41F00801C1600199816210300349FC
:10379C0000F084FB0120EEE70020ECE7274F00004F
:1037AC0001460148FFF7D2BFF802002010B5084CC3
:1037BC0023685BB1FEF7BEFE03462068054A03444E
:1037CC00BDE810401361002101F0B7BC10BD00BF73
:1037DC00540500201C050020F8B504460D464FF09A
:1037EC002003EFF3118683F31288BFF36F8F0F4B17
:1037FC0000214FF4004740F2E73019614FF47A7220
:10380C000023E4FB0701FCF763FC002C084B09DCEC
:10381C001860084B1D60FFF7C9FF86F31188BFF3D2
:10382C006F8FF8BD0228B8BF0220F1E71C050020FD
:10383C00540500205005002049B9EFF3058030B93C
:10384C00054BDA699B689A4201D0FDF7CFBB81F337
:10385C001188BFF36F8F70471C0500204FF02003B9
:10386C00EFF3118183F31288BFF36F8F044B9A68C7
:10387C00D37B013BD37381F31188BFF36F8F7047F8
:10388C001C05002038B502460C480D4D01F098FB84
:10389C00044600B9EC68AB684AB95A7BD20606D12B
:1038AC00A26922B9DA897F2A01D9EB6138BD9C4221
:1038BC0001D0FFF77BFFEC61F8E700BF3C0500206F
:1038CC001C05002070B590F90D20437B002A0146A1
:1038DC0004DA03F07F03437301F04AFB4B7B154A78
:1038EC0063F07F034B73D2E9083402F12005AB423D
:1038FC001BD0D3B191F90E6093F90E0086420FD014
:10390C00801B00280CDD5868C1E90030016059604B
:10391C009068431A5842BDE870405841FFF7B2BF57
:10392C00A34202D01B68002BE6D1C1E900542160F0
:10393C005162EDE71C05002038B501464FF020031D
:10394C00EFF3118483F31288BFF36F8F154B164A74
:10395C0098681568A84206D1FFF728FF84F31188F0
:10396C00BFF36F8F38BD00251560104A1268BAB1CD
:10397C00C2897F2A14D8427BD20611D10C4A90F905
:10398C000E50126895420BDB0A4A904208D01A6915
:10399C008A4202DCFFF796FFDEE7521A1A61DDE776
:1039AC000022FBE71C0500204C05002054050020DC
:1039BC0050050020F001002070B490F90D20437BDD
:1039CC00002A2ADBDA0628D1826932BB144A63F05A
:1039DC007F034373D2E9083402F12005AB4217D0C0
:1039EC00B3B190F90E6093F90E108E420BD0891B77
:1039FC00002908DD5A68C0E900321060586070BCBC
:103A0C000020FFF73FBFA34202D01B68002BEAD176
:103A1C00C0E9005420605062F1E770BC704700BFF1
:103A2C001C05002010B54FF02002EFF3118482F337
:103A3C001288BFF36F8F427B510704D484F3118833
:103A4C00BFF36F8F10BD22F004024273FFF7B4FF77
:103A5C0021460248BDE81040FFF7EEBE800500206D
:103A6C0008B590F90D20437B002A014604DA03F0D7
:103A7C007F03437301F07CFA044B9868431A584255
:103A8C005841BDE80840FFF7FDBE00BF1C050020F3
:103A9C002DE9F041064615461C464FF02003EFF386
:103AAC00118783F31288BFF36F8F01F0C1FA87F38C
:103ABC001188BFF36F8FB4F1FF3F08BFB5F1FF3F23
:103ACC0008D02A46234606F118000349BDE8F04108
:103ADC0000F0E4B9BDE8F081F94F000010B5074BD8
:103AEC009868074B0C4618601146DDE90223FFF776
:103AFC00CFFF2046BDE81040FDF778BA1C0500202A
:103B0C004C05002070B50446183001F0F0FA4FF067
:103B1C002003EFF3118683F31288BFF36F8F94F9B0
:103B2C000D20637B002A05DA03F07F0363732046C4
:103B3C0001F01EFA0B4D637BA86843F0100363730E
:103B4C00031B58425841FFF79DFE86F31188BFF3C3
:103B5C006F8FAB68A34203D1BDE8704001F026BA69
:103B6C0070BD00BF1C05002010B54FF02003EFF313
:103B7C00118483F31288BFF36F8F084B9A68D37B41
:103B8C000133D3730020FFF77DFE84F31188BFF35C
:103B9C006F8FBDE8104001F009BA00BF1C05002072
:103BAC00044B002103F12002C3E908220846FFF769
:103BBC0013BE00BF1C050020F8B54FF02003EFF337
:103BCC00118583F31288BFF36F8F1A498868437B82
:103BDC0003F07F03437301F0CBF98B685A7B0846E3
:103BEC0062F07F025A7350F8202F82421CD0DAB157
:103BFC004F6A93F90E6092F90E40A6420FD0A41BA7
:103C0C00002C0CDD5168C3E900210B6053600120CE
:103C1C00FFF738FE2846BDE8F840FDF7E7B9BA4291
:103C2C0002D01268002AE6D14A6AC3E90002136086
:103C3C004B62ECE71C05002050EA01032DE9F04132
:103C4C0005460E4603D1FFF7B7FF002033E06FF0B7
:103C5C000104241A4FF0FF3363EB0103012C73F1C1
:103C6C00000302DA01F083FA44194FF02003EFF35A
:103C7C00118883F31288BFF36F8F104F104BB86805
:103C8C001860FFF7EDFEB8680E492A463346183027
:103C9C0000F004F9BA68537B43F0100353734046A9
:103CAC00FDF7A4F901F063FA201A63EB0303012872
:103CBC0073F10003C9DBBDE8F08100BF1C050020D7
:103CCC004C050020F94F0000B1F1FF3F08BFB0F1E7
:103CDC00FF3F08B506D1084B9868FFF713FF4FF06C
:103CEC00FF3008BDFFF7A8FF4FF47A7380FB030386
:103CFC00C00B40EA4340F4E71C050020014B9868D8
:103D0C00704700BF1C0500202DE9F04104464FF020
:103D1C002003EFF3118683F31288BFF36F8F437B7D
:103D2C001A0705D586F31188BFF36F8FBDE8F081B4
:103D3C0023F0200242F00801D20920D14173A3687C
:103D4C0013B1204601F01CF904F1180001F0CFF971
:103D5C0004F158074FF00008A56DBD4200D0B5B96D
:103D6C000120FFF78FFD104B9B68A342DAD1EFF3D4
:103D7C000583002BD6D13046FDF738F9D2E703F096
:103D8C005F0343F00803437301F0F2F8D7E72846CA
:103D9C0001F0F6F805F1180001F0A9F9C5F87880E2
:103DAC002846FFF709FED7E71C050020D3B5DDE94F
:103DBC000667089CCDE90067FFF790FE1CB1034B2A
:103DCC009B685B69236002B0D0BD00BF1C0500205E
:103DDC0008B50648064A0749121A00F056FBBDE81A
:103DEC000840054A0549064800F04FBB000000207A
:103DFC00E8000020F057000000000000F057000021
:103E0C0000000020034B1B680BB9FEF793BB00208E
:103E1C00704700BF58050020114B10B51C689C4220
:103E2C0008BF0024FFF7EEFF03466CB1D4E904028F
:103E3C00C01A62EBE373012873F100020DDBB0F1E1
:103E4C00004F73F1000301DB6FF00040054B1B6961
:103E5C0013B19842A8BF184610BD0020F6E700BF6A
:103E6C00AC0000201C05002030B5036868B10A4A7C
:103E7C005268904209D043B1D3E90421D0E90445FA
:103E8C00121941EB0501C3E90421426813605A6021
:103E9C000023C0E9003330BDAC000020B3F1FF3F7C
:103EAC0008BFB2F1FF3FF8B504461F46154667D070
:103EBC0081604FF02003EFF3118683F31288BFF378
:103ECC006F8F6FF00102531B4FF0FF3C6CEB07033D
:103EDC00002B1BDB2B4BD3E90013521A6CEB0303A7
:103EEC00551B63EB0703012D73F10002BCBF0125C9
:103EFC000023C0E904532448D0E9003C834218D184
:103F0C00C4E9000CCCF80040446026E0FFF77AFFCF
:103F1C00013547F100072D1847EBE077C4E904574A
:103F2C00E9E7521A65EB07059C45C4E90425E7D07F
:103F3C001B68002BE4D0D3E90417D4E904258A428A
:103F4C0075EB070EEDDA8A1A67EB0505C3E9042554
:103F5C005A68C4E9003214605C60036883420BD079
:103F6C009C4209D1FFF758FF18B1084B1B698342DB
:103F7C0002D00021FEF7ACFA86F31188BFF36F8FE5
:103F8C00F8BD00BFF0020020AC0000201C05002092
:103F9C002DE9F8430546FFF7CFFC4FF02003EFF374
:103FAC00118483F31288BFF36F8F244EDFF8908057
:103FBC003560244DD8F8000032684045D5E9001E24
:103FCC004FEAE2770BD050B1D0E9043C9A4277EB40
:103FDC000C0916DA9B1A6CEB070CC0E9043C52185E
:103FEC004EEB0707C5E9002700253560FFF714FFE6
:103FFC002946FEF76DFA84F31188BFF36F8FBDE885
:10400C00F88359184EEBE377D31A33600022002360
:10401C00C0E90423C5E90017FFF726FF84F31188D4
:10402C00BFF36F8F836898474FF02003EFF3118431
:10403C0083F31288BFF36F8FBCE700BF58050020D5
:10404C00AC000020F002002010B54FF02003EFF37D
:10405C00118483F31288BFF36F8FFEF76BFA054A56
:10406C00D2E90031C01841F1000184F31188BFF38B
:10407C006F8F10BDF0020020024A0349034800F084
:10408C0062B800BF20570000A5570000C0570000C1
:10409C001FB5094B029302AB002400930749084853
:1040AC008DF80C404FF0FF334FF48062FFF716FB96
:1040BC00204604B010BD00BFE757000020130020BD
:1040CC00F8020020704770B405698668012303FA72
:1040DC0001F42B6882F4406223432B6022F480525B
:1040EC00336870BC1847012303FA01F103691B689C
:1040FC00194218BF82F0010212B18368DB681847BD
:10410C0083681B69FBE7034658B1426802F003025F
:10411C00012A03D0032A04D1026812B1002098604E
:10412C0070476FF0150070474268816002F003021F
:10413C00032A4FF0000203460CBF006810465A6079
:10414C007047002070470FB407B504A951F8040B51
:10415C000191FCF793F903B05DF804EB04B07047E0
:10416C00038B13F0070305D10368002B0CBF002051
:10417C0003207047022B05D1438B002B14BF00206A
:10418C0004207047012B05D10368002B0CBF0020C5
:10419C0005207047002070472DE9F0410D46074679
:1041AC001946281D90461E46FFF7BEFF044638B13F
:1041BC003346424629463846A446BDE8F04160479E
:1041CC00BDE8F08110B44FF02004EFF3118284F3BA
:1041DC001288BFF36F8F416110BC0121FCF75CB9F1
:1041EC0010B50C4640B139B1081DFFF78CFF28B94A
:1041FC00A36833F0030301D06FF0150010BD38B580
:10420C000C46054658B151B10B6843B14B6833B1FC
:10421C001C22002100F044F92C61002038BD6FF005
:10422C001500FBE770B504460E46FFF7D9FF051ED7
:10423C0031DB4FF02003EFF3118183F31288BFF3CE
:10424C006F8F638B208B4FF6FF75AB4200F007022C
:10425C002ED0022A0ED1013363831546012381F33C
:10426C001188BFF36F8FB3B1002331462046FFF79F
:10427C0093FF10E0830701D0062A0ED10023336090
:10428C00636893B9C4E90066154662B90A462046CC
:10429C000221FCF701F9284670BD052A0CBF6FF00E
:1042AC0085056FF004050023D9E71E606660EBE717
:1042BC006FF00A05F7E710B54FF02003EFF311820A
:1042CC0083F31288BFF36F8F048B04F00704022C66
:1042DC000AD0012C0CBF6FF004006FF0850082F344
:1042EC001188BFF36F8F08E0438B013B9BB2438374
:1042FC0023B92146FCF7D0F8204610BD2046EEE746
:10430C004FF02002EFF3118382F31288BFF36F8F0B
:10431C0000680B60704738B50468002CBCBF0024E3
:10432C000460002B0D4611469DF810200CDA03603A
:10433C000122046885F31188BFF36F8F11B100203F
:10434C00FFF72AFF204638BD04681AB10134046017
:10435C000222EEE7013CFAE7044608B5084611468E
:10436C001A46A047FFF7CAFCFDF728F82DE9F84FCD
:10437C009A46D3786F2B80460F461546A3F1410B16
:10438C0029D024D8582B14BF0A261026DDF82890E3
:10439C003246002340463946FBF79AFE092AD4B22E
:1043AC001ED83034B045E4B277F1000309F8014D62
:1043BC0001D3D14511D82B789B0605D5082E15D1E4
:1043CC00AB7843F00803AB704846BDE8F88F03F0B8
:1043DC00F703702BD7E70826D8E780460F46D7E7B8
:1043EC00BBF1190F94BF37345734DBE7102EEBD1E8
:1043FC00AB7843F01003E6E72DE9F0410746884619
:10440C0015461E461446B442A4EB050002D33EB931
:10441C0023782BB114F8010B4146B8470028F2DA87
:10442C00BDE8F08170470022C0E90022826070472D
:10443C0000F034BD0146006800F030BD00210120C1
:10444C00FFF7F6BF08B5FCF7A9FDBDE80840FCF77F
:10445C0089BE034600201A5C02B970470130FAE7A6
:10446C00034600201A5C0AB1884200D17047013023
:10447C00F8E7431E013913F8012F11F8010F82429E
:10448C0001D1002AF7D1101A704710B5431E0A4407
:10449C00914200D110BD11F8014B03F8014FF7E721
:1044AC00C9B202440346934200D1704703F8011B82
:1044BC00F9E74FF0FF30704784B004AB03E9070015
:1044CC009DF80430062B08D14FF080430122C3F82D
:1044DC000025BFF34F8F20BFFDE704B0704784B0B9
:1044EC0004AB03E90700002383F31188BFF36F8F3C
:1044FC0004B070470369C9B20C2201FB0233186C7B
:10450C0000F0070070474FF02003EFF3118283F3A4
:10451C001288BFF36F8F036803F0C00343F00203EC
:10452C00036082F31188BFF36F8F7047034670B539
:10453C000069C9B24FF02004EFF3118684F312889E
:10454C00BFF36F8F0C2505FB0104246C14F0C00421
:10455C0001D0A24210D105FB01000122026400200F
:10456C0086F31188BFF36F8F28B95B6803EBC10129
:10457C004B689847002070BD4FF0FF30F0E7802269
:10458C00FFF7D4BFF8B5069F04690546C9B24FF0D2
:10459C002000EFF3118C80F31288BFF36F8F0C2681
:1045AC0006FB0146306C00F0070EBEF1010F11D175
:1045BC00376400268CF31188BFF36F8F46B90C203B
:1045CC0000FB0144C4E90E236B6853F83130984763
:1045DC003046F8BD00F0C000874214BF4FF0FF36E4
:1045EC006FF07706E6E713B580240094FFF7CAFF57
:1045FC0002B010BD006910B4CBB21C2403FB040044
:10460C00002110BC10470020FEF75AB91046FEF7E7
:10461C0037BF00F01F00800000F1A040D0F8003739
:10462C0023F4403343EA0143C0F800377047436832
:10463C005B68D3F810350B600020704743685B68EB
:10464C00D3F8040542400A404240C3F80425002038
:10465C00704743685B680020C3F8081570474368CF
:10466C005B680020C3F80C15704743685A68D2F891
:10467C0004354B40C2F80435002070470369586874
:10468C0030B558B10024814212D108689D6854B9E4
:10469C008D42586000D19860002008606AB90020F3
:1046AC0030BD2846EFE78D42206008BF9C60F3E7E1
:1046BC0005680446002DF4D13AB198685A680A602E
:1046CC0059600028EBD19960EAE76FF01500E7E735
:1046DC00B2F5005F14BF6FF0850000207047FEF745
:1046EC00EFBE1FB5CDE9011202228DF80C208268B5
:1046FC0001A994680122A04704B010BD07B58DF83C
:10470C0004201A0A8DF805208DF8063003220B467A
:10471C0001A9FFF7E6FF03B05DF804FB2DE9F843B0
:10472C0006460C461546994600F0D3FB10BBD6F84E
:10473C000480366906F120074FF0FF324FF0FF334B
:10474C003846FFF7CCFF328BB8F80810706855402C
:10475C002C4082EA09025440A4B223461022FFF7EF
:10476C00CDFF054600B934833846FEF789FE28464E
:10477C00BDE8F8836FF00A05F9E700220B461146F5
:10478C00FFF7CCBF00231A46FFF7C8BF0A46002329
:10479C00FFF7C4BF0023FFF7C1BF30B587B00C468D
:1047AC0000218DF80410118849BAADF80510518814
:1047BC0049BAADF80710918849BAADF80910D188FB
:1047CC0049BAADF80B10118949BAADF80D105189E1
:1047DC0049BAADF80F10918949BAADF81110D189C9
:1047EC00128A054649BAADF8131051BAADF8151036
:1047FC006068298963B113461022FFF77FFF28B93F
:10480C002B896068112201A9FFF76BFF07B030BD3F
:10481C000B46132201A9F7E72DE9F3414668056918
:10482C007068FEF771FC6860002861D033894FF026
:10483C007D081227022201A98DF804808DF80570DD
:10484C00FFF74FFF044600284AD1342268683389A9
:10485C008DF8052001A902228DF80480FFF741FF95
:10486C00044600283CD100216320FFF72DFA3A467C
:10487C00214605F10800FFF713FE4EF2E0031E225D
:10488C002B83AC83AC77686833898DF80420402285
:10489C008DF8052001A90222FFF723FF27460446C5
:1048AC00F0B92B8B318968681022FFF727FF04467B
:1048BC00B0B9EB8A318968680E22FFF71FFF0446F6
:1048CC0070B91F22686833898DF8042098228DF8FE
:1048DC00052001A902228DF80670FFF702FF04469D
:1048EC0005F12000FEF7CCFD204602B0BDE8F081BA
:1048FC006FF01504F4E72DE9F74FD0F804A0046924
:10490C000D46174600F0E5FA8346002840F08C80EF
:10491C0017F4A00F40F08B8004F120094FF0FF3307
:10492C004FF0FF324846FFF7DAFE0126638BAE40AC
:10493C00B6B223FA05F56FEA0608E9071FFA88F8FC
:10494C004FD4638A03EA08026282BA075CD4E38913
:10495C00F8064CBF334308EA0303E381238AB90604
:10496C004CBF334308EA030323822389FA054CBF67
:10497C0008EA03033343BD052381E38A4ED508EAD5
:10498C0003037805E38244D5238B08EA03032383CE
:10499C004FF0010BB4F81D303A034CBF1E4308EA2C
:1049AC000306A4F81D605B4604F10802214650463C
:1049BC00FFF7F3FE054600BB22238DF80430237F5E
:1049CC008DF80530B4F81D3060685BBA0422ADF880
:1049DC0006300DEB0201BAF80830FFF782FE0546EF
:1049EC000BE003EA0803BAF808106068638320221E
:1049FC00FFF784FE05460028A3D04846FEF740FD8D
:104A0C00284603B0BDE8F08F7D070AD53343638297
:104A1C009DE73905BED5238B3343B8E73343E38297
:104A2C00B8E76FF08505E8E76FF00A05E8E76FF087
:104A3C008505E5E72DE9F04188B0D0F804800769D9
:104A4C000D4600F046FA044678BB07F120063046C6
:104A5C004FF0FF324FF0FF33FFF741FE0DF105022F
:104A6C00029201227868039210230DF106028DF850
:104A7C0005300721B8F80830059202228DF8104055
:104A8C0006928DF81C1081688C6802A9A047044618
:104A9C0020B9BDF806305BBA9BB22B603046FEF7EE
:104AAC00EFFC204608B0BDE8F0816FF00A04F8E78F
:104ABC00CA07436805D4C1F34202012A04D0022A72
:104ACC000BD06FF0150070471B684FF0CC72C3F819
:104ADC00242503690020596270471B684FF0C86297
:104AEC00F5E703460A4600681979012303FA01F138
:104AFC0003691B68194218BF82F0010212B1836866
:104B0C00DB68184783681B69FBE730B504694568A7
:104B1C0085B003A92046FFF7F3FB297D11F00101B5
:104B2C00034614D101280CD105F10C00FFF7D9FF75
:104B3C0003460022039900922046FFF7ECFB05B0D8
:104B4C0030BD002814BF03466FF01503F1E70023B6
:104B5C00EFE77FB5056946680C46284603A9FFF7C1
:104B6C00CFFB034640B9327DD20705D4012106F1B3
:104B7C000C00FFF7B6FF0346012200920399224670
:104B8C002846FFF7C8FB04B070BD00690430FFF77E
:104B9C0092BB00690430FFF745BBF8B50546C06809
:104BAC0000F066F940B32C7D6B7CE868297C14F02E
:104BBC00030416BF4FF4D0524FF4B0526C68134339
:104BCC000769D0F808C03D68DA0748BF83F4406332
:104BDC00012623F480528E40DB074CBF3543B5438E
:104BEC003D60DCF800309847054618B914B12046F2
:104BFC0000F0C1FA2846F8BD6FF01205FAE74068DC
:104C0C00FFF7CBBF2DE9F04190F8341050F8203C61
:104C1C00076B5D6801290446A0F120060FD105F150
:104C2C000C00FFF75EFF6A6803460021216384F8DD
:104C3C00341030463946BDE8F041FDF7A9B90229D8
:104C4C0007D1002105F10C00FFF74BFFAA680346C2
:104C5C00EBE700231A46E8E72DE9F04150F8043C55
:104C6C000446061F58680D46017D11F0010113D151
:104C7C0087680C30FFF735FF10F10B0F03460DD191
:104C8C00022384F85030E56404F11C000022BDE8D6
:104C9C00F0410023FEF784BD00231F463A46294607
:104CAC003046BDE8F041FDF773B92DE9F04150F8FD
:104CBC00043C0446071F5868037DDB070D4614D4DB
:104CCC00466801210C30FFF70CFF10F10B0F034667
:104CDC000DD1012384F85030E56404F11C0000224E
:104CEC00BDE8F0410023FEF75BBD00231E463246B3
:104CFC0029463846BDE8F041FDF74AB902690B4632
:104D0C00D2E9010183E803000020704743681B6867
:104D1C00D3F88004C3F880047047436802691B68A9
:104D2C00D3F8100148B1527C0A700020C3F810016E
:104D3C00D3F8102101221A6070474FF0FF307047F2
:104D4C0002680346D2F8580140B95B681B0706D4C9
:104D5C00D2F82001003818BF01207047012070479D
:104D6C0043681B68D3F80423D10518D5D3F8202148
:104D7C00AAB14FF02001EFF3118281F31288BFF337
:104D8C006F8FD3F8201131B10021C3F82011D3F863
:104D9C0020110121D96082F31188BFF36F8F426813
:104DAC005268D20615D54FF02001EFF3118281F332
:104DBC001288BFF36F8FD3F8581111B10021C3F8CB
:104DCC0000154FF48001C3F8081382F31188BFF368
:104DDC006F8F7047704770474FF08053D3F8300196
:104DEC00421C04BF4FF0704393F8E00F831F5842EE
:104DFC0058417047004700F0BEB908B50020FCF7D9
:104E0C00A7F818B9BDE80840FCF792B808BD0A7BB2
:104E1C000346032A29D8DFE802F0212519028A6803
:104E2C00500304D5D3F84C250869904207D18A6801
:104E3C0052031AD4D3F84C254969914215D000205D
:104E4C000622C3F80005C3F800257047D3F84C259B
:104E5C0008699042F3D1D3F83C25EDE7D3F84C2503
:104E6C000969EAE7D3F83C25FAE701207047704757
:104E7C0038B1C3681888C0F30800A0F58073584295
:104E8C00584170474FF02002EFF3118382F31288E0
:104E9C00BFF36F8FFEE708B5FFF7F4FFF8B50546D3
:104EAC000E464FF02003EFF3118783F31288BFF304
:104EBC006F8FFEF723FF314604462846FFF7EBFFC2
:104ECC0087F31188BFF36F8F2046BDE8F840FCF7DD
:104EDC0075BAEFF30580003818BF012070476FF0EA
:104EEC0057007047FEF79EBD08B5FBF799FFBDE86C
:104EFC000840FFF770BF026801238B4022EA0303CE
:104F0C00036022FA01F000F00100704720B100228A
:104F1C001146883000F0CEB8704773B504464FF098
:104F2C002003EFF3118583F31288BFF36F8F0023F7
:104F3C00A0F11006032104380193FFF7DCFF28B120
:104F4C00A369019301A93046FEF778FB85F311881C
:104F5C00BFF36F8F02B070BD38B5302204460D46DA
:104F6C000021FFF79DFA4FF480736560E36038BD54
:104F7C00D0E9003213605A600023C0E90033704757
:104F8C0008B5FFF7F5FF437B23F0020343730023BF
:104F9C00836008BD034620B9EFF305820AB9FCF71C
:104FAC0025B883F31188BFF36F8F70474FF0200340
:104FBC00EFF3118083F31288BFF36F8FFFF7EABF13
:104FCC0003460068834208BF0020704710B54FF0BD
:104FDC002003EFF3118483F31288BFF36F8FFEF776
:104FEC00EBFC84F31188BFF36F8F10BD10B5014635
:104FFC004FF02003EFF3118483F31288BFF36F8F0C
:10500C0010F80B3C13F0280F0DD151F8103C183848
:10501C000BB1FFF7B5FF11F80B3C23F0140301F8AB
:10502C000B3CFEF7C9FC84F31188BFF36F8F10BDE6
:10503C0038B504460D46FEF713FD637B43F00203BF
:10504C00637395B12B68A5609D4215D0A3B194F9FB
:10505C000E1093F90E20914208D0521A002A05DD49
:10506C005A68C4E9003214605C6038BD6A689342C7
:10507C0002D01B68002BECD16B68C4E900531C6098
:10508C006C60F2E738B54FF02003EFF3118583F332
:10509C001288BFF36F8FFFF793FF044620B1FFF721
:1050AC006FFF183000F023F885F31188BFF36F8F72
:1050BC00204638BD38B54FF02003EFF3118583F34C
:1050CC001288BFF36F8FFFF77BFF044650B18167E7
:1050DC004261FFF755FF183000F009F82046FEF743
:1050EC006BFC012085F31188BFF36F8F38BD10B5B1
:1050FC004FF02002EFF3118482F31288BFF36F8F0D
:10510C0003683BB1FEF7B0FE002084F31188BFF3B7
:10511C006F8F10BD6FF01500F7E710B54FF020033F
:10512C00EFF3118483F31288BFF36F8FFEF774FED5
:10513C0084F31188BFF36F8F10BD70B504460D4614
:10514C004FF02003EFF3118683F31288BFF36F8FB8
:10515C00FEF762FE012805DDA04203DB294620464E
:10516C00FDF7B6F986F31188BFF36F8F70BD08B5E4
:10517C00FEF76AFF08BD08B1FCF712BA70470000D1
:04518C00FDF702BA6F
:0851900080AFFF7F0100000069
:1051980085150000000000007D1600001852000070
:1051A80039220000305200001519000000000000EC
:1051B80091240000485200006D1900006052000060
:1051C8009D40000000000000C1150000785200005A
:1051D800A11D000090520000391D0000A8520000D7
:1051E80025480000C05200006D1F0000D852000082
:1051F8006D1F0000F05200006D1F000008530000F2
:105208000B4C0000205300000B4C000038530000EA
:1052180028570000405500002C550000B800002019
:10522800C8030020DE5400007B570000B45600007D
:10523800A0560000E000002094000020D654000092
:10524800825700000000000000000000E400002079
:1052580000000000D25400002157000080550000D3
:105268005C550000BC00002024040020CC54000041
:10527800205700002455000000000000B400002062
:1052880000000000C854000034570000F05500002A
:10529800BC550000C400002068000020C054000075
:1052A8002E570000D4550000BC550000C80000204F
:1052B8003C000020B8540000E8560000B05500003B
:1052C8008C550000C00000200C000020B0540000E5
:1052D8003A5700007C5600000C560000CC00002015
:1052E80098010020A85400004757000064560000A9
:1052F8000C560000D000002040010020A0540000FF
:10530800545700004C5600000C560000D4000020F2
:10531800E80000209854000061570000345600004F
:1053280014560000D80000204404002090540000C7
:105338006E5700001C56000014560000DC000020C8
:0853480040040020885400001D
:1053500045290000014E0000000000004944000003
:10536000305200006D4D000025300000014E00005D
:1053700035300000014E00000000000049440000EC
:1053800000000000FD1B0000000000004944000078
:1053900000000000494400000000000049440000F3
:1053A00000000000494400000000000049440000E3
:1053B00000000000494400000000000049440000D3
:1053C00000000000494400000000000049440000C3
:1053D00000000000494400000000000031240000EB
:1053E00000000000494400000000000049440000A3
:1053F0000000000049440000000000004944000093
:105400000000000049440000000000004944000082
:105410000000000049440000000000004944000072
:105420000000000049440000000000004944000062
:105430000000000049440000000000004944000052
:105440000000000049440000000000004944000042
:105450000000000049440000000000004944000032
:105460000000000049440000000000004944000022
:105470000000000049440000000000004944000012
:08548000000000004944000097
:105488000400FF7FFF7FFF7F0400FF7FFF7FFF7F18
:105498000800FF7FFF7FFF7F0800FF7FFF7FFF7F00
:1054A8000800FF7FFF7FFF7F07000D00FF7FFF7F62
:1054B800FF7FFF7FFF7FFF7FFF7FFF7FFF7FFF7FF4
:1054C800FF7FFF7FFF7FFF7FFF7FFF7FFF7FFF7FE4
:0E54D800FF7FFF7FFF7FFF7FFF7FFF7FFF7F54
:0A54E600FFFFFFFFFFFFFFFFFFFFC6
:1054F0000338FDD8704700000000002000000000C5
:1055000000000B06020000000C5500000000000027
:10551000F65600002400020700000020FE5600009E
:105520001E000B11215700001E0000009117000003
:105530008B450000F345000000000000014500001D
:105540002D170000E9170000C517000013460000E2
:10555000391600000916000000000000451B00007D
:105560003B460000494600005F4600006B460000D5
:10557000774600009D1900008946000000000000E9
:10558000FFFFFFFF00000050000000000349000083
:10559000414A0000A14700009947000091470000E0
:1055A00087470000DD46000000000000000000000A
:1055B000FFFF00002E5700003E000000BD4A000023
:1055C00000000000D51D00000000000000000000E9
:1055D000191D00000030004000000000080000001D
:1055E000070000000000400600000000100010004E
:1055F00000400040010000000F0000000E0000000D
:105600000000400600000000100010009F4B00004A
:10561000974B00005F4B0000174B00006E570000D7
:105620000000000000000000605200001E000000AA
:1056300002000000615700000000000000000000B0
:10564000605200001D0000000000000054570000E0
:105650000000000000000000C05200000800000030
:10566000000000004757000000000000000000009C
:10567000C052000009000000000000003A5700007E
:105680000000000000000000C05200000A000000FE
:1056900000000000B74C0000654C00000000000056
:1056A000274D000075210000194D00001520000055
:1056B000094D000000200040080000000300000029
:1056C00002000000FFFFFFFFFFFFFFFF00000000E0
:1056D00098510000B8510000C0510000185200005D
:1056E00018520000F5FFFFFF4750494F5F50300050
:1056F000286E696C2900464C4153485F3000535274
:10570000414D5F3000436F756C64206E6F74206292
:10571000696E642064657669636520222573220AB8
:10572000004750494F5F3000434C4F434B004932D4
:10573000435F30004932435F31006363732D7077FC
:10574000722D6374726C006D69632D7077722D63B6
:1057500074726C006D70752D7077722D6374726C3D
:105760000073706B2D7077722D6374726C007664A9
:10577000642D7077722D6374726C00554152545FC2
:1057800030007379735F636C6F636B00000001011D
:105790000100000001010000000001010000000004
:1057A0006D61696E0076322E372E39392D313132E6
:1057B000302D6762633064623839333163393000C9
:1057C0002A2A2A20426F6F74696E67205A657068B2
:1057D0007972204F53206275696C642025732025EF
:1057E00073202A2A2A0A00737973776F726B71000B
:1057F0004F41000001000000BF4400000000000015
:105800000000000000000000000000000000000098
:105810000000000000000000000000002C0000203C
:105820002C00002001000000010000003C000020CE
:105830003C00002001000000010000004C0000209E
:105840004C000020000000000100000000000000EB
:10585000000000005F0500206800002068000020B4
:105860000100000001000000780000207800002006
:105870000000000001000000000000000000000027
:105880006F0500200000000000C2010000010300BD
:1058900000000000000000000090D003AC000020D9
:0458A000AC00002038
:1058A40000000000000000000000000000000000F4
:1058B40000000000000000000000000000000000E4
:1058C40000000000000000000000000000000000D4
:0458D40000000000D0
:04000003000013994D
:00000001FF
