:10000000601300206121000003560000352100002C
:1000100035210000352100003521000000000000DE
:10002000000000000000000000000000491E000069
:100030003521000000000000F51D0000FF600000F9
:10004000F91E0000F91E0000F91E0000F91E000054
:10005000F91E0000F91E0000F91E0000F91E000044
:10006000F91E0000F91E0000F91E0000F91E000034
:10007000F91E0000F91E0000F91E0000F91E000024
:10008000F91E0000F91E0000F91E0000F91E000014
:10009000F91E0000F91E0000F91E0000F91E000004
:1000A000F91E0000F91E0000F91E0000F91E0000F4
:1000B000F91E0000F91E0000F91E0000F91E0000E4
:1000C000F91E0000F91E0000F91E0000F91E0000D4
:0C00D000F91E0000F91E0000F91E0000DF
:0400DC00FFFFFFFF24
:1000E00081F0004102E000BF83F0004330B54FEAE9
:1000F00041044FEA430594EA050F08BF90EA020F56
:100100001FBF54EA000C55EA020C7FEA645C7FEAE8
:10011000655C00F0E2804FEA5454D4EB5555B8BF0B
:100120006D420CDD2C4480EA020281EA030382EA7C
:10013000000083EA010180EA020281EA0303362D0E
:1001400088BF30BD11F0004F4FEA01314FF4801CE1
:100150004CEA113102D0404261EB410113F0004FF3
:100160004FEA03334CEA133302D0524263EB4303AA
:1001700094EA050F00F0A780A4F10104D5F1200E48
:100180000DDB02FA0EFC22FA05F2801841F10001A3
:1001900003FA0EF2801843FA05F359410EE0A5F177
:1001A00020050EF1200E012A03FA0EFC28BF4CF0A8
:1001B000020C43FA05F3C01851EBE37101F000455E
:1001C00007D54FF0000EDCF1000C7EEB00006EEB6B
:1001D0000101B1F5801F1BD3B1F5001F0CD34908F5
:1001E0005FEA30004FEA3C0C04F101044FEA44524C
:1001F00012F5800F80F09A80BCF1004F08BF5FEAD3
:10020000500C50F1000041EB045141EA050130BDB2
:100210005FEA4C0C404141EB0101013C28BFB1F5C4
:10022000801FE9D291F0000F04BF01460020B1FA0F
:1002300081F308BF2033A3F10B03B3F120020CDAE2
:100240000C3208DD02F1140CC2F10C0201FA0CF0C0
:1002500021FA02F10CE002F11402D8BFC2F1200C25
:1002600001FA02F120FA0CFCDCBF41EA0C019040DB
:10027000E41AA2BF01EB0451294330BD6FEA040424
:100280001F3C1CDA0C340EDC04F11404C4F120020F
:1002900020FA04F001FA02F340EA030021FA04F321
:1002A00045EA030130BDC4F10C04C4F1200220FA78
:1002B00002F001FA04F340EA0300294630BD21FAB6
:1002C00004F0294630BD94F0000F83F4801306BF7C
:1002D00081F480110134013D4EE77FEA645C18BF70
:1002E0007FEA655C29D094EA050F08BF90EA020F07
:1002F00005D054EA000C04BF1946104630BD91EAFF
:10030000030F1EBF0021002030BD5FEA545C05D101
:100310004000494128BF41F0004130BD14F5800440
:100320003CBF01F5801130BD01F0004545F0FE41B4
:1003300041F470014FF0000030BD7FEA645C1ABFE9
:10034000194610467FEA655C1CBF0B46024650EA20
:10035000013406BF52EA033591EA030F41F400214C
:1003600030BD00BF90F0000F04BF0021704730B5D2
:100370004FF4806404F132044FF000054FF00001A7
:1003800050E700BF90F0000F04BF0021704730B568
:100390004FF4806404F1320410F0004548BF40423D
:1003A0004FF000013EE700BF42004FEAE2014FEA92
:1003B00031014FEA02701FBF12F07F4393F07F4F6D
:1003C00081F06051704732F07F4208BF704793F070
:1003D0007F4F04BF41F40021704730B54FF4607483
:1003E00001F0004521F000411CE700BF50EA010286
:1003F00008BF704730B54FF000050AE050EA01022F
:1004000008BF704730B511F0004502D5404261EB9E
:1004100041014FF4806404F132045FEA915C3FF4DF
:10042000D8AE4FF003025FEADC0C18BF03325FEA7C
:10043000DC0C18BF033202EBDC02C2F1200300FA2D
:1004400003FC20FA02F001FA03FE40EA0E0021FA52
:1004500002F11444BDE600BF70B54FF0FF0C4CF440
:10046000E06C1CEA11541DBF1CEA135594EA0C0FF2
:1004700095EA0C0F00F0DEF82C4481EA030621EA2D
:100480004C5123EA4C5350EA013518BF52EA033568
:1004900041F4801143F4801338D0A0FB02CE4FF01A
:1004A0000005E1FB02E506F00042E0FB03E54FF04A
:1004B0000006E1FB03569CF0000F18BF4EF0010E42
:1004C000A4F1FF04B6F5007F64F5407404D25FEA3E
:1004D0004E0E6D4146EB060642EAC62141EA5551F1
:1004E0004FEAC52040EA5E504FEACE2EB4F1FD0C33
:1004F00088BFBCF5E06F1ED8BEF1004F08BF5FEAB1
:10050000500E50F1000041EB045170BD06F0004662
:1005100046EA010140EA020081EA0301B4EB5C040F
:10052000C2BFD4EB0C0541EA045170BD41F4801107
:100530004FF0000E013C00F3AB8014F1360FDEBF2C
:10054000002001F0004170BDC4F10004203C35DA08
:100550000C341BDC04F11404C4F1200500FA05F38B
:1005600020FA04F001FA05F240EA020001F000422C
:1005700021F0004110EBD37021FA04F642EB0601A2
:100580005EEA430E08BF20EAD37070BDC4F10C04CC
:10059000C4F1200500FA04F320FA05F001FA04F290
:1005A00040EA020001F0004110EBD37041F100017C
:1005B0005EEA430E08BF20EAD37070BDC4F1200587
:1005C00000FA05F24EEA020E20FA04F301FA05F2EF
:1005D00043EA020321FA04F001F0004121FA04F297
:1005E00020EA020000EBD3705EEA430E08BF20EA67
:1005F000D37070BD94F0000F0FD101F000464000A1
:1006000041EB010111F4801F08BF013CF7D041EA22
:10061000060195F0000F18BF704703F00046520026
:1006200043EB030313F4801F08BF013DF7D043EAF7
:100630000603704794EA0C0F0CEA135518BF95EAAD
:100640000C0F0CD050EA410618BF52EA4306D1D134
:1006500081EA030101F000414FF0000070BD50EA53
:10066000410606BF1046194652EA430619D094EADD
:100670000C0F02D150EA013613D195EA0C0F05D1C7
:1006800052EA03361CBF104619460AD181EA03011B
:1006900001F0004141F0FE4141F470014FF00000D3
:1006A00070BD41F0FE4141F4780170BD70B54FF06E
:1006B000FF0C4CF4E06C1CEA11541DBF1CEA1355EE
:1006C00094EA0C0F95EA0C0F00F0A7F8A4EB0504D0
:1006D00081EA030E52EA03354FEA013100F08880C7
:1006E0004FEA03334FF0805545EA131343EA126390
:1006F0004FEA022245EA111545EA10654FEA002645
:100700000EF000419D4208BF964244F1FD0404F5FD
:10071000407402D25B084FEA3202B61A65EB030559
:100720005B084FEA32024FF480104FF4002CB6EB16
:10073000020E75EB030E22BFB61A754640EA0C0096
:100740005B084FEA3202B6EB020E75EB030E22BFD6
:10075000B61A754640EA5C005B084FEA3202B6EB17
:10076000020E75EB030E22BFB61A754640EA9C00D6
:100770005B084FEA3202B6EB020E75EB030E22BFA6
:10078000B61A754640EADC0055EA060E18D04FEA64
:10079000051545EA16754FEA06164FEAC30343EA04
:1007A00052734FEAC2025FEA1C1CC0D111F4801FD1
:1007B0000BD141EA00014FF000004FF0004CB6E7CA
:1007C00011F4801F04BF01430020B4F1FD0C88BF69
:1007D000BCF5E06F3FF6AFAEB5EB030C04BFB6EB74
:1007E000020C5FEA500C50F1000041EB045170BD67
:1007F0000EF0004E4EEA113114EB5C04C2BFD4EB94
:100800000C0541EA045170BD41F480114FF0000E17
:10081000013C90E645EA060E8DE60CEA135594EA93
:100820000C0F08BF95EA0C0F3FF43BAF94EA0C0F96
:100830000AD150EA01347FF434AF95EA0C0F7FF40B
:1008400025AF104619462CE795EA0C0F06D152EA5F
:1008500003353FF4FDAE1046194622E750EA410643
:1008600018BF52EA43067FF4C5AE50EA41047FF454
:100870000DAF52EA43057FF4EBAE12E753B94AB924
:10088000002908BF00281CBF4FF0FF314FF0FF3098
:1008900000F00CB8ADF1080C6DE904CE00F008F8DA
:1008A000DDF804E0DDE9022304B07047704700BFC3
:1008B0002DE9F04F07468C460846099E15463C46F2
:1008C0001946002B40F0C6808242B2FA82F746D920
:1008D0004FB1C7F1200E24FA0EFE00FA07F3BD4017
:1008E0004EEA030CBC404FEA15481FFA85FEBCFBDC
:1008F000F8F9220C08FB19C309FB0EFA42EA03437C
:100900009A4528D9EB1809F1FF3004D29A4502D94B
:10091000A9F102002B44A3EB0A03A4B2B3FBF8F243
:1009200008FB123302FB0EFE44EA0344A64514D929
:100930002C1902F1FF3303D2A64501D9931E2C4492
:10094000A4EB0E0443EA00401EB1FC4000233460D7
:100950007360BDE8F08F4846DDE71346F0E702B963
:10096000FFDE87BB831A01214FEA154EAAB2B3FB03
:10097000FEFC200C0EFB1C330CFB02F840EA034388
:10098000984563D9EB180CF1FF3004D2984502D991
:10099000ACF102002B44A3EB0803A4B2B3FBFEFCB2
:1009A0000EFB1C330CFB02F244EA0344A2424FD973
:1009B0002C190CF1FF3304D2A24202D9ACF102038C
:1009C0002C44A41ABEE7C7F1200C20FA0CF800FA58
:1009D00007F324FA0CFCBD404CEA03024FEA154E23
:1009E000ABB2B8FBFEFC110C0EFB1C800CFB03F938
:1009F00041EA0040814504FA07F423D928180CF194
:100A0000FF3104D2814502D9ACF102012844A0EBA8
:100A1000090092B2B0FBFEFC0EFB1C000CFB03F8BD
:100A200042EA004398450FD9EB180CF1FF3204D28B
:100A3000984502D9ACF102022B44A3EB080342EA29
:100A4000014191E76146E2E76246F6E76046A2E7C8
:100A50006346B6E7834205D90EB1C6E900700021AE
:100A6000084676E7B3FA83F181B9834201D3BA42EB
:100A70000AD8BC1A60EB030301209C46002E68D004
:100A8000C6E9004C002164E70846F7E7C1F1200CF5
:100A90008B4022FA0CF41C4302FA01F500FA01F330
:100AA00027FA0CF220FA0CFB4FEA14491343BBFB64
:100AB000F9F81FFA84FE09FB18BB1A0C08FB0EFAA2
:100AC00042EA0B42924507FA01F73ED9A21808F113
:100AD000FF3004D2924502D9A8F102002244A2EBD1
:100AE0000A029BB2B2FBF9F809FB182208FB0EFEC2
:100AF00043EA024296452AD9A21808F1FF3304D2EC
:100B0000964502D9A8F10203224443EA0040A0FB23
:100B10000593A2EB0E029A42CE46984602D306D126
:100B20004F4504D2B9EB050E63EB0408013886B1DA
:100B3000B7EB0E0362EB080707FA0CFCCB404CEA5C
:100B40000303CF40C6E900379CE74046C7E743466A
:100B5000DBE73146FDE600002DE9F043444885B06F
:100B600004F0A1FB434803F09FFB044628B9424828
:100B700005B0BDE8F04304F096BB05F068FB2168C2
:100B8000C0B13E4804F08FFB00231B223C48CDE956
:100B9000002304F088FB0123ADF80830A3689B68AC
:100BA0000D26ADF80A605BB9364804F07CFB05B051
:100BB000BDE8F083344805B0BDE8F04304F073BBF2
:100BC000324A02A9204698470028EDD1A3681D6843
:100BD00055B131466B4602222046A847011E06DA6F
:100BE0002B4804F060FBE2E76FF05701F8E7DDE91E
:100BF00000122848284D04F056FB1BA7D7E90067D0
:100C0000A3680D21DB6820469847014610B12846AD
:100C100004F049FBA3680D211B6902AA20469847EE
:100C2000014610B11D4804F03EFB0398FFF7AAFBF4
:100C300032463B46FFF73AFD804602988946FFF769
:100C4000A1FB02460B4640464946FFF74FFA0246D3
:100C50000B46134804F027FB00214FF4004004F03A
:100C600003F9CDE7AFF300800000000080842E413F
:100C7000826B0000926B0000996B0000B36B000068
:100C8000DB6B0000246C00003B6C0000A50C000036
:100C90008F6C0000BF6C0000F06C0000156D000050
:100CA0003C6D0000014804F0FEBA00BF546B000028
:100CB0000B6801330B60014B1B68184700000020D4
:100CC000014B1860704700BF0000002007B50B46BD
:100CD000002102460191034801A900F0E5F803B0A4
:100CE0005DF804FBB10C00002DE9F84FB0F8189046
:100CF00019F00808044693460DD001290CBF49F0AD
:100D0000100949F02009A0F818908BF31188BFF35F
:100D10006F8FBDE8F88F09F00709022907D1204637
:100D200004F0CEFA0028F0D00128238B4ED1676959
:100D3000218B002F15DA256821F00701C4E900880E
:100D400041F0010121830026218B01F0070ACA45E9
:100D500002D0A368002B5AD10DB9002E71D0002308
:100D600056E001F007035A1F012A1ED821F007019F
:100D7000062B256889B2C4E900880AD13DB1638B8E
:100D80002A46126801339BB2002AFAD1638341F0EC
:100D900002012183204604F093FA06460028D3D0AE
:100DA000238B43F020032383CDE7042B0CD121F0C8
:100DB000070189B22183204604F082FA0546002803
:100DC000C1D041F0200121830025BCE7032809D1CF
:100DD000226923F00703166843F0060323830025E6
:100DE0002F46B1E7042806D1226923F0070356688D
:100DF00043F00403F2E7052806D1226923F0070334
:100E0000966843F00503E9E700252E46E8E701234D
:100E100041F0080121838BF31188BFF36F8FFBB979
:100E200085BB16B11F492046B0474FF02003EFF3B2
:100E3000118B83F31288BFF36F8F238B23F008038A
:100E40002383238BDA0625D523F010032383012186
:100E5000B4F8189009F0070900297FF45EAF54E751
:100E6000A1680029DCD0D1F80090D1F804B03B464D
:100E700052462046D847B9F1000FD1D04946D9F89B
:100E80000090F2E729463B46524620462D6804F082
:100E900033FAC5E713F020011EBF23F0200323839C
:100EA0000221D5E7255300002DE9F04F81469BB084
:100EB0008A4615461C460026287810B9304600F0B0
:100EC000EEBD6B1C2528029306D05146C84700286A
:100ED000C0F2E58501364CE2182200210CA804F08E
:100EE000C8FB6B78252B7CD00022681C9646904668
:100EF00094461746014610F8013B2B2B00F0A080CA
:100F000000F29780202B00F09E80232B00F09E8023
:100F10002FB19DF8380040F004008DF83800BCF186
:100F2000000F05D09DF8380040F008008DF838001B
:100F3000B8F1000F05D09DF8380040F010008DF892
:100F40003800BEF1000F05D09DF8380040F02000B9
:100F50008DF838002AB19DF8382042F040028DF813
:100F600038209DF8382002F04400442803D16FF364
:100F700086128DF838209DF838202A2B42F0800206
:100F80008DF838207ED19DF8392042F001024B1CAB
:100F90008DF839201A782E2A9DF839200CBF0121AE
:100FA000002161F341028DF8392077D15A782A2A3D
:100FB0006DD0013300214FF00A0C184610F8012BB8
:100FC000A2F13007092F40F2AB809DF83820109134
:100FD000C2F3400040EAD17161F341028DF838203C
:100FE0005CE0AA1C02928DF83B309DF83930DF0797
:100FF00040F1738154F804BBBBF1000F07DA9DF890
:10100000382042F004028DF83820CBF1000B58074D
:1010100040F16C8154F8048BB8F1000F80F26B81C1
:101020009DF839306FF341038DF839304FF0FF38B8
:1010300061E12D2B0DD0302B7FF46AAF012259E7EF
:101040004FF0010C56E74FF0010853E74FF0010E47
:1010500050E701274EE70CFB0272303A0346184670
:1010600010F8017BA7F1300EBEF1090FF3D99942B8
:1010700090D09DF838100F92D20F62F341018DF895
:10108000381087E70B4600224FF00A0CE7E79DF87F
:10109000392042F004028DF839200233194611F844
:1010A000012B6C2A5CD040D8682A46D06A2A61D0CD
:1010B0004C2A67D019460B4613F8012B0293782A65
:1010C0008DF83B2000F2DF80572A68D8412A04D0EF
:1010D000A2F14503022B00F2D6809DF83A3002F0CF
:1010E000DF020421A2F1410861F30203D8F10002FA
:1010F0009DF839108DF83A3042EB080262F3C711BF
:101100000A068DF83910CBB200F1E58003F07802C1
:10111000182A40F0B5806FF3C6038DF839309CE093
:101120000CFB01213039034647E7742A26D07A2A7E
:10113000C0D19DF8393006220DE05A78682A9DF812
:10114000392006D1012161F3C6028DF83920991C9E
:10115000B1E71346022262F3C6038DF83930AAE7DD
:101160005A786C2A9DF8392001D10421EBE7134607
:101170000322F0E79DF839300522ECE79DF839307D
:101180000722E8E7BDF8383023F4F04323F00203E8
:1011900043F4804343F00203ADF838308BE7A2F10B
:1011A0005803202B6FD801A151F823F05F120000E3
:1011B00087120000871200008712000087120000CB
:1011C00087120000871200008712000087120000BB
:1011D000DB100000871200005F12000031120000D7
:1011E000DB100000DB100000DB10000087120000A5
:1011F00031120000871200008712000087120000E1
:1012000087120000951200005F120000B912000062
:101210008712000087120000B91200008712000038
:101220005F12000087120000871200005F120000AA
:101230009DF83A30012161F302038DF83A309DF8B0
:10124000393003F07803402B02BF9DF8381041F08D
:1012500001018DF83810632A05D0002306E09DF8BF
:101260003A300221E7E7003B18BF01239DF8382000
:10127000C2F340010B4363F341028DF83820B4E61A
:1012800013F0380FE9D09DF8383043F001038DF8A2
:101290003830E2E79DF83A30032262F302038DF81A
:1012A0003A309DF8393003F07803A3F1400CDCF1BB
:1012B000000343EB0C03D9E79DF83A30032262F3B5
:1012C00002038DF83A309DF8393013F0780F14BFCF
:1012D00001230023CAE70123C8E79DF93820002A2B
:1012E000B4BFDDF83CB04FF0FF3B90E699077FF5C7
:1012F0009DAEDDF840809DF839100023CDE90F3315
:101300009DF83A3003F00702042A09D18A0707D46E
:101310009DF93920002AB4BF4FF00D084FF00608A0
:1013200003F00703012BC1F3C30137D1CB1E042BFC
:1013300021D8DFE803F003090920200054F8043B1A
:10134000DA17CDE90C3206E0073424F00704F4E89C
:101350000223CDE90C239DF83870BB0756D0029BC1
:101360002A465146484604F026F90028C0F29783E1
:101370000644029DA0E554F8043B01294FEAE372BC
:10138000CDE90C3205D19DF830300C9300230D933C
:10139000E1E70229DFD1BDF93030D1E7022B23D1BB
:1013A000CB1E042B13D8DFE803F0030A0A12120045
:1013B00022680C920023201D0D930446CBE7E01D0C
:1013C00020F00700F0E80223CDE90C23F5E754F8FC
:1013D000043B0C9301294FF000030D93D3D0022955
:1013E000B9D1BDF83030D0E7042B09D1E31D23F08B
:1013F000070303F10804D3E90023CDE90C23AAE78E
:10140000032B04BF54F8043B0C93A4E79DF83B2046
:10141000782AAED8572A00F28C80252A00F0D48092
:10142000242AA6D9412A03D0A2F14503022BA0D831
:10143000DDE90C13002BC0F2BE81380700F1BD813D
:1014400017F0100718BF2027C3F30A55C3F313037F
:10145000CDE90813002D40F0B28151EA030014BF1A
:1014600001200020DB0243EA5153C902462A45EA23
:10147000010E43EAE57C08BF66225EEA0C0CCDE96A
:10148000081300F00682002840F0CE81DDE9080153
:101490004FF0000C41F00041A5F2FE350991634682
:1014A0004FF0050E15F1020FC0F2C581BCF1000F1F
:1014B00001D0CDE90801002DDDE9081000F3D0814D
:1014C00009980899C5F1040C1C3500FA05F5ACF132
:1014D000200E21FA0CF120FA0EFE294341EA0E01FA
:1014E00020FA0CF0CDE9081002F0DF01472940F0A6
:1014F000D781DD1C02DB984580F2CE81023AB8F13B
:10150000000FD2B201DD08F1FF389DF838108806CF
:1015100000F1C681B8F1000FD4BF00210121662A75
:10152000039140F0BF8118EB030540F1BD81002518
:10153000BDE1A2F15803202B3FF61BAF01A050F8EC
:1015400023F000BF5917000073130000731300004D
:101550007313000073130000731300007313000073
:1015600073130000731300003114000073130000A4
:10157000F5150000F91600003114000031140000C8
:101580003114000073130000F916000073130000FB
:101590007313000073130000731300008F17000013
:1015A000591700005D17000073130000731300004B
:1015B000CF150000731300005917000073130000CB
:1015C0007313000059170000514610467EE4B8F12D
:1015D000000F0C9A09DB41461046039204F029F8EB
:1015E000039A0027151862B9C3E61046039204F067
:1015F00019F8F5E70C9B8DF84C3000270DF14D05DF
:1016000013AAAB1A07B101339DF83A00C10640F1A5
:101610003A8202330F9940060B4444BF10995B187D
:10162000BBF1000F23DDABEB030B9DF838305907FE
:10163000C3F380081BD4580640F13482002F00F019
:101640003482514638460392C8470028C0F22782A8
:10165000039A474601364FF030085E445B46002B44
:10166000A6EB0B000BF1FF3B00F31182064647B1DE
:10167000514638460392C8470028C0F21082039AA8
:1016800001369DF83A30590640F165829DF93930AE
:10169000002BA6EB02030393C0F20A8217463878A8
:1016A000039BA0F13002092AB84603EB070607F1B5
:1016B000010740F229829DF83A200F9F930608D433
:1016C0003E44002FA6EB070307F1FF3700F3228209
:1016D0001E4698F800002E280BD15146C847002816
:1016E000C0F2DD81002F06F1010600F31A8208F135
:1016F0000108A6EB08061DE23D072BD417F01007E2
:1017000018BF2027DDE90C23002B05DA524263EBDA
:101710004303CDE90C232D270DF1650300930EAA99
:10172000DDE90C0113AB03F000FF0246B8F1000F36
:101730000DF16505FFF657AF9DF83810AB1A6FF342
:10174000861198458DF838107FF64DAFA8EB03034E
:101750000F9348E72B27D5E70027DDE70C980028F3
:1017600000F08D810DF1650300930EAA13AB0021EB
:1017700003F0DBFEBDF83A3003F0EF0343F4F0432F
:1017800043F010030246ADF83A300027CEE70C9B39
:1017900007293FF6EEADDFE801F00C04060C08085F
:1017A0000C0C1E70E5E51E80E3E5F217C3E900624C
:1017B000DFE51E60DDE52D2746E62B2744E640F2F7
:1017C000FF7085422DD10B43A2F141021BD1192A92
:1017D00011D849238DF84C304E238DF84D304623D7
:1017E0008DF84E309DF838306FF386138DF8383011
:1017F0000DF14F0504E769238DF84C306E238DF809
:101800004D306623ECE7192A99BF4E2341226E23FF
:10181000612294BF8DF84C308DF84C308DF84D20FE
:10182000DEE700201EE6013D49185B41002BFADA95
:10183000CDE908132AE6400840EAC1704908B1F131
:10184000333FAC4605F10105F5D20EFB01F5A0FBD7
:101850000E012944013B0CF102054FF0010C21E679
:10186000023140F10000CDE9081008A8CDE90323BA
:1018700003F02CFE049B039ADDE90810013D0133BF
:1018800049184041002805F1FF35F9DACDE9081083
:1018900011E600231D4613E6A8EB0308662234E692
:1018A00000213CE608F10105102DA8BF10251021EC
:1018B000079100204FF00061CDE90A01DDE90A102F
:1018C000A5B9089D4919099D40EB0505B5F1805F53
:1018D0001BD2CDE90815662A40F09980002B23DC45
:1018E00030218DF84C100DF14D052FE0490841EAEB
:1018F000C0714008CDE90A100AA8CDE90423013DD2
:1019000003F0E4FDDDE90423D8E7490841EAC571A5
:1019100008A86D08CDE90423CDE9081503F0D6FD2C
:10192000059B049A0133D6E713AD079900290BDD17
:1019300007A908A8CDE9042303F0E0FD059B05F8FD
:10194000010B013B049AF0D10F9300239DF838104E
:10195000890602D4B8F1000F1DDD2E2105F8011B08
:101960009BB1B8F1000F16DD59424145A8BF414671
:101970009DF83A000F910029A8EB0108D4BF00217F
:10198000012161F345108DF83A00B8F1000F02DD36
:101990000799002956DC0399002963D1CDF84080CE
:1019A00002F0DF01452921D1002B2946B8BF5B4257
:1019B00001F8022BB4BF2D222B22632B6A7009DDA4
:1019C000642093FBF0F202F1300CE91C85F802C0B0
:1019D00000FB12330A200D4693FBF0F200FB12339A
:1019E00002F1300C303305F802CB4B700F9B002B0B
:1019F00043DC109B002BD4BF002301239DF83A2029
:101A000063F3861200238DF83A202B70F8E507A9BE
:101A100008A8CDE9042303F071FDDDE904239DF856
:101A200038108DF84C00302818BF03F1FF338806BA
:101A300002D4B8F1000F12DD2E218DF84D100DF1FA
:101A40004E05A2E707A908A8CDE9042303F056FD37
:101A500008F1FF38DDE9042305F8010B95E70DF1E6
:101A60004D0598E700211091284615F8011D3029F1
:101A7000FAD02E2918BF054692E70123BEE74B4D49
:101A800007466A1FBDE5010748BF0133C2E551465D
:101A900040460392C8470028039ABFF6DFAD1BB04B
:101AA000BDE8F08F4FF02008D7E54FF03008D4E5BF
:101AB0009046039B4746434418F8010B70281ED1FB
:101AC0001E46109B03EB0608A8EB0603002B3BDC2D
:101AD0002B463A465146484603F06DFD0028DEDBB2
:101AE000304406468344ABEB0603002B7FF741AC42
:101AF00051462020C8470028D1DB0136F3E7514684
:101B0000C8470028D5DACAE75146C8470028BFF6BB
:101B1000C6ADC4E751463020C8470028BFF6D1AD56
:101B2000BDE751463020C847013FD8E55146C84778
:101B30000028B4DB474606EB080318F8010BA0F1B8
:101B40003002092AF2D9BBE751463020C8470028A5
:101B5000A5DB0136B8E7D80601D4190707D55146E9
:101B600030200392C847002899DB039A01369DF87C
:101B70003A30DB0608D59DF83B0003925146C84732
:101B800000288CDB039A01360F9F3744BB1B002BC8
:101B900001DC2B469EE7514630200392C8470028BF
:101BA000FFF67DAF039A0136F0E700BF536D0000EA
:101BB000F8B505464FF02003EFF3118683F3128842
:101BC000BFF36F8F094B1C685CB1094FD4E9013238
:101BD000002D08BF13460BB1387898472468002CB5
:101BE000F4D186F31188BFF36F8FF8BDB0080020E1
:101BF000B80800201FB50F4B1A68BAB901221A6045
:101C00000D4A07CA01AB83E807000C4A4AB193E8C2
:101C1000070003F04DFD002005B05DF804EBFFF771
:101C2000C7BF82F31188BFF36F8FF4E705B05DF88B
:101C300004FB00BF04000020B8080020B1560000DB
:101C4000F0B589B06E4601460546304603F0CAFC41
:101C500096E80700174C84E807002078274638B339
:101C6000154B002119606B1C0DD0144816464FF41B
:101C7000004C134A0023E6FB0C01FEF7FFFD012197
:101C8000281A04F055FC02F0B9FE0120FFF790FF7E
:101C900097E8070005AB83E807000A4A1AB193E802
:101CA000070003F0F2FCFFF7A5FF03F02DF8207802
:101CB00009B0F0BDB8080020040000203F420F002A
:101CC00040420F008B560000014910220A60704705
:101CD00010ED00E072B6404080F31188BFF36F8FC3
:101CE000BFF34F8F30BF62B6BFF36F8F704700BF37
:101CF00072B6494081F3118820BF80F3118862B623
:101D0000704700BF43B2002B08DB012200F01F0028
:101D100002FA00F05B09024A42F82300704700BF54
:101D200000E100E0054B420900F01F0053F82220BB
:101D3000012303FA00F01040704700BF00E100E00B
:101D400043B2002BA8BF03F1604301F10101B8BF0A
:101D5000064B4FEA4111ACBF03F5614300F00F00A1
:101D6000C9B2B4BF195483F80013704714ED00E0F2
:101D700030BFFFF7FDBF00BF0F4A08B50F4B22F081
:101D80007F029A60BFF34F8FBFF36F8FD3F8882025
:101D900022F47002C3F88820EFF3148323F00403C5
:101DA00083F31488BFF36F8F02F0EEFA03F0E0F8CC
:101DB00000F0CAF902F0F2FA0000000000ED00E0C5
:101DC000094A0A49936809689967094958674B683D
:101DD00043F080534B60002383F31188BFF36F8F70
:101DE0009368986F704700BFD80A0020506B0000BE
:101DF00000ED00E012498A684FF030001044EFF324
:101E0000098C80E8F01F202080F31288BFF36F8FC9
:101E10000C4F4FF00066CA698A603E60506F002325
:101E2000536780F3118804B5104600F0CFF9BDE880
:101E3000044002F1300090E8F01F8CF309887047ED
:101E4000D80A002004ED00E01EF0040F0CBFEFF3F1
:101E50000880EFF30980816911F8021C0229FFD084
:101E600001B503F0C6FB01BD42F8203C009B42F8DF
:101E70001C3C0A49019B42F8183C029B42F8143C66
:101E800021F001014FF0807342F8043C42F8081C35
:101E90000023203A02654367704700BFB954000031
:101EA000094A0346906870B113F1160F406E05D0D1
:101EB000A0F120029A4205D8834203D2814228BF72
:101EC0000020704700207047D80A002008B5094B51
:101ED00098600D46144600F079F9204685F309888C
:101EE000002163B681F31188BFF36F8F00220023B6
:101EF00003F0E2FAD80A002001B572B60B4A9069E5
:101F000000281EBF0021916104F0DDF962B6EFF3F5
:101F10000580A0F110004FEAC0000549014409C93D
:101F20009847BDE80140034908470000D80A00204F
:101F300080670000391F0000044B9968D869884207
:101F400003D003494FF080520A607047D80A00203E
:101F500004ED00E038B5194B14469A6A9A6A9A6AF9
:101F60000546900719D5586B9A6A120615D519B10E
:101F70009A6A22F080029A629A6A9A6A9A6AD106EA
:101F80000ED49B6A9A070BD400200C4A936A43F044
:101F9000FF0393620023237038BD6FF01500EBE759
:101FA000064B5B681B05EFD52946FFF779FF002834
:101FB000EAD080F309880220E7E700BF00ED00E0E7
:101FC0000D4B9A6A9A6A9A6A920508D59A6B9A6A30
:101FD000120404D518B19A6A22F400429A62064BA0
:101FE0009A6A9A6AD20558BF9A6A9A6A002042F49D
:101FF0007F429A620870704700ED00E070B5484B70
:102000005B688AB00D46C3F30803002686F3118887
:10201000BFF36F8F02F07F41B1F17F4F11D102F01A
:102020000C0108290DD0110701D405460126002214
:10203000033B8DF80720032B6BD8DFE803F0045532
:10204000595D3546F3E7364BDC6A14F0020460D183
:10205000DA6A002A15DBDA6A520012D5AA6932F868
:10206000021C4DF6027291420AD093F828200AB35E
:102070000DF1070201212846FFF76CFF044600E03E
:102080002C689DF807309BB92022294602A803F04E
:10209000E5FA099B002E3ED0C3F3080222B96FEA8D
:1020A00053236FEA4323099302A9204603F09FFAC2
:1020B0000AB070BD93F829202AB10DF10701012063
:1020C000FFF77EFFDAE75A8D92B2002AD9D09A6ADA
:1020D0009A6A9A6A9A6A9A6A9A6A9A6A6FEA02424B
:1020E0006FEA12429A62CCE70DF107020021C2E7C3
:1020F0000DF107010020E3E7094B9A6A9A6A9A6A90
:102100009A6A9A6A9A6A9A6A6FEA02426FEA124275
:102110009A620024B5E723F4FF7323F00103C2E7BA
:1021200000ED00E0024A536943F010035361704729
:1021300000ED00E0EFF30880EFF3098101B572468E
:10214000FFF75CFF01BD00BF044800232021C21837
:102150000133272B82F80013F9D1704700E100E02A
:1021600004F008FA202080F3118808484FF4026137
:10217000401880F30988EFF314800221084380F3AC
:102180001488BFF36F8FFFF7F7FD0000E014002005
:10219000064B9B68834207D1EFF3058323B1044AC2
:1021A000536843F08053536002F07EBED80A00208B
:1021B00000ED00E0024B034A0348012100F06EB835
:1021C000000001200000002038690000426E054B2D
:1021D000203A1A60044A2021C3E90112184601215D
:1021E00000F066B8C408002000000B15F0B51F4FC2
:1021F00000268E4201DB1046F0BD44689CB353B10B
:1022000004F1FF3C14EA0C0F18D11F2C16D90568F5
:102210001CEA050F12D1202C0568D0F808C0D2B2F4
:102220000FD9B4F1004F0ED8013CB4FA84F4C4F1D4
:102230001F046400072A4CEA040406D96FF0150253
:10224000D9E70824F6E73E24F4E725F01F051543F7
:1022500045F0100544F00104C7F89820C7F89C50D9
:102260000132C7F8A04001360C30C2E700ED00E0B3
:10227000044B0522C3F89420BFF34F8FBFF36F8F39
:10228000704700BF00ED00E0BFF35F8F024B0022FC
:10229000C3F89420704700BF00ED00E010B5034C78
:1022A00001232278FFF7A2FF207010BD180B002039
:1022B00008B5094A00231278FFF798FF10F1160FAE
:1022C00002D0064A072800DD08BDC2F89800C2F80F
:1022D000A0300130F6E700BF180B002000ED00E051
:1022E00014490868082810B521D8FFF7CDFF124C13
:1022F00049680022904201F10C0105D10F4B187082
:10230000FFF7B6FF002010BDC4F8982051F80C3C30
:1023100023F01F03134343F01003C4F89C3051F81B
:10232000043C43F00103C4F8A0300132E2E74FF06F
:10233000FF30E8E74469000000ED00E0180B0020E2
:10234000014B1860704700BF080000204FF02002CA
:10235000EFF3118382F31288BFF36F8F044A0121D8
:10236000C2F8401583F31188BFF36F8F00207047C8
:1023700000E0014020B1034B800143F00103184706
:10238000704700BF3069000038B54468206801F02C
:102390008BFF30B90D48216802F085FF6FF0120005
:1023A00038BD616804698568C9B2012303FA01F286
:1023B000236823EA020323604FF420622B689847C6
:1023C0002120002102F050FD0020E9E7636D0000AC
:1023D000084B70B5C31A0D4607499B100446594374
:1023E0000648402203F08BF92B4601462046BDE803
:1023F00070401847E0080020B76DDBB61866000093
:1024000073B50C4C0C4A4023041B00930D460B463D
:102410000A49A41061430646094803F09CF9011ECD
:1024200005DA30462B4602B0BDE87040184702B0CE
:1024300070BD00BFE0080020C7570000B76DDBB6D5
:1024400018660000002270B5012104461046FFF70F
:1024500077FC0020FFF756FC0F4801F043FA0F4BC2
:10246000984215D103F05EFE26690D49304602F010
:1024700076FF00280BDB246909490125356404F146
:102480001C0002F06CFF002801DBE564002070BD39
:102490006FF00400FBE700BFD92400000000AD0B83
:1024A0009869000001460C2309484B4370B5C418D5
:1024B000D4E90E5600224033A263184403F00CF90D
:1024C0002DB132462B460348BDE87040184770BD19
:1024D000E00800201866000010B1012804D0704701
:1024E000034B1B6C5B0701D1FFF7DCBF704700BFDC
:1024F000E008002008B54FF02003EFF3118183F3CB
:102500001288BFF36F8F124A136843F0020013F072
:10251000010310600CD04FF08042D2F80C34D2F896
:102520000C2413F0010303D00A4803F0D5F801236B
:1025300081F31188BFF36F8F23B1BDE808400020FD
:10254000FFF7B0BFBDE80840012001F0DBB900BFD4
:1025500030090020200900201FB500220123CDE909
:102560000223094ACDF800D06B46CDF804D003F021
:1025700023F9002805DB4FF480420023684602F06F
:102580006FF805B05DF804FBDF57000010B5074C8D
:1025900023782BB94FF4A57003F0E8FF01232370D3
:1025A000BDE81040002001F0ADB900BF190B0020BC
:1025B000094BBFF35B8F53E8002F22F0020143E881
:1025C00000100028F7D1BFF35B8FD30702D401209E
:1025D00001F0E0B9704700BF300900202DE9F0415B
:1025E0003949BFF35B8F0746012251E8003F41E8BC
:1025F00000200028F9D1BFF35B8F33B93349344849
:102600004B60CB608A6002F0BDFE7B1E012B2FD891
:10261000012F07D14FF08043D3F81C3403F003039C
:10262000012B25D003F044FE044618B9294B1B7832
:10263000002B41D14FF02003EFF3118683F3128872
:10264000BFF36F8F0124DFF890804FF08045D5F8FD
:102650001834D5F81824D2030CD503F00303012B4A
:1026600001D0012F06D10CB386F31188BFF36F8F11
:10267000BDE8F081ACB13046FFF73AFBD5F818352C
:10268000002BE4D1D5F80421002AE0D0C5F80431AC
:10269000D5F804310123C5F81835C8F88031AB608E
:1026A000D5E70021212002F0DFFBE7E74FF0804370
:1026B0000222C3F80423DBE74FF080430222C3F871
:1026C00008230646BFE700BF34090020D0080020D9
:1026D000FC0800204C0F002000E100E010B5044C85
:1026E0002046FEF7EDFA2046FFF72AFE002010BD37
:1026F000F5260000F7B5144E8DF8070004460325B3
:10270000EFF311874FF0200181F3118801220DF1C1
:102710000701002001F078FD87F3118820B1012323
:102720003370204603B0F0BD3378002BF9D0013D63
:1027300008D003F0BDFD0028E2D10021422002F0C4
:1027400093FBDDE73570ECE71A0B002008B5094B69
:102750001A786AB90121197006200521FFF7F0FAED
:102760000620FFF7CFFA044B4FF00042C3F80423D2
:10277000002008BD1B0B002000600040F7B5174685
:1027800042680669127A01F01F04B7F5A03F0D46B2
:1027900044EA42140CD104F01F0202F5E0724FF03B
:1027A000A04151F82220D00707D56FF085009AE0AC
:1027B000B7F5005FF16800F09880F2680121A94048
:1027C00011437269F1600121A940B7F5A03F0CBF28
:1027D0000A438A437261B269B3F5C02F0CBF0A4342
:1027E0008A43B2613269B3F5802F0CBF114322EAEC
:1027F00001014A4A3161D2F804330020DBB200F50E
:10280000A27152F82110C1F304218C4272D123FA33
:1028100000F1C9076ED5830003F1804303F5C0437F
:10282000D3F8101521F00101C3F8101501238340DE
:10283000C2F80833C0B201F01DF92046002102F0B1
:10284000D1FFF068E84010F001004CD07069E8401A
:1028500010F0010255D0B369EB40DB075FBF31696F
:1028600021FA05F505F00105C5F102050DF1070096
:1028700054BFEDB2032501F01DF9294B98423DD11B
:102880009DF80720930003F1804303F5C043240221
:10289000D3F8101521F4473121F44071C3F8101515
:1028A000D3F8101504F4F8540C4344EA0545C3F872
:1028B0001055930003F1804303F5C24300201860D4
:1028C0009DF807101B688B0003F1804303F5C0439C
:1028D000D3F8102542F00102C3F810250F4A012356
:1028E0008B40C2F8043303B0F0BD0122AA4021EAB4
:1028F000020166E70130082881D19EE76FF01200DF
:10290000F1E73169E94001F00101C1F1030120461D
:10291000C9B202F067FF1046E5E700BF0060004063
:102920000000AD0B2A4B70B546682A48134083421D
:102930003ED00DD8062B15D005D89BB1022B39D02F
:102940006FF0150033E0B3F5801FF9D1012309E0E2
:102950002148834230D0B3F5A00F2FD0B3F5800FBC
:10296000EED10223D00654BFC2F34015032582F4F2
:10297000807412F4007FC2F34020C4F3002407D017
:1029800012F4006F76681BD001228A40C6F8082531
:1029900040EA440201F01F0142EA032301F5E0711D
:1029A0004FF0A04243EA850342F82130002070BD79
:1029B0000723D7E70423D5E70523D3E70323D1E78C
:1029C000520542BF01228A40C6F80C25E0E700BF4D
:1029D0000600F00006001000020040002DE9F84358
:1029E000414BD3F87C51002D59D0404B4FF0A049BA
:1029F000D3E90521DF68D9F810451B690A4327EAA6
:102A000002075C4027EA04043A4601264FF000081A
:102A100082BB354BC3F87C21D3F87C31344A324831
:102A2000002301261F46D0F8041306FA03FC1CEA13
:102A3000010F0CD0116851B103F5A27150F82110AB
:102A40001760C1F3042106FA01F10C431168013348
:102A5000082B02F10402E6D11CBB4DB1234ED6E98E
:102A60000531F2680B4322EA0302012400254ABB28
:102A7000BDE8F88316420ED03E4208F01F0008BFA2
:102A800000F5E0734FF0000108BF59F8233002F061
:102A9000A9FE22EA060208F101087600B8E72C46F2
:102AA000BCE7124B59680029D7D00E68114F8A68CD
:102AB000224002D04B6838469847002ECDD0314690
:102AC0003668F4E714420CD03169E94001F00101A5
:102AD000C1F10301C9B205F01F0002F083FE22EA32
:102AE000040201356400C2E700600040380900209C
:102AF000006100406066000008B54368D3E9020148
:102B000001F004FB034B984214BF6FF00F0000204C
:102B100008BD00BF0000AD0B10B504460022012126
:102B20000320FFF70DF960682369064A00F10801E8
:102B300001F0EAF8044B984214BF6FF00F00002038
:102B400010BD00BF4D2B00000000AD0B0378012B22
:102B500008D0022B08D04BB9054B0B6201F11000D5
:102B600001F05EBD034BF8E7034BF6E7034BF4E7D8
:102B70000000AD0B0100AE0B0200AE0B0100AD0B6F
:102B800010B50446002201210420FFF7D9F860683F
:102B90002369064A00F1080101F0B6F8044B984297
:102BA00014BF6FF00F00002010BD00BF4D2B0000C0
:102BB0000000AD0B2DE9F04F4668076989B01D464E
:102BC0000C46338BD7F828900093934600211422AB
:102BD00003A802F04EFD8DF80D504FF0FF324FF07C
:102BE000FF33384601F03CFD07F1100A00220023B4
:102BF000504601F035FD304601F0CCF84FF00008AA
:102C00004546D84501D3002449E0217A0A0700F15E
:102C10008F8008F10108D84562680AD28B0708D472
:102C2000237D81EA030000F0010003F00403034365
:102C300016D0BDB10023DDF800C0A81860457AD8D1
:102C4000C80706D42168019309EB050002F006FDD0
:102C5000019B62681544ADB2002B37D00C34D0E72D
:102C60000123E8E7C90724D5236806936368049322
:102C70000025237A03F0010213F0020F8DF80C20D7
:102C800003A90CBF20220022304601F0B1F82E4BE0
:102C9000984221D00B33984253D06FF00404304651
:102CA00001F088F8384601F0BBFC204609B0BDE8C9
:102CB000F08F216801F06043B3F1005FD4D0738BD3
:102CC00093423BD3484602F0C9FCA588002DCBD0E7
:102CD000CDF818900495CCE74FF48042002350467D
:102CE00001F0BEFC38B1304601F064F8D6E90201CB
:102CF00001F00CFAD1E73B6A134A9342CDD1237A13
:102D0000DB0701D40025A9E7069B9945FAD12346A4
:102D100008E0A91AD86801938DB219FA81F102F07E
:102D20009DFC019B5A689542A3F10C03F1D2E9E79F
:102D30006FF08504B3E76FF01B04B0E76FF0150484
:102D4000ADE76FF00F04AAE70000AD0B0D2970B5D9
:102D5000006920D14589B0F912608389B0F9064035
:102D6000B0F914105B1BA41B891B634393FBF1F3A5
:102D70002B44002B1946B8BFD91DC9101160594208
:102D800001F0070103F0070358BF4B4211494B43C1
:102D90005360002070BD102919D1057AB0F90E607A
:102DA000437AB0F90440B0F910105B1BA41B891BD7
:102DB000634393FBF1F32B4403EBD3714910002BD6
:102DC00003F001031160B8BF5B420349DFE76FF016
:102DD0008500DFE748E8010020A107002DE9F04168
:102DE0004568076906468CB0286801F05DFA3860CE
:102DF00020B96FF015000CB0BDE8F0810F228DF8FE
:102E000006200DF10602AB880692002201248DF8FF
:102E100020200DF10502CDE90924072207948DF841
:102E20002C20022206A902F045FF002876DB9DF83F
:102E30000530BC2BDDD13B49084602F003FC70B1E4
:102E40003849394802F0FEFB50B13649374802F0A4
:102E5000F9FB0028CDD1022402E02846CBE7044646
:102E600001343868AB884FF00208202264F07B04FC
:102E700002AF8DF808208DF809400697CDF81C8028
:102E80008DF82080012206A902F014FF002845DBFE
:102E90000021632001F0E8FF3469736820689B8893
:102EA0000997B0228DF807200DF107020692012242
:102EB0000792102200250A9207228DF820508DF8E3
:102EC0002C20424606A902F0F5FEA84291DB9DF8AF
:102ED000083023729DF8093063729DF80D301A0294
:102EE00002F440719DF80A200A4362819DF80B208C
:102EF0009B0103F440731343A381BDF80E30E381BB
:102F0000BDF812302382BDF814306382BDF816304C
:102F1000A382304600F00CF800289EDA6FF004001F
:102F200069E700BF976B0000A06D0000A26D000074
:102F30002DE9F04104694568A06106468CB0E86857
:102F400001F0B2F9E06100286DD0AB68A97943F4D3
:102F5000807CDA04D0F80880D0F810E006D513F4AD
:102F6000406F03D0DB0748BF8CF4406CDEF80030C4
:102F700001278F401CF0010F14BF3B43BB432CF4CF
:102F80008052CEF80030D8F800309847AB79274A05
:102F9000E069012707FA03F3C4E909238368DB69C1
:102FA00004F1200123B96FF004000CB0BDE8F081FA
:102FB0003A4698470028F6DB222220688DF8202028
:102FC00004228DF8212008AA09920222AB880A92D5
:102FD0008DF82C20826809A995683A46A8470028F0
:102FE000E1DB4FF0FF32002104F59C6003F072F941
:102FF00000220023CDE9062300256FF00503CDE96B
:1030000003354FF480620A4B009404F14001CDE98E
:10301000015504F58C6001F065FA3046394602F03E
:103020007AFE2846C1E76FF01500BEE78B5D000011
:10303000535D000038B5056908490446284640F844
:10304000044B02F08CF9064905F1200003F07FF9EA
:10305000606802F037FF00EAE07038BD006B0000E6
:103060002F5F00002DE9F0471C1E05460F469046D5
:1030700010DB7AB14FEA5249D6030023144A304696
:103080004946FDF7FBFB10B1124B1B7843B9404694
:1030900003F06CFA2146281D3B46BDE8F04718476F
:1030A0000D480B4A2F6530184FF0030349F100011A
:1030B00085F854300023FDF7E1FB02460B4605F18D
:1030C000200001F03DFC041EE4DBBDE8F08700BFFA
:1030D00040420F004C0F00203F420F0070B54B796B
:1030E000012B24D18B79032B21D1CC792CB1012C4C
:1030F0001DD143685B689B0719D00A7912B1022A77
:1031000015D10E220B684568B3F5164F2D6862D0B5
:103110002BD8B3F5165F61D014D8B3F5966F5FD096
:1031200008D8B3F5967F5ED0B3F5167F5ED06FF00A
:1031300085004FE0B3F5166F5BD0B3F5965FF6D11F
:10314000364B3CE0B3F5E14F56D007D8B3F5615F9D
:1031500054D0B3F5964FEAD1314B30E047F6122602
:10316000B342E4D14FF4000329E0B3F5613F47D007
:1031700013D8B3F5963F46D009D84DF6C026B342D2
:1031800043D0B3F5614FD2D14FF46B0317E0B3F5E1
:10319000E13FCCD14FF0EB7311E0B3F5612F37D0A5
:1031A00008D8204EB34236D0B3F5E12FBFD14FF04F
:1031B000E86304E01C4EB342B9D14FF08053C5F828
:1031C0002435036903C922430433C5F86C2583E819
:1031D0000300002070BD4FF41D03F0E7134BEEE732
:1031E0004FF49E23EBE74FF4A033E8E74FF41C3392
:1031F000E5E74FF41D23E2E70D4BE0E70D4BDEE77B
:103200004FF06C73DBE70C4BD9E74FF46503D6E75F
:103210004FF07063D3E74FF08063D0E700B0130046
:1032200000A04E0090D0030040420F000050270045
:1032300000C0750000F03A0000903A01F8B5066948
:1032400005460F4603F034F810B92C4B1B7883B9B0
:103250004FF02003EFF3118483F31288BFF36F8FD5
:10326000686802F002FF28BB84F31188BFF36F8FF8
:10327000EEE76424686802F0F8FE70B9012002F0FD
:103280004FFF013CF6D10021212001F0EDFDF0E7D8
:1032900084F31188BFF36F8FF5E74FF02003EFF34E
:1032A000118483F31288BFF36F8F686802F0DDFE2C
:1032B0000028EDD006F8107F69680B680122C3F87A
:1032C0004465C3F848250022C3F82021D3F8200123
:1032D000C3F85821D3F858214A68D20641BF0822C2
:1032E000C3F800254FF48002C3F8042301229A603A
:1032F00084F31188BFF36F8FF8BD00BF4C0F00201F
:10330000F8B50022074601210220FEF719FD022030
:10331000FEF7F8FC7D683E692C68D5F808C00023EC
:10332000C4F800354FF0A0410CF01F0301229A4071
:1033300003F5E0733760C1F80825032241F8232024
:10334000EA68501C07D0287E02F01F0303F5E073E3
:10335000800041F82300C4F80CC5C4F814252A697C
:10336000531C09D0697E02F01F0303F5E0734FF090
:10337000A040890040F823106969481C0CD001F076
:103380001F034FF0A04C0120984003F5E073CCF8E8
:10339000080503204CF82300C4F808153846C4F883
:1033A0001025311DFFF79AFE0746002845D16B68AE
:1033B000190719D506F1120000F0B4FB214B984211
:1033C0003DD1B07CC30003F1804303F5F83304F131
:1033D0000C0204F59071C3F81015C3F814251A4AAD
:1033E00001238340C2F804350823C4F80035EB6894
:1033F00001330CD00023C4F81031D4F8103106F199
:103400001103C4F834350123C4F8383523606B68E0
:103410001A075CBF4FF48072C4F80423DB0644BF74
:103420004FF48003C4F8043310360023C4F8446515
:10343000C4F848350123A360E3603846F8BD6FF057
:103440000407FAE70000AD0B00F00140044A1368DE
:10345000C81A20F07F400344136001F069BE00BF2A
:10346000680900202DE9F843860006F1804600F146
:10347000500406F58836A400A4B204F180444FF449
:103480008037D6F84035DFF86C8021F07F4504F5B1
:1034900088348740D8F80495A3EB090323F07F43D1
:1034A00029F07F42012BC6F8402502D1132003F0FA
:1034B0005DF809F10202AB1A23F07F43B3F5000F68
:1034C00088BF1546002323602368C8F8447325F09D
:1034D0007F43C6F84035D8F80435994506D0EB1A35
:1034E000023B23F07F43B3F5000F01D8BDE8F8831A
:1034F0002B46CFE70010014070B5154D154C002646
:103500002B68002006B170BDD4F80423D203FAD58D
:10351000D4F84021002AF6D0C4F84061D4F8402104
:103520004FF48032C4F84823D4F84015D4F8046529
:10353000721A22F07F42B2F5000F88BF3146012691
:103540001BB16A6828609847DAE72B60DBE700BFA9
:103550005C0900200010014038B50F4C00254FF4E5
:103560008033C4F80855C4F804330C4B4FF40032D0
:10357000C3F8802101212A461120FEF7E1FB11202A
:10358000FEF7C0FB0123064AA360022023601360FC
:10359000FFF724F8284638BD0010014000E100E0A4
:1035A00064090020134AB0F1FF3F14BF03461346DD
:1035B000013B002B1CDD9342A8BF13460E4AD2F8F4
:1035C00004050E4A1168401A10F4000F20F07F42E3
:1035D00018BF002301321344094A0A481060002032
:1035E0005060044A934294BFC9188918FFF73ABF44
:1035F0000023E3E7FFFF7F0000100140680900207F
:103600005C0900204D340000044BD3F80405044B42
:103610001B68C01A20F07F40704700BF00100140B7
:10362000680900204FF0704393F8E02F062A09D173
:10363000D3F8E83FC3F30313033B042B02D8024A39
:10364000D05C704700207047086E0000024AD2F834
:103650000034002BFBD0704700E0014010B502F0B1
:1036600050FD40B14FF08053904AD3F82433C3F358
:103670000423C2F84035FFF7D5FF10B18C4B8D4ABB
:103680005A6702F03EFD48B14FF080534FF0804240
:10369000D3F84432C3F34233C2F83C35FFF7C2FFDC
:1036A00030B1854AD2F8FC3023F08073C2F8FC3088
:1036B00002F027FD40B14FF080430022C3F80C21F7
:1036C000C3F81021C3F83825FFF7ACFF20B14FF045
:1036D00080430322C3F8A025FFF7A4FF60B1774B16
:1036E0000522C3F810260122C3F888260022C3F859
:1036F00018263F22C3F814264FF08053D3F8302108
:10370000511C09BF4FF07043D3F8343193F8E02FC8
:10371000D3F8E83F08BFC3F30313062A4DD1033B98
:10372000042B03D8664AD35C002B46D04FF080525E
:10373000644BD2F80414C3F82015D2F80814C3F867
:103740002415D2F80C14C3F82815D2F81014C3F8B5
:103750002C15D2F81414C3F83015D2F81814C3F885
:103760003415D2F81C14C3F84015D2F82014C3F84D
:103770004415D2F82414C3F84815D2F82814C3F815
:103780004C15D2F82C14C3F85015D2F83014C3F8E5
:103790005415D2F83414C3F86015D2F83814C3F8AD
:1037A0006415D2F83C14C3F86815D2F84014C3F875
:1037B0006C15D2F84424C3F8702502F0A2FC48B17D
:1037C0004FF080534FF08042D3F8583203F04F034C
:1037D000C2F8E43E02F095FC48B14FF08043D3F8C4
:1037E0000024D20744BF6FF00102C3F800244FF059
:1037F0008053D3F83021062A26D1D3F83431033B45
:10380000042B02D8304AD35C63B1304AD2F83C373B
:1038100043F48063C2F83C374FF08053D3F8303123
:10382000062B11D14FF08053D3F83431033B042BD6
:1038300002D8274AD35C3BB14FF01023D3F80822BB
:103840004FF08043C3F858254FF01023D3F80022DF
:10385000002A03DBD3F80432002B22DA1D490123AE
:103860004FF01020C1F804351524FFF7EFFEC0F823
:103870000042FFF7EBFEC0F80442FFF7E7FE00232B
:10388000C1F80435FFF7E2FEBFF34F8F0A49124B30
:10389000CA6802F4E0621343CB60BFF34F8F00BFEE
:1038A000FDE70E4B0E4A1A6010BD00BF003001400C
:1038B00000C007400DF0ADBA00ED00E00050004040
:1038C000F96D000000C00040FE6D000000100040D7
:1038D000036E000000E001400400FA05A80000208B
:1038E0000090D003044B1A7922B9012218609A8003
:1038F00002487047024870476C0900200000AD0B79
:103900000C00AD0B30B510B1012834D030BD4FF0F4
:103910008043D3F81824D3F81814C90329D502F02A
:103920000302012A25D1C3F818254FF08043002255
:10393000C3F80421D3F804210222C3F80423134A54
:10394000D2F8FC0040F08073C2F8FC30104B1C68C9
:1039500044F0010119605D685968491BB1F50A5FBF
:10396000FAD31C604FF08043C2F8FC0001229A6039
:10397000CCE70022D7E74FF080430022C3F80021B4
:10398000D3F80021C3F804031860BFE700ED00E09E
:10399000001000E038B510B1012817D038BD4FF045
:1039A00080440223C4F80833C4F80401D4F8043175
:1039B0000123E36042F21075D4F81834DB03EDD52F
:1039C000012002F0ADFB013DF6D1E7E74FF0804466
:1039D0000023C4F80803C4F80031D4F80031606053
:1039E00042F21075D4F80C34D4F80C24D20303F04E
:1039F000010305D523B1012002F092FB013DF1D175
:103A0000014B00225A71C9E76C0900204FF0804336
:103A100010B5D3F800216AB10022C3F80021D3F811
:103A200000210122C3F80823114B587910B95A71AB
:103A30001B6898474FF08043D3F8042172B10022ED
:103A4000C3F80421D3F80421D3F81824D3F81814A8
:103A5000920704D10122C3F818259A6010BD0222F2
:103A6000C3F80823024BBDE810401B68012018472B
:103A70006C090020012303FA00F0C3B293B14FF0A8
:103A80002003EFF3118183F31288BFF36F8F064A8F
:103A9000D36C23EA0000D06481F31188BFF36F8FE9
:103AA0000248704702487047740900200000AD0BBF
:103AB0000400AD0B2DE9F0410546DFF85CE0174846
:103AC000DFF85C800024FF220126E3B24FF02001E2
:103AD000EFF3118C81F31288BFF36F8F22FA03F199
:103AE000C9070AD5DEF84C1006FA03F7394201BFC0
:103AF0003943CEF84C1040462B708CF31188BFF33D
:103B00006F8F404505D006FA03F39A4304F1010490
:103B1000DBD1BDE8F08100BF740900200200AD0BCD
:103B20000000AD0B2DE9F041144A154E154F054626
:103B3000154800244FF0010E5FFA84FC4FF020037B
:103B4000EFF3118883F31288BFF36F8F0EFA0CF333
:103B5000134207D031680B4201BF1943316085F829
:103B600000C0384688F31188BFF36F8FB84203D086
:103B70009A4304F10104DFD1BDE8F081FFFF0F009B
:103B8000C40900200000AD0B0200AD0BF0B5D0F869
:103B9000243187B004460D46F3B10023C0F8243128
:103BA000D0F82431D0F80431B3B98B68C0F80833A9
:103BB00002238B608B68C0F80433D0F860311BB1EE
:103BC000D0F800329F0502D40123236263610123F0
:103BD00085F82E3007B0F0BDD4F80431002B44D066
:103BE0000023C4F80431D4F804312B6A5E060AD4E9
:103BF00095F82E303BB92946204602F09DFA80F018
:103C0000010085F82E002B6A13F0040C3ED105F15B
:103C10000C070FCF01AE0FC695F830E03B68C4F833
:103C200060C13360D4F86031C4F85CC1D4F85C3151
:103C3000BEF1000F02D095F82E303BB30023C4F83C
:103C40000032AB602E4BC4F8083344F30733002B2B
:103C50004FEA14321ADB02F01F015B0901228A408D
:103C60006033284941F8232010E0C4F84831D4F8E3
:103C700048312B7B23BB05F10C070FCF01AE0FC6DC
:103C80003B68336095F83030002BD8D0D4F8C4347A
:103C9000C4F8C434980725D501238DF8003095F871
:103CA00030300BB985F82F302B6A5B0703D595F8B8
:103CB0002E30002B8ED0D5E900316846984789E731
:103CC0004FF40073C4F8003240F20223AB6003F1FA
:103CD000CE73C4F80833AB68C4F804330123A3607F
:103CE000236277E7590701D50223D6E7DA0701D522
:103CF0000323D2E795F82E30002BCED00423CCE757
:103D000002029C0100E100E02DE9F04190F80480FE
:103D10001D4D342707FB08F7EC1994F82D608EBB76
:103D2000A66084F8306084F82F600E6863604B7B77
:103D300084F8323006F01F03EA5103F5E0734FF0C8
:103D4000A04740F20C6C006847F823C04C6804F0B0
:103D50001F0303F5E07347F823C08B68C0F80865BC
:103D6000C0F80C45C0F824351AB140F30730FDF710
:103D7000C9FF342303FB08550448012385F82D307F
:103D8000BDE8F0810248FBE7C80900200000AD0B48
:103D90000500AD0B036802790621C3F80015044B3A
:103DA000342101FB0233022283F82D20704700BF2B
:103DB000C809002001790C4B0268342000FB013354
:103DC00000210A489960C2F80803D2F8000220F4E2
:103DD000BC50C2F80002C2F80015012283F82D2061
:103DE00083F82F10704700BFC809002002029C0111
:103DF0002DE9F047DFF8D0C290F804E004683423DE
:103E000003FB0EC31746002283F82E204B680D4695
:103E10004BB1CB6803F06043B3F1005F03D0AB4E0E
:103E20003046BDE8F0873426A94BC4F8083306FBBA
:103E30000EC696F82F3003F0FF0A23B1B368C4F81A
:103E40000433A44EECE717F0140F0CBF012300233A
:103E500086F82F30A946B9E80F0006F10C08A8E84B
:103E60000F00D9F80030C8F80030C7F3001386F807
:103E7000303037626B78C4F88835C4F804A1D4F8C0
:103E80000431C4F824A1D4F82431C4F860A1D4F8D2
:103E90006031C4F848A1D4F8483117F0010318BFC5
:103EA0000123C4F8503517F0020318BF0123C4F8EA
:103EB00040352A78032A00F2B580DFE802F084A0BA
:103EC00069022B6903F06041B1F1005FA7D14FF4A3
:103ED0008071C4F80012E8686968C4F84405C4F841
:103EE00048150021C4F85011D4F850010120206277
:103EF000A060D4F850010028FBD0C4F85011D4F8C9
:103F00005011A968C4F84435342303FB0EC3C4F828
:103F100048154FF48021996008236F4E390706D465
:103F2000032A04D00122E2506B6803B96261342392
:103F300003FB0EF30CEB03015CF80320002A74D1A1
:103F40000121D4F84831D4F80401002840F08880D9
:103F5000003B18BF0123D4F82401002800F086801C
:103F6000C4F82421D4F82401D4F86051D4F8000214
:103F700015B110F4007F04D121626161002DE0D001
:103F80000023C00572D5C4F84821D4F84831D8E7D9
:103F90006B68E968C4F84415C4F848352B6903F028
:103FA0006041B1F1005F7FF43AAFA968C4F83435DD
:103FB0004FF48453C4F83815C4F80032342303FB9B
:103FC0000EC3022112E06B68E968C4F8441517F0CB
:103FD000200FC4F848354FF034030BD04FF48071F4
:103FE000C4F8001203FB0EC34FF480219960012333
:103FF000236291E74FF40071C4F80012DFE76B68A9
:10400000E968C4F83415C4F838354FF48053C4F85F
:104010000032342303FB0EC3022199600123236283
:1040200000237AE72D4E082378E77A0744BF002360
:104030008B607B0606D4342303FB0EC39A6842F0E0
:1040400002029A60342303FB0ECCDCF8083043F400
:104050000073CCF80830DCF80830C4F80433DFE62D
:10406000C4F80421D4F80431012374E7002B3FF491
:1040700068AF3421D4F8C434C4F8C43401FB0EC290
:10408000002082F82F008BB1154A164E13F0010F55
:1040900018BF164613F0020F02F1010218BF1646B0
:1040A00013F0040F104B18BF1E46B9E67B063FF510
:1040B000B7AE0EFB01C1204602F03EF8094B0028C6
:1040C00008BF1E46ACE600BFC80900200A00AD0BC1
:1040D00002029C010B00AD0B0000AD0B0400AD0B08
:1040E0000000AE0B0100AD0B0200AE0B014902480F
:1040F000FFF74CBDC80900200030004002494FF0D6
:104100004020FFF743BD00BFFC0900202DE9F0412E
:1041100000F01F0001F01F0601244FF0A04504FA33
:1041200000F806F5E07200F5E07040F20D63B4406F
:10413000C5F80885C5F8084545F8203045F822300F
:10414000042001F0EDFF0927D5F810351C420DD1F0
:104150000420C5F80C8501F0E3FF013FC5F8088590
:10416000042001F0DDFF17F0FF07EDD14FF0A0456F
:104170000420C5F80C4501F0D3FFC5F8084504201C
:1041800001F0CEFFD5F81015034821FA06F606F027
:104190000106801BBDE8F0810100AD0B10B5144C89
:1041A000144A1549032323616361144BA261E3613F
:1041B0004FF4806323620023A3626362E36222669A
:1041C0000F4A6266E01D1022A2662367E3666367FA
:1041D00001F01EFABFF35F8F0A49204601F018FA7A
:1041E000BFF35F8F2023A371BFF35F8F10BD00BFAC
:1041F000300A00200D6E0000166E00004C0B0020EF
:104200003C0B00201A6E000070B5164B182400FB02
:1042100004451D4404FB00331646DC6A012C0ED015
:10422000022C18D0E4B9284601F0B6FF864204D823
:104230003246284601F0B9FF3446204670BD284674
:1042400001F0AAFF8642344628BF0446224628468B
:1042500001F0ABFFF1E72846BDE8704001F0C3BFB5
:104260000024EAE7300A00200E4B70B553F82040D6
:10427000013053F82060A64200D870BDD4E9003563
:104280002846984765B1EB6830B10028B8BF404276
:10429000FF28A8BFFF2018705A7842F001025A7018
:1042A0000834E8E73C6B000070B5054610B90024FF
:1042B000204670BD0378002BF9D00E4C0E4EB44250
:1042C00008D10C4CB442F2D0204601F0C0FF50B9E6
:1042D0001834F7E7204601F0BAFF10B12368AB426B
:1042E000E6D01834EBE72168284601F0ABF9002846
:1042F000EED1DDE7186600008067000030B50023CE
:1043000087B00122CDE904230F22CDE902320193C7
:104310000C4C0D4B0D49182204EBC01402FB00336A
:104320004FF4B075009305FB0011094B4FF4A072D8
:10433000204600F0A5F8637B23F00403637307B005
:1043400030BD00BF08070020D80A002080130020DD
:10435000F545000008B50A4B012202201A70FFF74C
:1043600083FF00F059FF0320FFF77EFF00F0E6F81F
:10437000FCF7F2FB034A137B23F00103137308BD20
:104380004C0F0020880700200248034A0021121A1F
:1043900001F06FB900010020500F002080B5DFF858
:1043A000C080A6B088F308882E4D2F4E6B69DFF8C9
:1043B000BC9043F4007300246B61E02385F8223045
:1043C000EC772C766C76AC7685F820406B6A43F4FB
:1043D000E0236B6285F82340FDF7A4FEFDF774FC33
:1043E0004FF0FF33AB62EB62FDF77AFFFDF7E2FEC1
:1043F00040F20113ADF8243006ABB360CDE91F44A1
:1044000001F024FF2046FFF72FFF0120184DFFF792
:104410002BFF00F095FC174B0593012316490094E0
:10442000CDE903434FF480624B46CDE90144284671
:10443000F56100F025F86A7B074622F00402284661
:104440006A7301F0BEFF2046FFF758FF0B4BF36085
:104450004A46394628463475C6F80480FDF736FDCD
:10446000001D002000ED00E0D80A002055430000A8
:1044700088070020216E0000600F00200807002040
:104480002DE9FF410E9E0673042646730D9E86732A
:1044900000F158050F46D61DC0E916550C9A0025A7
:1044A00026F007062037C0E90655C0E91976856071
:1044B000C573C56606F1200802920B9A01928844E2
:1044C0000A9A009242460446FDF7CEFC044B65650D
:1044D0009B6803B11B6F2367404604B0BDE8F081C1
:1044E000D80A0020F0B587B000270597109F0497E1
:1044F0000F9F03970E9F0297DDE912650D9F0197AD
:104500000C9F00970446FFF7BBFFB5F1FF3F08BFC4
:10451000B6F1FF3F05D055EA060305D1204600F06D
:1045200051FB204607B0F0BD034932462B4604F14B
:10453000180000F083FDF4E7E36300002DE9F04389
:10454000294C2A4D87B02646AE4204F130040FD3E1
:1045500000F054FA244CDFF898904FF4004640F2F3
:10456000E737AC4220D307B0BDE8F04300F0CCBB46
:1045700054F8043C059354F8103C049354F8143C4C
:10458000039354F8183C029354F81C3C019354F8DC
:10459000203C009354E90C0154E90A23FFF770FF13
:1045A00054F8303C5E65CEE7636A5A1C0DD023EAAE
:1045B000E37300213846C3FB060151EAC333D4F844
:1045C000008004D1404600F0FDFA3034C9E74FF4D2
:1045D0007A720023FCF752F902460B4608F11800E4
:1045E000494600F02BFDF0E7F0000020F00000202D
:1045F000E363000008B5094C4FF02002EFF311838C
:1046000082F31288BFF36F8F01F082FFA061FDF784
:1046100017FB0028F0D1FDF75DFBEDE7D80A00207D
:1046200038B504464FF02003EFF3118583F3128869
:10463000BFF36F8F01F021FF48B10022826701F0C4
:10464000C0FE29460548BDE8384000F0C5B9D4E9A8
:1046500002329A4218BF0133A360F2E74D0F0020E7
:1046600013B54FF02004EFF3118184F31288BFF3E8
:104670006F8F846844B1013C846081F31188BFF37B
:104680006F8F002002B010BD52EA030406D181F3FF
:104690001188BFF36F8F6FF00F00F3E7CDE90023B0
:1046A0000246024800F0EAFAECE700BF4D0F002096
:1046B0002DE9F04F474E85B004464FF0FF384FF0DC
:1046C000FF394FF02003EFF3118783F31288BFF314
:1046D0006F8FD4F880508DB9022104F1980001F059
:1046E00005FE002835D10023CDE90089029304F1AD
:1046F00088023946384800F029FCE2E7D4F88420E3
:104700002B68C4F88030954201D1C4F88430D4F8C5
:10471000983043F00203C4F89830EB6823F00403A8
:1047200043F00103EB606B6887F31188BFF36F8F71
:10473000284698474FF02003EFF3118B83F312883C
:10474000BFF36F8FEB68990723F001020BD4EA6087
:104750000EE004F1900500220121284601F0A5FE9B
:104760000028F8D1BFE7306823F00303EB6070B98D
:10477000D4F8983023F00203C4F898308BF31188F2
:10478000BFF36F8FD8059CD400F0E6FA99E70027B5
:10479000D0F800A03B464268954201460CD1016822
:1047A00097B972683160824200D1716040F8083B6D
:1047B000FFF736FF39460023BAF1000FD8D0504634
:1047C0000F46DAF800A0E6E772683960904208BF49
:1047D0007760EBE7000B00204D0F0020F8B5C368B1
:1047E0009A0704460E46C3F340051FD45F071FD443
:1047F0000A680AB982680A60D80744BFA3683360B0
:1048000037684CBF022501257FB31B4B9B68BB4219
:1048100011D101F04DFD80F00100C0B2D7F8983001
:10482000D907C3F3800223D53AB140B96FF00F0521
:104830000023336013E00020F0E71B07F6D40023C9
:104840002360D7F8843063B9C7E92044384601F0C3
:1048500058FDE36843F00403E3603368A36028462F
:10486000F8BD1C60C7F88440F0E76FF01505DFE77E
:104870006FF01205DCE700BFD80A0020F0B589B060
:1048800004460020C4E920000E9D04F18800C4E91C
:10489000220004F19000C4E924001DB32879002807
:1048A00040F2011008BF0120C4F8980000204FF02A
:1048B000FF364FF0FF37CDE90330CDE90100CDE9F8
:1048C0000667094B00942046FFF70CFE25B12968C6
:1048D00011B1204601F0F2FC204609B0BDE8F040DD
:1048E00001F0EFBC0120DFE7B146000013B50190F5
:1048F00008464FF02001EFF3118481F31288BFF3D3
:104900006F8FC16811F00E0F16D153EA020C08D157
:1049100001A9FFF763FF84F31188BFF36F8F02B023
:1049200010BD41F00801C160019981621030034956
:1049300000F084FB0120EEE70020ECE711630000AB
:1049400001460148FFF7D2BF1008002010B5084CFF
:1049500023685BB1FEF758FE03462068054A03440E
:10496000BDE810401361002101F0E2BD10BD00BFA1
:10497000100B0020D80A0020F8B504460D464FF071
:104980002003EFF3118683F31288BFF36F8F0F4B71
:1049900000214FF4004740F2E73019614FF47A727A
:1049A0000023E4FB0701FBF769FF002C084B09DC3F
:1049B0001860084B1D60FFF7C9FF86F31188BFF32D
:1049C0006F8FF8BD0228B8BF0220F1E7D80A002097
:1049D000100B00200C0B002049B9EFF3058030B913
:1049E000054BDA699B689A4201D0FDF7E9B981F37A
:1049F0001188BFF36F8F7047D80A00204FF0200353
:104A0000EFF3118183F31288BFF36F8F044B9A6821
:104A1000D37B013BD37381F31188BFF36F8F704752
:104A2000D80A002038B502460C480D4D01F0C3FCF1
:104A3000044600B9EC68AB684AB95A7BD20606D185
:104A4000A26922B9DA897F2A01D9EB6138BD9C427B
:104A500001D0FFF77BFFEC61F8E700BFF80A002008
:104A6000D80A002070B590F90D20437B002A01463A
:104A700004DA03F07F03437301F075FC4B7B154AA6
:104A800063F07F034B73D2E9083402F12005AB4297
:104A90001BD0D3B191F90E6093F90E0086420FD06E
:104AA000801B00280CDD5868C1E9003001605960A6
:104AB0009068431A5842BDE870405841FFF7B2BFB2
:104AC000A34202D01B68002BE6D1C1E9005421604B
:104AD0005162EDE7D80A002038B501464FF02003B7
:104AE000EFF3118483F31288BFF36F8F154B164ACF
:104AF00098681568A84206D1FFF728FF84F311884B
:104B0000BFF36F8F38BD00251560104A1268BAB127
:104B1000C2897F2A14D8427BD20611D10C4A90F95F
:104B20000E50126895420BDB0A4A904208D01A696F
:104B30008A4202DCFFF796FFDEE7521A1A61DDE7D0
:104B40000022FBE7D80A0020080B0020100B0020F1
:104B50000C0B00200807002070B490F90D20437B57
:104B6000002A2ADBDA0628D1826932BB144A63F0B4
:104B70007F034373D2E9083402F12005AB4217D01A
:104B8000B3B190F90E6093F90E108E420BD0891BD1
:104B9000002908DD5A68C0E900321060586070BC16
:104BA0000020FFF73FBFA34202D01B68002BEAD1D1
:104BB000C0E9005420605062F1E770BC704700BF4C
:104BC000D80A002010B54FF02002EFF3118482F3D1
:104BD0001288BFF36F8F427B510704D484F311888E
:104BE000BFF36F8F10BD22F004024273FFF7B4FFD2
:104BF00021460248BDE81040FFF7EEBE4D0F0020F1
:104C000008B590F90D20437B002A014604DA03F031
:104C10007F03437301F0A7FB044B9868431A584283
:104C20005841BDE80840FFF7FDBE00BFD80A00208C
:104C30002DE9F041064615461C464FF02003EFF3E0
:104C4000118783F31288BFF36F8F01F0ECFB87F3BA
:104C50001188BFF36F8FB4F1FF3F08BFB5F1FF3F7D
:104C600008D02A46234606F118000349BDE8F04162
:104C700000F0E4B9BDE8F081E363000010B5074B34
:104C80009868074B0C4618601146DDE90223FFF7D0
:104C9000CFFF2046BDE81040FDF792B8D80A0020AB
:104CA000080B002070B50446183001F01BFC4FF0D3
:104CB0002003EFF3118683F31288BFF36F8F94F90B
:104CC0000D20637B002A05DA03F07F03637320461F
:104CD00001F049FB0B4D637BA86843F0100363733D
:104CE000031B58425841FFF79DFE86F31188BFF31E
:104CF0006F8FAB68A34203D1BDE8704001F051BB98
:104D000070BD00BFD80A002010B54FF02003EFF3AC
:104D1000118483F31288BFF36F8F084B9A68D37B9B
:104D20000133D3730020FFF77DFE84F31188BFF3B6
:104D30006F8FBDE8104001F034BB00BFD80A0020DF
:104D4000044B002103F12002C3E908220846FFF7C3
:104D500013BE00BFD80A0020F8B54FF02003EFF3D0
:104D6000118583F31288BFF36F8F1A498868437BDC
:104D700003F07F03437301F0F6FA8B685A7B084611
:104D800062F07F025A7350F8202F82421CD0DAB1B1
:104D90004F6A93F90E6092F90E40A6420FD0A41B01
:104DA000002C0CDD5168C3E900210B605360012029
:104DB000FFF738FE2846BDE8F840FDF701B8BA42D3
:104DC00002D01268002AE6D14A6AC3E900021360E1
:104DD0004B62ECE7D80A002050EA01032DE9F041CC
:104DE00005460E4603D1FFF7B7FF002033E06FF012
:104DF0000104241A4FF0FF3363EB0103012C73F11C
:104E0000000302DA01F0AEFB44194FF02003EFF388
:104E1000118883F31288BFF36F8F104F104BB8685F
:104E20001860FFF7EDFEB8680E492A463346183081
:104E300000F004F9BA68537B43F010035373404603
:104E4000FCF7BEFF01F08EFB201A63EB0303012881
:104E500073F10003C9DBBDE8F08100BFD80A002070
:104E6000080B0020E3630000B1F1FF3F08BFB0F181
:104E7000FF3F08B506D1084B9868FFF713FF4FF0C6
:104E8000FF3008BDFFF7A8FF4FF47A7380FB0303E0
:104E9000C00B40EA4340F4E7D80A0020014B986871
:104EA000704700BFD80A00202DE9F04104464FF0BA
:104EB0002003EFF3118683F31288BFF36F8F437BD8
:104EC0001A0705D586F31188BFF36F8FBDE8F0810F
:104ED00023F0200242F00801D20920D14173A368D7
:104EE00013B1204601F047FA04F1180001F0FAFA74
:104EF00004F158074FF00008A56DBD4200D0B5B9C8
:104F00000120FFF78FFD104B9B68A342DAD1EFF32E
:104F10000583002BD6D13046FCF752FFD2E703F0D1
:104F20005F0343F00803437301F01DFAD7E72846F7
:104F300001F021FA05F1180001F0D4FAC5F87880E3
:104F40002846FFF709FED7E7D80A0020D3B5DDE9E8
:104F50000667089CCDE90067FFF790FE1CB1034B84
:104F60009B685B69236002B0D0BD00BFD80A0020F7
:104F700008B50648064A0749121A00F06FFBBDE85B
:104F80000840054A0549064800F068BB00000020BB
:104F9000F0000020746E000000000000746E00003D
:104FA00000000020034B1B680BB9FEF72DBB00204F
:104FB000704700BF140B0020114B10B51C689C42B9
:104FC00008BF0024FFF7EEFF03466CB1D4E90402EA
:104FD000C01A62EBE373012873F100020DDBB0F13C
:104FE000004F73F1000301DB6FF00040054B1B69BC
:104FF00013B19842A8BF184610BD0020F6E700BFC5
:10500000AC000020D80A002030B5036868B10A4A15
:105010005268904209D043B1D3E90421D0E9044554
:10502000121941EB0501C3E90421426813605A607B
:105030000023C0E9003330BDAC000020B3F1FF3FD6
:1050400008BFB2F1FF3FF8B504461F46154667D0CA
:1050500081604FF02003EFF3118683F31288BFF3D2
:105060006F8F6FF00102531B4FF0FF3C6CEB070397
:10507000002B1BDB2B4BD3E90013521A6CEB030301
:10508000551B63EB0703012D73F10002BCBF012523
:105090000023C0E904532448D0E9003C834218D1DE
:1050A000C4E9000CCCF80040446026E0FFF77AFF2A
:1050B000013547F100072D1847EBE077C4E90457A5
:1050C000E9E7521A65EB07059C45C4E90425E7D0DA
:1050D0001B68002BE4D0D3E90417D4E904258A42E5
:1050E00075EB070EEDDA8A1A67EB0505C3E90425AF
:1050F0005A68C4E9003214605C60036883420BD0D4
:105100009C4209D1FFF758FF18B1084B1B69834235
:1051100002D00021FEF746FA86F31188BFF36F8FA5
:10512000F8BD00BF08080020AC000020D80A00200D
:105130002DE9F8430546FFF7CFFC4FF02003EFF3CE
:10514000118483F31288BFF36F8F244EDFF89080B1
:105150003560244DD8F8000032684045D5E9001E7E
:105160004FEAE2770BD050B1D0E9043C9A4277EB9A
:105170000C0916DA9B1A6CEB070CC0E9043C5218B8
:105180004EEB0707C5E9002700253560FFF714FF40
:105190002946FEF707FA84F31188BFF36F8FBDE845
:1051A000F88359184EEBE377D31A336000220023BB
:1051B000C0E90423C5E90017FFF726FF84F311882F
:1051C000BFF36F8F836898474FF02003EFF311848C
:1051D00083F31288BFF36F8FBCE700BF140B00206E
:1051E000AC0000200808002010B54FF02003EFF3BA
:1051F000118483F31288BFF36F8FFEF705FA054A17
:10520000D2E90031C01841F1000184F31188BFF3E5
:105210006F8F10BD08080020024A0349034800F0C0
:1052200042B800BFEF6C0000266E0000416E000027
:105230001FB5094B029302AB0024009307490848AD
:105240008DF80C404FF0FF334FF48062FFF716FBF0
:10525000204604B010BD00BF686E0000001D002095
:10526000100800207047034658B1426802F003025C
:10527000012A03D0032A04D1026812B100209860E9
:1052800070476FF0150070474268816002F00302BA
:10529000032A4FF0000203460CBF006810465A6014
:1052A0007047002070470FB407B504A951F8040BEC
:1052B0000191FBF70BFD03B05DF804EB04B0704700
:1052C000038B13F0070305D10368002B0CBF0020EC
:1052D00003207047022B05D1438B002B14BF002005
:1052E00004207047012B05D10368002B0CBF002060
:1052F00005207047002070472DE9F0410D46074614
:105300001946281D90461E46FFF7BEFF044638B1D9
:105310003346424629463846A446BDE8F041604738
:10532000BDE8F08110B44FF02004EFF3118284F354
:105330001288BFF36F8F416110BC0121FBF7D4BC11
:1053400010B50C4640B139B1081DFFF78CFF28B9E4
:10535000A36833F0030301D06FF0150010BD38B51A
:105360000C46054658B151B10B6843B14B6833B197
:105370001C22002100F07DF92C61002038BD6FF067
:105380001500FBE770B504460E46FFF7D9FF051E72
:1053900031DB4FF02003EFF3118183F31288BFF369
:1053A0006F8F638B208B4FF6FF75AB4200F00702C7
:1053B0002ED0022A0ED1013363831546012381F3D7
:1053C0001188BFF36F8FB3B1002331462046FFF73A
:1053D00093FF10E0830701D0062A0ED1002333602B
:1053E000636893B9C4E90066154662B90A46204667
:1053F0000221FBF779FC284670BD052A0CBF6FF02F
:1054000085056FF004050023D9E71E606660EBE7B1
:105410006FF00A05F7E710B54FF02003EFF31182A4
:1054200083F31288BFF36F8F048B04F00704022C00
:105430000AD0012C0CBF6FF004006FF0850082F3DE
:105440001188BFF36F8F08E0438B013B9BB243830E
:1054500023B92146FBF748FC204610BD2046EEE765
:105460004FF02002EFF3118382F31288BFF36F8FA6
:1054700000680B60704738B50468002CBCBF00247E
:105480000460002B0D4611469DF810200CDA0360D5
:105490000122046885F31188BFF36F8F11B10020DA
:1054A000FFF72AFF204638BD04681AB101340460B2
:1054B0000222EEE7013CFAE7044608B50846114629
:1054C0001A46A047FFF7EAFCFCF762FED0E900218C
:1054D00030B54FF03333A2FB0324D51843EB04055A
:1054E000A1FB0313521844EB0304521944F10002C8
:1054F000891843F10003C0E9001330BD0A68002A8F
:1055000010B503460FDD013A0A601A6844680A20A4
:10551000A2FB001200FB0422100F22F07042C3E92C
:105520000012303010BD3020FCE72DE9F84F9A46CC
:10553000D3786F2B80460F461546A3F1410B29D037
:1055400024D8582B14BF0A261026DDF8289032469E
:10555000002340463946FBF791F9092AD4B21ED8F8
:105560003034B045E4B277F1000309F8014D01D3BE
:10557000D14511D82B789B0605D5082E15D1AB78CF
:1055800043F00803AB704846BDE8F88F03F0F7031B
:10559000702BD7E70826D8E780460F46D7E7BBF140
:1055A000190F94BF37345734DBE7102EEBD1AB78AB
:1055B00043F01003E6E72DE9F0410746884615461B
:1055C0001E461446B442A4EB050002D33EB923782C
:1055D0002BB114F8010B4146B8470028F2DABDE8B8
:1055E000F08170470022C0E900228260704700F01D
:1055F00044BE0146006800F040BE00210120FFF7D4
:10560000F6BF08B5FCF7B4FBBDE80840FCF794BC56
:105610000139034611F8012F0AB91A70704703F8CF
:10562000012BF7E7034600201A5C02B970470130EE
:10563000FAE7034600201A5C0AB1884200D170479D
:105640000130F8E7431E013913F8012F11F8010F5B
:10565000824201D1002AF7D1101A704710B5431EBB
:105660000A44914200D110BD11F8014B03F8014FDB
:10567000F7E7C9B202440346934200D1704703F8EA
:10568000011BF9E74FF0FF30704784B004AB03E92A
:1056900007009DF80430062B08D14FF0804301220B
:1056A000C3F80025BFF34F8F20BFFDE704B070475C
:1056B00084B004AB03E90700002383F31188BFF330
:1056C0006F8F04B070470369C9B20C2201FB02332B
:1056D000186C00F0070070474FF02003EFF31182C1
:1056E00083F31288BFF36F8F036803F0C00343F0A6
:1056F0000203036082F31188BFF36F8F7047034684
:1057000070B50069C9B24FF02004EFF3118684F33D
:105710001288BFF36F8F0C2505FB0104246C14F075
:10572000C00401D0A24210D105FB01000122026495
:10573000002086F31188BFF36F8F28B95B6803EBF5
:10574000C1014B689847002070BD4FF0FF30F0E773
:105750008022FFF7D4BFF8B5069F04690546C9B299
:105760004FF02000EFF3118C80F31288BFF36F8F9E
:105770000C2606FB0146306C00F0070EBEF1010F4F
:1057800011D1376400268CF31188BFF36F8F46B9AF
:105790000C2000FB0144C4E90E236B6853F8313040
:1057A00098473046F8BD00F0C000874214BF4FF064
:1057B000FF366FF07706E6E713B580240094FFF715
:1057C000CAFF02B010BD006910B4CBB21C2403FBA9
:1057D0000400002110BC10470020FEF7DBB8104683
:1057E000FEF71EBF00F01F00800000F1A040D0F8BF
:1057F000003723F4403343EA0143C0F800377047D1
:1058000043685B68D3F810350B600020704743682D
:105810005B68D3F8040542400A404240C3F80425BF
:105820000020704743685B680020C3F80815704784
:1058300043685B680020C3F80C15704743685A68DA
:10584000D2F804354B40C2F8043500207047036994
:10585000586830B558B10024814212D108689D685B
:1058600054B98D42586000D19860002008606AB930
:10587000002030BD2846EFE78D42206008BF9C60C5
:10588000F3E705680446002DF4D13AB198685A68E8
:105890000A6059600028EBD19960EAE76FF01500C3
:1058A000E7E7B2F5005F14BF6FF085000020704796
:1058B000FEF7D6BE1FB5CDE9011202228DF80C20ED
:1058C000826801A994680122A04704B010BD07B501
:1058D0008DF804201A0A8DF805208DF80630032271
:1058E0000B4601A9FFF7E6FF03B05DF804FB2DE9C5
:1058F000F84306460C461546994600F0D9FC10BB05
:10590000D6F80480366906F120074FF0FF324FF0D9
:10591000FF333846FFF7CCFF328BB8F808107068B9
:1059200055402C4082EA09025440A4B2234610227A
:10593000FFF7CDFF054600B934833846FEF770FE09
:105940002846BDE8F8836FF00A05F9E700220B4608
:105950001146FFF7CCBF00231A46FFF7C8BF0A461F
:105960000023FFF7C4BF0023FFF7C1BF30B587B0E6
:105970000C4600218DF80410118849BAADF80510C5
:10598000518849BAADF80710918849BAADF80910A5
:10599000D18849BAADF80B10118949BAADF80D108C
:1059A000518949BAADF80F10918949BAADF8111073
:1059B000D189128A054649BAADF8131051BAADF82B
:1059C00015106068298963B113461022FFF77FFF25
:1059D00028B92B896068112201A9FFF76BFF07B076
:1059E00030BD0B46132201A9F7E72DE9F3414668C4
:1059F00005697068FEF758FC6860002861D033893B
:105A00004FF07D081227022201A98DF804808DF83D
:105A10000570FFF74FFF044600284AD1342268681A
:105A200033898DF8052001A902228DF80480FFF743
:105A300041FF044600283CD100216320FFF714FAFF
:105A40003A46214605F10800FFF713FE4EF2E00347
:105A50001E222B83AC83AC77686833898DF80420D1
:105A600040228DF8052001A90222FFF723FF2746D7
:105A70000446F0B92B8B318968681022FFF727FFA5
:105A80000446B0B9EB8A318968680E22FFF71FFF20
:105A9000044670B91F22686833898DF80420982263
:105AA0008DF8052001A902228DF80670FFF702FF8C
:105AB000044605F12000FEF7B3FD204602B0BDE824
:105AC000F0816FF01504F4E72DE9F74FD0F804A04A
:105AD00004690D46174600F0EBFB8346002840F0B2
